{
    "contractName": "PlatformToken",
    "abi": [
        {
            "inputs": [
                {
                    "internalType": "string",
                    "name": "_name",
                    "type": "string"
                },
                {
                    "internalType": "string",
                    "name": "_symbol",
                    "type": "string"
                },
                {
                    "internalType": "address",
                    "name": "_multisig",
                    "type": "address"
                }
            ],
            "stateMutability": "nonpayable",
            "type": "constructor"
        },
        {
            "anonymous": false,
            "inputs": [
                {
                    "indexed": true,
                    "internalType": "address",
                    "name": "owner",
                    "type": "address"
                },
                {
                    "indexed": true,
                    "internalType": "address",
                    "name": "spender",
                    "type": "address"
                },
                {
                    "indexed": false,
                    "internalType": "uint256",
                    "name": "value",
                    "type": "uint256"
                }
            ],
            "name": "Approval",
            "type": "event"
        },
        {
            "anonymous": false,
            "inputs": [
                {
                    "indexed": true,
                    "internalType": "address",
                    "name": "delegator",
                    "type": "address"
                },
                {
                    "indexed": true,
                    "internalType": "address",
                    "name": "fromDelegate",
                    "type": "address"
                },
                {
                    "indexed": true,
                    "internalType": "address",
                    "name": "toDelegate",
                    "type": "address"
                }
            ],
            "name": "DelegateChanged",
            "type": "event"
        },
        {
            "anonymous": false,
            "inputs": [
                {
                    "indexed": true,
                    "internalType": "address",
                    "name": "delegate",
                    "type": "address"
                },
                {
                    "indexed": false,
                    "internalType": "uint256",
                    "name": "previousBalance",
                    "type": "uint256"
                },
                {
                    "indexed": false,
                    "internalType": "uint256",
                    "name": "newBalance",
                    "type": "uint256"
                }
            ],
            "name": "DelegateVotesChanged",
            "type": "event"
        },
        {
            "anonymous": false,
            "inputs": [
                {
                    "indexed": true,
                    "internalType": "bytes32",
                    "name": "role",
                    "type": "bytes32"
                },
                {
                    "indexed": true,
                    "internalType": "bytes32",
                    "name": "previousAdminRole",
                    "type": "bytes32"
                },
                {
                    "indexed": true,
                    "internalType": "bytes32",
                    "name": "newAdminRole",
                    "type": "bytes32"
                }
            ],
            "name": "RoleAdminChanged",
            "type": "event"
        },
        {
            "anonymous": false,
            "inputs": [
                {
                    "indexed": true,
                    "internalType": "bytes32",
                    "name": "role",
                    "type": "bytes32"
                },
                {
                    "indexed": true,
                    "internalType": "address",
                    "name": "account",
                    "type": "address"
                },
                {
                    "indexed": true,
                    "internalType": "address",
                    "name": "sender",
                    "type": "address"
                }
            ],
            "name": "RoleGranted",
            "type": "event"
        },
        {
            "anonymous": false,
            "inputs": [
                {
                    "indexed": true,
                    "internalType": "bytes32",
                    "name": "role",
                    "type": "bytes32"
                },
                {
                    "indexed": true,
                    "internalType": "address",
                    "name": "account",
                    "type": "address"
                },
                {
                    "indexed": true,
                    "internalType": "address",
                    "name": "sender",
                    "type": "address"
                }
            ],
            "name": "RoleRevoked",
            "type": "event"
        },
        {
            "anonymous": false,
            "inputs": [
                {
                    "indexed": true,
                    "internalType": "address",
                    "name": "from",
                    "type": "address"
                },
                {
                    "indexed": true,
                    "internalType": "address",
                    "name": "to",
                    "type": "address"
                },
                {
                    "indexed": false,
                    "internalType": "uint256",
                    "name": "value",
                    "type": "uint256"
                }
            ],
            "name": "Transfer",
            "type": "event"
        },
        {
            "inputs": [],
            "name": "BURNER_ROLE",
            "outputs": [
                {
                    "internalType": "bytes32",
                    "name": "",
                    "type": "bytes32"
                }
            ],
            "stateMutability": "view",
            "type": "function"
        },
        {
            "inputs": [],
            "name": "DEFAULT_ADMIN_ROLE",
            "outputs": [
                {
                    "internalType": "bytes32",
                    "name": "",
                    "type": "bytes32"
                }
            ],
            "stateMutability": "view",
            "type": "function"
        },
        {
            "inputs": [],
            "name": "DOMAIN_SEPARATOR",
            "outputs": [
                {
                    "internalType": "bytes32",
                    "name": "",
                    "type": "bytes32"
                }
            ],
            "stateMutability": "view",
            "type": "function"
        },
        {
            "inputs": [],
            "name": "MINTER_ROLE",
            "outputs": [
                {
                    "internalType": "bytes32",
                    "name": "",
                    "type": "bytes32"
                }
            ],
            "stateMutability": "view",
            "type": "function"
        },
        {
            "inputs": [
                {
                    "internalType": "address",
                    "name": "owner",
                    "type": "address"
                },
                {
                    "internalType": "address",
                    "name": "spender",
                    "type": "address"
                }
            ],
            "name": "allowance",
            "outputs": [
                {
                    "internalType": "uint256",
                    "name": "",
                    "type": "uint256"
                }
            ],
            "stateMutability": "view",
            "type": "function"
        },
        {
            "inputs": [
                {
                    "internalType": "address",
                    "name": "spender",
                    "type": "address"
                },
                {
                    "internalType": "uint256",
                    "name": "amount",
                    "type": "uint256"
                }
            ],
            "name": "approve",
            "outputs": [
                {
                    "internalType": "bool",
                    "name": "",
                    "type": "bool"
                }
            ],
            "stateMutability": "nonpayable",
            "type": "function"
        },
        {
            "inputs": [
                {
                    "internalType": "address",
                    "name": "account",
                    "type": "address"
                }
            ],
            "name": "balanceOf",
            "outputs": [
                {
                    "internalType": "uint256",
                    "name": "",
                    "type": "uint256"
                }
            ],
            "stateMutability": "view",
            "type": "function"
        },
        {
            "inputs": [
                {
                    "internalType": "address",
                    "name": "account",
                    "type": "address"
                },
                {
                    "internalType": "uint256",
                    "name": "amount",
                    "type": "uint256"
                }
            ],
            "name": "burn",
            "outputs": [],
            "stateMutability": "nonpayable",
            "type": "function"
        },
        {
            "inputs": [
                {
                    "internalType": "address",
                    "name": "account",
                    "type": "address"
                },
                {
                    "internalType": "uint32",
                    "name": "pos",
                    "type": "uint32"
                }
            ],
            "name": "checkpoints",
            "outputs": [
                {
                    "components": [
                        {
                            "internalType": "uint32",
                            "name": "fromBlock",
                            "type": "uint32"
                        },
                        {
                            "internalType": "uint224",
                            "name": "votes",
                            "type": "uint224"
                        }
                    ],
                    "internalType": "struct KIP7Votes.Checkpoint",
                    "name": "",
                    "type": "tuple"
                }
            ],
            "stateMutability": "view",
            "type": "function"
        },
        {
            "inputs": [],
            "name": "decimals",
            "outputs": [
                {
                    "internalType": "uint8",
                    "name": "",
                    "type": "uint8"
                }
            ],
            "stateMutability": "view",
            "type": "function"
        },
        {
            "inputs": [
                {
                    "internalType": "address",
                    "name": "spender",
                    "type": "address"
                },
                {
                    "internalType": "uint256",
                    "name": "subtractedValue",
                    "type": "uint256"
                }
            ],
            "name": "decreaseAllowance",
            "outputs": [
                {
                    "internalType": "bool",
                    "name": "",
                    "type": "bool"
                }
            ],
            "stateMutability": "nonpayable",
            "type": "function"
        },
        {
            "inputs": [
                {
                    "internalType": "address",
                    "name": "delegatee",
                    "type": "address"
                }
            ],
            "name": "delegate",
            "outputs": [],
            "stateMutability": "nonpayable",
            "type": "function"
        },
        {
            "inputs": [
                {
                    "internalType": "address",
                    "name": "delegatee",
                    "type": "address"
                },
                {
                    "internalType": "uint256",
                    "name": "nonce",
                    "type": "uint256"
                },
                {
                    "internalType": "uint256",
                    "name": "expiry",
                    "type": "uint256"
                },
                {
                    "internalType": "uint8",
                    "name": "v",
                    "type": "uint8"
                },
                {
                    "internalType": "bytes32",
                    "name": "r",
                    "type": "bytes32"
                },
                {
                    "internalType": "bytes32",
                    "name": "s",
                    "type": "bytes32"
                }
            ],
            "name": "delegateBySig",
            "outputs": [],
            "stateMutability": "nonpayable",
            "type": "function"
        },
        {
            "inputs": [
                {
                    "internalType": "address",
                    "name": "account",
                    "type": "address"
                }
            ],
            "name": "delegates",
            "outputs": [
                {
                    "internalType": "address",
                    "name": "",
                    "type": "address"
                }
            ],
            "stateMutability": "view",
            "type": "function"
        },
        {
            "inputs": [],
            "name": "getChainId",
            "outputs": [
                {
                    "internalType": "uint256",
                    "name": "",
                    "type": "uint256"
                }
            ],
            "stateMutability": "view",
            "type": "function"
        },
        {
            "inputs": [
                {
                    "internalType": "uint256",
                    "name": "blockNumber",
                    "type": "uint256"
                }
            ],
            "name": "getPastTotalSupply",
            "outputs": [
                {
                    "internalType": "uint256",
                    "name": "",
                    "type": "uint256"
                }
            ],
            "stateMutability": "view",
            "type": "function"
        },
        {
            "inputs": [
                {
                    "internalType": "address",
                    "name": "account",
                    "type": "address"
                },
                {
                    "internalType": "uint256",
                    "name": "blockNumber",
                    "type": "uint256"
                }
            ],
            "name": "getPastVotes",
            "outputs": [
                {
                    "internalType": "uint256",
                    "name": "",
                    "type": "uint256"
                }
            ],
            "stateMutability": "view",
            "type": "function"
        },
        {
            "inputs": [
                {
                    "internalType": "bytes32",
                    "name": "role",
                    "type": "bytes32"
                }
            ],
            "name": "getRoleAdmin",
            "outputs": [
                {
                    "internalType": "bytes32",
                    "name": "",
                    "type": "bytes32"
                }
            ],
            "stateMutability": "view",
            "type": "function"
        },
        {
            "inputs": [
                {
                    "internalType": "address",
                    "name": "account",
                    "type": "address"
                }
            ],
            "name": "getVotes",
            "outputs": [
                {
                    "internalType": "uint256",
                    "name": "",
                    "type": "uint256"
                }
            ],
            "stateMutability": "view",
            "type": "function"
        },
        {
            "inputs": [
                {
                    "internalType": "bytes32",
                    "name": "role",
                    "type": "bytes32"
                },
                {
                    "internalType": "address",
                    "name": "account",
                    "type": "address"
                }
            ],
            "name": "grantRole",
            "outputs": [],
            "stateMutability": "nonpayable",
            "type": "function"
        },
        {
            "inputs": [
                {
                    "internalType": "bytes32",
                    "name": "role",
                    "type": "bytes32"
                },
                {
                    "internalType": "address",
                    "name": "account",
                    "type": "address"
                }
            ],
            "name": "hasRole",
            "outputs": [
                {
                    "internalType": "bool",
                    "name": "",
                    "type": "bool"
                }
            ],
            "stateMutability": "view",
            "type": "function"
        },
        {
            "inputs": [
                {
                    "internalType": "address",
                    "name": "spender",
                    "type": "address"
                },
                {
                    "internalType": "uint256",
                    "name": "addedValue",
                    "type": "uint256"
                }
            ],
            "name": "increaseAllowance",
            "outputs": [
                {
                    "internalType": "bool",
                    "name": "",
                    "type": "bool"
                }
            ],
            "stateMutability": "nonpayable",
            "type": "function"
        },
        {
            "inputs": [
                {
                    "internalType": "address",
                    "name": "account",
                    "type": "address"
                },
                {
                    "internalType": "uint256",
                    "name": "amount",
                    "type": "uint256"
                }
            ],
            "name": "mint",
            "outputs": [
                {
                    "internalType": "bool",
                    "name": "",
                    "type": "bool"
                }
            ],
            "stateMutability": "nonpayable",
            "type": "function"
        },
        {
            "inputs": [],
            "name": "name",
            "outputs": [
                {
                    "internalType": "string",
                    "name": "",
                    "type": "string"
                }
            ],
            "stateMutability": "view",
            "type": "function"
        },
        {
            "inputs": [
                {
                    "internalType": "address",
                    "name": "owner",
                    "type": "address"
                }
            ],
            "name": "nonces",
            "outputs": [
                {
                    "internalType": "uint256",
                    "name": "",
                    "type": "uint256"
                }
            ],
            "stateMutability": "view",
            "type": "function"
        },
        {
            "inputs": [
                {
                    "internalType": "address",
                    "name": "account",
                    "type": "address"
                }
            ],
            "name": "numCheckpoints",
            "outputs": [
                {
                    "internalType": "uint32",
                    "name": "",
                    "type": "uint32"
                }
            ],
            "stateMutability": "view",
            "type": "function"
        },
        {
            "inputs": [
                {
                    "internalType": "address",
                    "name": "owner",
                    "type": "address"
                },
                {
                    "internalType": "address",
                    "name": "spender",
                    "type": "address"
                },
                {
                    "internalType": "uint256",
                    "name": "value",
                    "type": "uint256"
                },
                {
                    "internalType": "uint256",
                    "name": "deadline",
                    "type": "uint256"
                },
                {
                    "internalType": "uint8",
                    "name": "v",
                    "type": "uint8"
                },
                {
                    "internalType": "bytes32",
                    "name": "r",
                    "type": "bytes32"
                },
                {
                    "internalType": "bytes32",
                    "name": "s",
                    "type": "bytes32"
                }
            ],
            "name": "permit",
            "outputs": [],
            "stateMutability": "nonpayable",
            "type": "function"
        },
        {
            "inputs": [
                {
                    "internalType": "bytes32",
                    "name": "role",
                    "type": "bytes32"
                },
                {
                    "internalType": "address",
                    "name": "account",
                    "type": "address"
                }
            ],
            "name": "renounceRole",
            "outputs": [],
            "stateMutability": "nonpayable",
            "type": "function"
        },
        {
            "inputs": [
                {
                    "internalType": "bytes32",
                    "name": "role",
                    "type": "bytes32"
                },
                {
                    "internalType": "address",
                    "name": "account",
                    "type": "address"
                }
            ],
            "name": "revokeRole",
            "outputs": [],
            "stateMutability": "nonpayable",
            "type": "function"
        },
        {
            "inputs": [
                {
                    "internalType": "address",
                    "name": "recipient",
                    "type": "address"
                },
                {
                    "internalType": "uint256",
                    "name": "amount",
                    "type": "uint256"
                }
            ],
            "name": "safeTransfer",
            "outputs": [],
            "stateMutability": "nonpayable",
            "type": "function"
        },
        {
            "inputs": [
                {
                    "internalType": "address",
                    "name": "recipient",
                    "type": "address"
                },
                {
                    "internalType": "uint256",
                    "name": "amount",
                    "type": "uint256"
                },
                {
                    "internalType": "bytes",
                    "name": "_data",
                    "type": "bytes"
                }
            ],
            "name": "safeTransfer",
            "outputs": [],
            "stateMutability": "nonpayable",
            "type": "function"
        },
        {
            "inputs": [
                {
                    "internalType": "address",
                    "name": "sender",
                    "type": "address"
                },
                {
                    "internalType": "address",
                    "name": "recipient",
                    "type": "address"
                },
                {
                    "internalType": "uint256",
                    "name": "amount",
                    "type": "uint256"
                }
            ],
            "name": "safeTransferFrom",
            "outputs": [],
            "stateMutability": "nonpayable",
            "type": "function"
        },
        {
            "inputs": [
                {
                    "internalType": "address",
                    "name": "sender",
                    "type": "address"
                },
                {
                    "internalType": "address",
                    "name": "recipient",
                    "type": "address"
                },
                {
                    "internalType": "uint256",
                    "name": "amount",
                    "type": "uint256"
                },
                {
                    "internalType": "bytes",
                    "name": "_data",
                    "type": "bytes"
                }
            ],
            "name": "safeTransferFrom",
            "outputs": [],
            "stateMutability": "nonpayable",
            "type": "function"
        },
        {
            "inputs": [
                {
                    "internalType": "bytes4",
                    "name": "interfaceId",
                    "type": "bytes4"
                }
            ],
            "name": "supportsInterface",
            "outputs": [
                {
                    "internalType": "bool",
                    "name": "",
                    "type": "bool"
                }
            ],
            "stateMutability": "view",
            "type": "function"
        },
        {
            "inputs": [],
            "name": "symbol",
            "outputs": [
                {
                    "internalType": "string",
                    "name": "",
                    "type": "string"
                }
            ],
            "stateMutability": "view",
            "type": "function"
        },
        {
            "inputs": [],
            "name": "totalSupply",
            "outputs": [
                {
                    "internalType": "uint256",
                    "name": "",
                    "type": "uint256"
                }
            ],
            "stateMutability": "view",
            "type": "function"
        },
        {
            "inputs": [
                {
                    "internalType": "address",
                    "name": "to",
                    "type": "address"
                },
                {
                    "internalType": "uint256",
                    "name": "amount",
                    "type": "uint256"
                }
            ],
            "name": "transfer",
            "outputs": [
                {
                    "internalType": "bool",
                    "name": "",
                    "type": "bool"
                }
            ],
            "stateMutability": "nonpayable",
            "type": "function"
        },
        {
            "inputs": [
                {
                    "internalType": "address",
                    "name": "from",
                    "type": "address"
                },
                {
                    "internalType": "address",
                    "name": "to",
                    "type": "address"
                },
                {
                    "internalType": "uint256",
                    "name": "amount",
                    "type": "uint256"
                }
            ],
            "name": "transferFrom",
            "outputs": [
                {
                    "internalType": "bool",
                    "name": "",
                    "type": "bool"
                }
            ],
            "stateMutability": "nonpayable",
            "type": "function"
        }
    ],
    "bytecode": "6101406040523480156200001257600080fd5b5060405162002e2338038062002e238339810160408190526200003591620003a7565b8280604051806040016040528060018152602001603160f81b815250858581600490805190602001906200006b92919062000234565b5080516200008190600590602084019062000234565b5050825160208085019190912083518483012060e08290526101008190524660a0818152604080517f8b73c3c69bb8fe3d512ecc4cf759cc79239f7b179b0ffacaa9a75d522b39400f81880181905281830187905260608201869052608082019490945230818401528151808203909301835260c0019052805194019390932091935091906080523060c0526101205250505050506001600160a01b0381166200017d5760405162461bcd60e51b815260206004820152602360248201527f4d756c74697369672063616e6e6f7420626520746865207a65726f206164647260448201526265737360e81b606482015260840160405180910390fd5b6200018a60008262000193565b50505062000471565b6000828152602081815260408083206001600160a01b038516845290915290205460ff1662000230576000828152602081815260408083206001600160a01b03851684529091529020805460ff19166001179055620001ef3390565b6001600160a01b0316816001600160a01b0316837f2f8788117e7eff1d82e926ec794901d17c78024a50270940304540a733656f0d60405160405180910390a45b5050565b828054620002429062000434565b90600052602060002090601f016020900481019282620002665760008555620002b1565b82601f106200028157805160ff1916838001178555620002b1565b82800160010185558215620002b1579182015b82811115620002b157825182559160200191906001019062000294565b50620002bf929150620002c3565b5090565b5b80821115620002bf5760008155600101620002c4565b634e487b7160e01b600052604160045260246000fd5b600082601f8301126200030257600080fd5b81516001600160401b03808211156200031f576200031f620002da565b604051601f8301601f19908116603f011681019082821181831017156200034a576200034a620002da565b816040528381526020925086838588010111156200036757600080fd5b600091505b838210156200038b57858201830151818301840152908201906200036c565b838211156200039d5760008385830101525b9695505050505050565b600080600060608486031215620003bd57600080fd5b83516001600160401b0380821115620003d557600080fd5b620003e387838801620002f0565b94506020860151915080821115620003fa57600080fd5b506200040986828701620002f0565b604086015190935090506001600160a01b03811681146200042957600080fd5b809150509250925092565b600181811c908216806200044957607f821691505b602082108114156200046b57634e487b7160e01b600052602260045260246000fd5b50919050565b60805160a05160c05160e0516101005161012051612962620004c16000396000611343015260006113920152600061136d015260006112c6015260006112f00152600061131a01526129626000f3fe608060405234801561001057600080fd5b50600436106102325760003560e01c80636fcfff4511610130578063a457c2d7116100b8578063d53913931161007c578063d539139314610510578063d547741f14610537578063dd62ed3e1461054a578063eb7955491461055d578063f1127ed81461057057600080fd5b8063a457c2d7146104b1578063a9059cbb146104c4578063b88d4fde146104d7578063c3cda520146104ea578063d505accf146104fd57600080fd5b806391d14854116100ff57806391d148541461046857806395d89b411461047b5780639ab24eb0146104835780639dc29fac14610496578063a217fddf146104a957600080fd5b80636fcfff45146103f157806370a08231146104195780637ecebe00146104425780638e539e8c1461045557600080fd5b80633408e470116101be57806340c10f191161018257806340c10f1914610361578063423f6cef1461037457806342842e0e14610387578063587cde1e1461039a5780635c19a95c146103de57600080fd5b80633408e4701461031a5780633644e5151461032057806336568abe14610328578063395093511461033b5780633a46b1a81461034e57600080fd5b806323b872dd1161020557806323b872dd14610299578063248a9ca3146102ac578063282c51f3146102cf5780632f2ff15d146102f6578063313ce5671461030b57600080fd5b806301ffc9a71461023757806306fdde031461025f578063095ea7b31461027457806318160ddd14610287575b600080fd5b61024a610245366004612356565b6105ad565b60405190151581526020015b60405180910390f35b61026761060e565b60405161025691906123cb565b61024a6102823660046123fa565b6106a0565b6003545b604051908152602001610256565b61024a6102a7366004612424565b6106b8565b61028b6102ba366004612460565b60009081526020819052604090206001015490565b61028b7f3c11d16cbaffd01df69ce1c404f6340ee057498f5f00246190ea54220576a84881565b610309610304366004612479565b6106dc565b005b60405160128152602001610256565b4661028b565b61028b610706565b610309610336366004612479565b610715565b61024a6103493660046123fa565b610798565b61028b61035c3660046123fa565b6107ba565b61024a61036f3660046123fa565b610834565b6103096103823660046123fa565b61086a565b610309610395366004612424565b61088a565b6103c66103a83660046124a5565b6001600160a01b039081166000908152600860205260409020541690565b6040516001600160a01b039091168152602001610256565b6103096103ec3660046124a5565b6108b7565b6104046103ff3660046124a5565b6108c4565b60405163ffffffff9091168152602001610256565b61028b6104273660046124a5565b6001600160a01b031660009081526001602052604090205490565b61028b6104503660046124a5565b6108e6565b61028b610463366004612460565b610904565b61024a610476366004612479565b610960565b610267610989565b61028b6104913660046124a5565b610998565b6103096104a43660046123fa565b610a1f565b61028b600081565b61024a6104bf3660046123fa565b610a53565b61024a6104d23660046123fa565b610acc565b6103096104e5366004612563565b610ada565b6103096104f83660046125dc565b610af9565b61030961050b366004612634565b610c2f565b61028b7f9f2df0fed2c77648de5860a4cc508cd0818c85b8b8a1ab4ceeef8d981c8956a681565b610309610545366004612479565b610d93565b61028b61055836600461269e565b610db8565b61030961056b3660046126c8565b610de3565b61058361057e36600461271f565b610df0565b60408051825163ffffffff1681526020928301516001600160e01b03169281019290925201610256565b60006001600160e01b03198216634ec7fbed60e11b14806105de57506001600160e01b03198216637487d9fb60e11b145b806105f957506001600160e01b0319821663e90b74c560e01b145b80610608575061060882610e74565b92915050565b60606004805461061d9061275f565b80601f01602080910402602001604051908101604052809291908181526020018280546106499061275f565b80156106965780601f1061066b57610100808354040283529160200191610696565b820191906000526020600020905b81548152906001019060200180831161067957829003601f168201915b5050505050905090565b6000336106ae818585610ec4565b5060019392505050565b6000336106c6858285610fe7565b6106d185858561105b565b506001949350505050565b6000828152602081905260409020600101546106f78161122b565b6107018383611235565b505050565b60006107106112b9565b905090565b6001600160a01b038116331461078a5760405162461bcd60e51b815260206004820152602f60248201527f416363657373436f6e74726f6c3a2063616e206f6e6c792072656e6f756e636560448201526e103937b632b9903337b91039b2b63360891b60648201526084015b60405180910390fd5b61079482826113e0565b5050565b6000336106ae8185856107ab8383610db8565b6107b591906127aa565b610ec4565b600043821061080b5760405162461bcd60e51b815260206004820152601e60248201527f4b495037566f7465733a20626c6f636b206e6f7420796574206d696e656400006044820152606401610781565b6001600160a01b038316600090815260096020526040902061082d9083611445565b9392505050565b60007f9f2df0fed2c77648de5860a4cc508cd0818c85b8b8a1ab4ceeef8d981c8956a66108608161122b565b6106ae8484611502565b60003390506107018184846040518060200160405280600081525061158b565b33610896848284610fe7565b6108b18484846040518060200160405280600081525061158b565b50505050565b6108c13382611606565b50565b6001600160a01b03811660009081526009602052604081205461060890611680565b6001600160a01b038116600090815260066020526040812054610608565b60004382106109555760405162461bcd60e51b815260206004820152601e60248201527f4b495037566f7465733a20626c6f636b206e6f7420796574206d696e656400006044820152606401610781565b610608600a83611445565b6000918252602082815260408084206001600160a01b0393909316845291905290205460ff1690565b60606005805461061d9061275f565b6001600160a01b0381166000908152600960205260408120548015610a0c576001600160a01b03831660009081526009602052604090206109da6001836127c2565b815481106109ea576109ea6127d9565b60009182526020909120015464010000000090046001600160e01b0316610a0f565b60005b6001600160e01b03169392505050565b7f3c11d16cbaffd01df69ce1c404f6340ee057498f5f00246190ea54220576a848610a498161122b565b61070183836116e9565b60003381610a618286610db8565b905083811015610abf5760405162461bcd60e51b8152602060048201526024808201527f4b4950373a2064656372656173656420616c6c6f77616e63652062656c6f77206044820152637a65726f60e01b6064820152608401610781565b6106d18286868403610ec4565b6000336106ae81858561105b565b33610ae6858285610fe7565b610af28585858561158b565b5050505050565b83421115610b495760405162461bcd60e51b815260206004820152601c60248201527f4b495037566f7465733a207369676e61747572652065787069726564000000006044820152606401610781565b604080517fe48329057bfd03d55e49b547132e39cffd9c1820ad7b9d4c5307691425d15adf60208201526001600160a01b038816918101919091526060810186905260808101859052600090610bc390610bbb9060a00160405160208183030381529060405280519060200120611701565b85858561174f565b9050610bce81611779565b8614610c1c5760405162461bcd60e51b815260206004820152601860248201527f4b495037566f7465733a20696e76616c6964206e6f6e636500000000000000006044820152606401610781565b610c268188611606565b50505050505050565b83421115610c7f5760405162461bcd60e51b815260206004820152601c60248201527f4b4950375065726d69743a206578706972656420646561646c696e65000000006044820152606401610781565b60007f6e71edae12b1b97f4d1f60370fef10105fa2faae0126114a169c64845d6126c9888888610cae8c611779565b6040805160208101969096526001600160a01b0394851690860152929091166060840152608083015260a082015260c0810186905260e0016040516020818303038152906040528051906020012090506000610d0982611701565b90506000610d198287878761174f565b9050896001600160a01b0316816001600160a01b031614610d7c5760405162461bcd60e51b815260206004820152601d60248201527f4b4950375065726d69743a20696e76616c6964207369676e61747572650000006044820152606401610781565b610d878a8a8a610ec4565b50505050505050505050565b600082815260208190526040902060010154610dae8161122b565b61070183836113e0565b6001600160a01b03918216600090815260026020908152604080832093909416825291909152205490565b336108b18185858561158b565b60408051808201909152600080825260208201526001600160a01b0383166000908152600960205260409020805463ffffffff8416908110610e3457610e346127d9565b60009182526020918290206040805180820190915291015463ffffffff8116825264010000000090046001600160e01b0316918101919091529392505050565b60006001600160e01b03198216636578737160e01b1480610ea557506001600160e01b0319821663a219a02560e01b145b8061060857506301ffc9a760e01b6001600160e01b0319831614610608565b6001600160a01b038316610f265760405162461bcd60e51b815260206004820152602360248201527f4b4950373a20617070726f76652066726f6d20746865207a65726f206164647260448201526265737360e81b6064820152608401610781565b6001600160a01b038216610f865760405162461bcd60e51b815260206004820152602160248201527f4b4950373a20617070726f766520746f20746865207a65726f206164647265736044820152607360f81b6064820152608401610781565b6001600160a01b0383811660008181526002602090815260408083209487168084529482529182902085905590518481527f8c5be1e5ebec7d5bd14f71427d1e84f3dd0314c0f7b2291e5b200ac8c7c3b925910160405180910390a3505050565b6000610ff38484610db8565b905060001981146108b1578181101561104e5760405162461bcd60e51b815260206004820152601c60248201527f4b4950373a20696e73756666696369656e7420616c6c6f77616e6365000000006044820152606401610781565b6108b18484848403610ec4565b6001600160a01b0383166110bd5760405162461bcd60e51b8152602060048201526024808201527f4b4950373a207472616e736665722066726f6d20746865207a65726f206164646044820152637265737360e01b6064820152608401610781565b6001600160a01b03821661111e5760405162461bcd60e51b815260206004820152602260248201527f4b4950373a207472616e7366657220746f20746865207a65726f206164647265604482015261737360f01b6064820152608401610781565b6001600160a01b038316600090815260016020526040902054818110156111955760405162461bcd60e51b815260206004820152602560248201527f4b4950373a207472616e7366657220616d6f756e7420657863656564732062616044820152646c616e636560d81b6064820152608401610781565b6001600160a01b038085166000908152600160205260408082208585039055918516815290812080548492906111cc9084906127aa565b92505081905550826001600160a01b0316846001600160a01b03167fddf252ad1be2c89b69c2b068fc378daa952ba7f163c4a11628f55a4df523b3ef8460405161121891815260200190565b60405180910390a36108b18484846117a1565b6108c181336117d3565b61123f8282610960565b610794576000828152602081815260408083206001600160a01b03851684529091529020805460ff191660011790556112753390565b6001600160a01b0316816001600160a01b0316837f2f8788117e7eff1d82e926ec794901d17c78024a50270940304540a733656f0d60405160405180910390a45050565b6000306001600160a01b037f00000000000000000000000000000000000000000000000000000000000000001614801561131257507f000000000000000000000000000000000000000000000000000000000000000046145b1561133c57507f000000000000000000000000000000000000000000000000000000000000000090565b50604080517f00000000000000000000000000000000000000000000000000000000000000006020808301919091527f0000000000000000000000000000000000000000000000000000000000000000828401527f000000000000000000000000000000000000000000000000000000000000000060608301524660808301523060a0808401919091528351808403909101815260c0909201909252805191012090565b6113ea8282610960565b15610794576000828152602081815260408083206001600160a01b0385168085529252808320805460ff1916905551339285917ff6391f5c32d9c69d2a47ea670b442974b53935d1edc7fd64eb21e047a839171b9190a45050565b8154600090815b818110156114a95760006114608284611837565b905084868281548110611475576114756127d9565b60009182526020909120015463ffffffff161115611495578092506114a3565b6114a08160016127aa565b91505b5061144c565b81156114ed57846114bb6001846127c2565b815481106114cb576114cb6127d9565b60009182526020909120015464010000000090046001600160e01b03166114f0565b60005b6001600160e01b031695945050505050565b61150c8282611852565b6003546001600160e01b03101561157d5760405162461bcd60e51b815260206004820152602f60248201527f4b495037566f7465733a20746f74616c20737570706c79207269736b73206f7660448201526e6572666c6f77696e6720766f74657360881b6064820152608401610781565b6108b1600a61193983611945565b61159684848461105b565b6115a284848484611abe565b6108b15760405162461bcd60e51b815260206004820152602f60248201527f4b4950373a207472616e7366657220746f206e6f6e20494b495037526563656960448201526e3b32b91034b6b83632b6b2b73a32b960891b6064820152608401610781565b6001600160a01b03828116600081815260086020818152604080842080546001845282862054949093528787166001600160a01b03198416811790915590519190951694919391928592917f3134e8a2e6d97e929a7e54011ea5485d7d196dd5f0ba4d4ef95803e8e3fc257f9190a46108b1828483611c00565b600063ffffffff8211156116e55760405162461bcd60e51b815260206004820152602660248201527f53616665436173743a2076616c756520646f65736e27742066697420696e203360448201526532206269747360d01b6064820152608401610781565b5090565b6116f38282611d3d565b6108b1600a611e8783611945565b600061060861170e6112b9565b8360405161190160f01b6020820152602281018390526042810182905260009060620160405160208183030381529060405280519060200120905092915050565b600080600061176087878787611e93565b9150915061176d81611f80565b5090505b949350505050565b6001600160a01b03811660009081526006602052604090208054600181018255905b50919050565b6001600160a01b0383811660009081526008602052604080822054858416835291205461070192918216911683611c00565b6117dd8282610960565b610794576117f5816001600160a01b0316601461213b565b61180083602061213b565b6040516020016118119291906127ef565b60408051601f198184030181529082905262461bcd60e51b8252610781916004016123cb565b60006118466002848418612864565b61082d908484166127aa565b6001600160a01b0382166118a85760405162461bcd60e51b815260206004820152601e60248201527f4b4950373a206d696e7420746f20746865207a65726f206164647265737300006044820152606401610781565b80600360008282546118ba91906127aa565b90915550506001600160a01b038216600090815260016020526040812080548392906118e79084906127aa565b90915550506040518181526001600160a01b038316906000907fddf252ad1be2c89b69c2b068fc378daa952ba7f163c4a11628f55a4df523b3ef9060200160405180910390a3610794600083836117a1565b600061082d82846127aa565b825460009081908015611990578561195e6001836127c2565b8154811061196e5761196e6127d9565b60009182526020909120015464010000000090046001600160e01b0316611993565b60005b6001600160e01b031692506119ac83858763ffffffff16565b91506000811180156119ea575043866119c66001846127c2565b815481106119d6576119d66127d9565b60009182526020909120015463ffffffff16145b15611a4a576119f8826122d7565b86611a046001846127c2565b81548110611a1457611a146127d9565b9060005260206000200160000160046101000a8154816001600160e01b0302191690836001600160e01b03160217905550611ab5565b856040518060400160405280611a5f43611680565b63ffffffff168152602001611a73856122d7565b6001600160e01b0390811690915282546001810184556000938452602093849020835194909301519091166401000000000263ffffffff909316929092179101555b50935093915050565b60006001600160a01b0384163b15611bf857604051634e8c461160e11b81526001600160a01b03851690639d188c2290611b02903390899088908890600401612886565b6020604051808303816000875af1925050508015611b3d575060408051601f3d908101601f19168201909252611b3a918101906128c3565b60015b611bde573d808015611b6b576040519150601f19603f3d011682016040523d82523d6000602084013e611b70565b606091505b508051611bd65760405162461bcd60e51b815260206004820152602e60248201527f4b4950373a207472616e7366657220746f206e6f6e204b49503752656365697660448201526d32b91034b6b83632b6b2b73a32b960911b6064820152608401610781565b805181602001fd5b6001600160e01b031916634e8c461160e11b149050611771565b506001611771565b816001600160a01b0316836001600160a01b031614158015611c225750600081115b15610701576001600160a01b03831615611cb0576001600160a01b03831660009081526009602052604081208190611c5d90611e8785611945565b91509150846001600160a01b03167fdec2bacdd2f05b59de34da9b523dff8be42e5e38e818c82fdb0bae774387a7248383604051611ca5929190918252602082015260400190565b60405180910390a250505b6001600160a01b03821615610701576001600160a01b03821660009081526009602052604081208190611ce69061193985611945565b91509150836001600160a01b03167fdec2bacdd2f05b59de34da9b523dff8be42e5e38e818c82fdb0bae774387a7248383604051611d2e929190918252602082015260400190565b60405180910390a25050505050565b6001600160a01b038216611d935760405162461bcd60e51b815260206004820181905260248201527f4b4950373a206275726e2066726f6d20746865207a65726f20616464726573736044820152606401610781565b6001600160a01b03821660009081526001602052604090205481811015611e065760405162461bcd60e51b815260206004820152602160248201527f4b4950373a206275726e20616d6f756e7420657863656564732062616c616e636044820152606560f81b6064820152608401610781565b6001600160a01b0383166000908152600160205260408120838303905560038054849290611e359084906127c2565b90915550506040518281526000906001600160a01b038516907fddf252ad1be2c89b69c2b068fc378daa952ba7f163c4a11628f55a4df523b3ef9060200160405180910390a3610701836000846117a1565b600061082d82846127c2565b6000807f7fffffffffffffffffffffffffffffff5d576e7357a4501ddfe92f46681b20a0831115611eca5750600090506003611f77565b8460ff16601b14158015611ee257508460ff16601c14155b15611ef35750600090506004611f77565b6040805160008082526020820180845289905260ff881692820192909252606081018690526080810185905260019060a0016020604051602081039080840390855afa158015611f47573d6000803e3d6000fd5b5050604051601f1901519150506001600160a01b038116611f7057600060019250925050611f77565b9150600090505b94509492505050565b6000816004811115611f9457611f946128e0565b1415611f9d5750565b6001816004811115611fb157611fb16128e0565b1415611fff5760405162461bcd60e51b815260206004820152601860248201527f45434453413a20696e76616c6964207369676e617475726500000000000000006044820152606401610781565b6002816004811115612013576120136128e0565b14156120615760405162461bcd60e51b815260206004820152601f60248201527f45434453413a20696e76616c6964207369676e6174757265206c656e677468006044820152606401610781565b6003816004811115612075576120756128e0565b14156120ce5760405162461bcd60e51b815260206004820152602260248201527f45434453413a20696e76616c6964207369676e6174757265202773272076616c604482015261756560f01b6064820152608401610781565b60048160048111156120e2576120e26128e0565b14156108c15760405162461bcd60e51b815260206004820152602260248201527f45434453413a20696e76616c6964207369676e6174757265202776272076616c604482015261756560f01b6064820152608401610781565b6060600061214a8360026128f6565b6121559060026127aa565b67ffffffffffffffff81111561216d5761216d6124c0565b6040519080825280601f01601f191660200182016040528015612197576020820181803683370190505b509050600360fc1b816000815181106121b2576121b26127d9565b60200101906001600160f81b031916908160001a905350600f60fb1b816001815181106121e1576121e16127d9565b60200101906001600160f81b031916908160001a90535060006122058460026128f6565b6122109060016127aa565b90505b6001811115612288576f181899199a1a9b1b9c1cb0b131b232b360811b85600f1660108110612244576122446127d9565b1a60f81b82828151811061225a5761225a6127d9565b60200101906001600160f81b031916908160001a90535060049490941c9361228181612915565b9050612213565b50831561082d5760405162461bcd60e51b815260206004820181905260248201527f537472696e67733a20686578206c656e67746820696e73756666696369656e746044820152606401610781565b60006001600160e01b038211156116e55760405162461bcd60e51b815260206004820152602760248201527f53616665436173743a2076616c756520646f65736e27742066697420696e20326044820152663234206269747360c81b6064820152608401610781565b6001600160e01b0319811681146108c157600080fd5b60006020828403121561236857600080fd5b813561082d81612340565b60005b8381101561238e578181015183820152602001612376565b838111156108b15750506000910152565b600081518084526123b7816020860160208601612373565b601f01601f19169290920160200192915050565b60208152600061082d602083018461239f565b80356001600160a01b03811681146123f557600080fd5b919050565b6000806040838503121561240d57600080fd5b612416836123de565b946020939093013593505050565b60008060006060848603121561243957600080fd5b612442846123de565b9250612450602085016123de565b9150604084013590509250925092565b60006020828403121561247257600080fd5b5035919050565b6000806040838503121561248c57600080fd5b8235915061249c602084016123de565b90509250929050565b6000602082840312156124b757600080fd5b61082d826123de565b634e487b7160e01b600052604160045260246000fd5b600082601f8301126124e757600080fd5b813567ffffffffffffffff80821115612502576125026124c0565b604051601f8301601f19908116603f0116810190828211818310171561252a5761252a6124c0565b8160405283815286602085880101111561254357600080fd5b836020870160208301376000602085830101528094505050505092915050565b6000806000806080858703121561257957600080fd5b612582856123de565b9350612590602086016123de565b925060408501359150606085013567ffffffffffffffff8111156125b357600080fd5b6125bf878288016124d6565b91505092959194509250565b803560ff811681146123f557600080fd5b60008060008060008060c087890312156125f557600080fd5b6125fe876123de565b9550602087013594506040870135935061261a606088016125cb565b92506080870135915060a087013590509295509295509295565b600080600080600080600060e0888a03121561264f57600080fd5b612658886123de565b9650612666602089016123de565b95506040880135945060608801359350612682608089016125cb565b925060a0880135915060c0880135905092959891949750929550565b600080604083850312156126b157600080fd5b6126ba836123de565b915061249c602084016123de565b6000806000606084860312156126dd57600080fd5b6126e6846123de565b925060208401359150604084013567ffffffffffffffff81111561270957600080fd5b612715868287016124d6565b9150509250925092565b6000806040838503121561273257600080fd5b61273b836123de565b9150602083013563ffffffff8116811461275457600080fd5b809150509250929050565b600181811c9082168061277357607f821691505b6020821081141561179b57634e487b7160e01b600052602260045260246000fd5b634e487b7160e01b600052601160045260246000fd5b600082198211156127bd576127bd612794565b500190565b6000828210156127d4576127d4612794565b500390565b634e487b7160e01b600052603260045260246000fd5b7f416363657373436f6e74726f6c3a206163636f756e7420000000000000000000815260008351612827816017850160208801612373565b7001034b99036b4b9b9b4b733903937b6329607d1b6017918401918201528351612858816028840160208801612373565b01602801949350505050565b60008261288157634e487b7160e01b600052601260045260246000fd5b500490565b6001600160a01b03858116825284166020820152604081018390526080606082018190526000906128b99083018461239f565b9695505050505050565b6000602082840312156128d557600080fd5b815161082d81612340565b634e487b7160e01b600052602160045260246000fd5b600081600019048311821515161561291057612910612794565b500290565b60008161292457612924612794565b50600019019056fea2646970667358221220fb843a11111c8a15605445cefaf8b30fab0414403a368737901bf197c5a711e164736f6c634300080c0033",
    "sourcePath": "/Users/kang1027/klaytn/klaytn-dex-contracts/contracts/tokens/PlatformToken.sol",
    "compiler": {
        "name": "solc",
        "version": "0.8.12+commit.f00d7308"
    },
    "functionHashes": {
        "BURNER_ROLE()": "282c51f3",
        "DEFAULT_ADMIN_ROLE()": "a217fddf",
        "DOMAIN_SEPARATOR()": "3644e515",
        "MINTER_ROLE()": "d5391393",
        "allowance(address,address)": "dd62ed3e",
        "approve(address,uint256)": "095ea7b3",
        "balanceOf(address)": "70a08231",
        "burn(address,uint256)": "9dc29fac",
        "checkpoints(address,uint32)": "f1127ed8",
        "decimals()": "313ce567",
        "decreaseAllowance(address,uint256)": "a457c2d7",
        "delegate(address)": "5c19a95c",
        "delegateBySig(address,uint256,uint256,uint8,bytes32,bytes32)": "c3cda520",
        "delegates(address)": "587cde1e",
        "getChainId()": "3408e470",
        "getPastTotalSupply(uint256)": "8e539e8c",
        "getPastVotes(address,uint256)": "3a46b1a8",
        "getRoleAdmin(bytes32)": "248a9ca3",
        "getVotes(address)": "9ab24eb0",
        "grantRole(bytes32,address)": "2f2ff15d",
        "hasRole(bytes32,address)": "91d14854",
        "increaseAllowance(address,uint256)": "39509351",
        "mint(address,uint256)": "40c10f19",
        "name()": "06fdde03",
        "nonces(address)": "7ecebe00",
        "numCheckpoints(address)": "6fcfff45",
        "permit(address,address,uint256,uint256,uint8,bytes32,bytes32)": "d505accf",
        "renounceRole(bytes32,address)": "36568abe",
        "revokeRole(bytes32,address)": "d547741f",
        "safeTransfer(address,uint256)": "423f6cef",
        "safeTransfer(address,uint256,bytes)": "eb795549",
        "safeTransferFrom(address,address,uint256)": "42842e0e",
        "safeTransferFrom(address,address,uint256,bytes)": "b88d4fde",
        "supportsInterface(bytes4)": "01ffc9a7",
        "symbol()": "95d89b41",
        "totalSupply()": "18160ddd",
        "transfer(address,uint256)": "a9059cbb",
        "transferFrom(address,address,uint256)": "23b872dd"
    },
    "gasEstimates": {
        "creation": {
            "codeDepositCost": "2118800",
            "executionCost": "infinite",
            "totalCost": "infinite"
        },
        "external": {
            "BURNER_ROLE()": "285",
            "DEFAULT_ADMIN_ROLE()": "328",
            "DOMAIN_SEPARATOR()": "infinite",
            "MINTER_ROLE()": "239",
            "allowance(address,address)": "infinite",
            "approve(address,uint256)": "24681",
            "balanceOf(address)": "2605",
            "burn(address,uint256)": "infinite",
            "checkpoints(address,uint32)": "5175",
            "decimals()": "311",
            "decreaseAllowance(address,uint256)": "26984",
            "delegate(address)": "infinite",
            "delegateBySig(address,uint256,uint256,uint8,bytes32,bytes32)": "infinite",
            "delegates(address)": "2678",
            "getChainId()": "237",
            "getPastTotalSupply(uint256)": "infinite",
            "getPastVotes(address,uint256)": "7257",
            "getRoleAdmin(bytes32)": "2515",
            "getVotes(address)": "7168",
            "grantRole(bytes32,address)": "infinite",
            "hasRole(bytes32,address)": "2696",
            "increaseAllowance(address,uint256)": "27079",
            "mint(address,uint256)": "infinite",
            "name()": "infinite",
            "nonces(address)": "2661",
            "numCheckpoints(address)": "2716",
            "permit(address,address,uint256,uint256,uint8,bytes32,bytes32)": "infinite",
            "renounceRole(bytes32,address)": "29085",
            "revokeRole(bytes32,address)": "infinite",
            "safeTransfer(address,uint256)": "infinite",
            "safeTransfer(address,uint256,bytes)": "infinite",
            "safeTransferFrom(address,address,uint256)": "infinite",
            "safeTransferFrom(address,address,uint256,bytes)": "infinite",
            "supportsInterface(bytes4)": "infinite",
            "symbol()": "infinite",
            "totalSupply()": "2394",
            "transfer(address,uint256)": "infinite",
            "transferFrom(address,address,uint256)": "infinite"
        }
    }
}