{
    "contractName": "Multicall",
    "abi": [
        {
            "inputs": [
                {
                    "components": [
                        {
                            "internalType": "address",
                            "name": "target",
                            "type": "address"
                        },
                        {
                            "internalType": "bytes",
                            "name": "callData",
                            "type": "bytes"
                        }
                    ],
                    "internalType": "struct Multicall.Call[]",
                    "name": "calls",
                    "type": "tuple[]"
                }
            ],
            "name": "aggregate",
            "outputs": [
                {
                    "internalType": "uint256",
                    "name": "blockNumber",
                    "type": "uint256"
                },
                {
                    "internalType": "bytes[]",
                    "name": "returnData",
                    "type": "bytes[]"
                }
            ],
            "stateMutability": "nonpayable",
            "type": "function"
        },
        {
            "inputs": [
                {
                    "components": [
                        {
                            "internalType": "address",
                            "name": "target",
                            "type": "address"
                        },
                        {
                            "internalType": "bytes",
                            "name": "callData",
                            "type": "bytes"
                        }
                    ],
                    "internalType": "struct Multicall.Call[]",
                    "name": "calls",
                    "type": "tuple[]"
                }
            ],
            "name": "blockAndAggregate",
            "outputs": [
                {
                    "internalType": "uint256",
                    "name": "blockNumber",
                    "type": "uint256"
                },
                {
                    "internalType": "bytes32",
                    "name": "blockHash",
                    "type": "bytes32"
                },
                {
                    "components": [
                        {
                            "internalType": "bool",
                            "name": "success",
                            "type": "bool"
                        },
                        {
                            "internalType": "bytes",
                            "name": "returnData",
                            "type": "bytes"
                        }
                    ],
                    "internalType": "struct Multicall.Result[]",
                    "name": "returnData",
                    "type": "tuple[]"
                }
            ],
            "stateMutability": "nonpayable",
            "type": "function"
        },
        {
            "inputs": [
                {
                    "internalType": "uint256",
                    "name": "blockNumber",
                    "type": "uint256"
                }
            ],
            "name": "getBlockHash",
            "outputs": [
                {
                    "internalType": "bytes32",
                    "name": "blockHash",
                    "type": "bytes32"
                }
            ],
            "stateMutability": "view",
            "type": "function"
        },
        {
            "inputs": [],
            "name": "getBlockNumber",
            "outputs": [
                {
                    "internalType": "uint256",
                    "name": "blockNumber",
                    "type": "uint256"
                }
            ],
            "stateMutability": "view",
            "type": "function"
        },
        {
            "inputs": [],
            "name": "getCurrentBlockCoinbase",
            "outputs": [
                {
                    "internalType": "address",
                    "name": "coinbase",
                    "type": "address"
                }
            ],
            "stateMutability": "view",
            "type": "function"
        },
        {
            "inputs": [],
            "name": "getCurrentBlockDifficulty",
            "outputs": [
                {
                    "internalType": "uint256",
                    "name": "difficulty",
                    "type": "uint256"
                }
            ],
            "stateMutability": "view",
            "type": "function"
        },
        {
            "inputs": [],
            "name": "getCurrentBlockGasLimit",
            "outputs": [
                {
                    "internalType": "uint256",
                    "name": "gaslimit",
                    "type": "uint256"
                }
            ],
            "stateMutability": "view",
            "type": "function"
        },
        {
            "inputs": [],
            "name": "getCurrentBlockTimestamp",
            "outputs": [
                {
                    "internalType": "uint256",
                    "name": "timestamp",
                    "type": "uint256"
                }
            ],
            "stateMutability": "view",
            "type": "function"
        },
        {
            "inputs": [
                {
                    "internalType": "address",
                    "name": "addr",
                    "type": "address"
                }
            ],
            "name": "getKlayBalance",
            "outputs": [
                {
                    "internalType": "uint256",
                    "name": "balance",
                    "type": "uint256"
                }
            ],
            "stateMutability": "view",
            "type": "function"
        },
        {
            "inputs": [],
            "name": "getLastBlockHash",
            "outputs": [
                {
                    "internalType": "bytes32",
                    "name": "blockHash",
                    "type": "bytes32"
                }
            ],
            "stateMutability": "view",
            "type": "function"
        },
        {
            "inputs": [
                {
                    "internalType": "bool",
                    "name": "requireSuccess",
                    "type": "bool"
                },
                {
                    "components": [
                        {
                            "internalType": "address",
                            "name": "target",
                            "type": "address"
                        },
                        {
                            "internalType": "bytes",
                            "name": "callData",
                            "type": "bytes"
                        }
                    ],
                    "internalType": "struct Multicall.Call[]",
                    "name": "calls",
                    "type": "tuple[]"
                }
            ],
            "name": "tryAggregate",
            "outputs": [
                {
                    "components": [
                        {
                            "internalType": "bool",
                            "name": "success",
                            "type": "bool"
                        },
                        {
                            "internalType": "bytes",
                            "name": "returnData",
                            "type": "bytes"
                        }
                    ],
                    "internalType": "struct Multicall.Result[]",
                    "name": "returnData",
                    "type": "tuple[]"
                }
            ],
            "stateMutability": "nonpayable",
            "type": "function"
        },
        {
            "inputs": [
                {
                    "internalType": "bool",
                    "name": "requireSuccess",
                    "type": "bool"
                },
                {
                    "components": [
                        {
                            "internalType": "address",
                            "name": "target",
                            "type": "address"
                        },
                        {
                            "internalType": "bytes",
                            "name": "callData",
                            "type": "bytes"
                        }
                    ],
                    "internalType": "struct Multicall.Call[]",
                    "name": "calls",
                    "type": "tuple[]"
                }
            ],
            "name": "tryBlockAndAggregate",
            "outputs": [
                {
                    "internalType": "uint256",
                    "name": "blockNumber",
                    "type": "uint256"
                },
                {
                    "internalType": "bytes32",
                    "name": "blockHash",
                    "type": "bytes32"
                },
                {
                    "components": [
                        {
                            "internalType": "bool",
                            "name": "success",
                            "type": "bool"
                        },
                        {
                            "internalType": "bytes",
                            "name": "returnData",
                            "type": "bytes"
                        }
                    ],
                    "internalType": "struct Multicall.Result[]",
                    "name": "returnData",
                    "type": "tuple[]"
                }
            ],
            "stateMutability": "nonpayable",
            "type": "function"
        }
    ],
    "bytecode": "608060405234801561001057600080fd5b506109cc806100206000396000f3fe608060405234801561001057600080fd5b50600436106100b45760003560e01c806372425d9d1161007157806372425d9d1461013a57806386d516e814610140578063a8b0574e14610146578063bce38bd714610154578063c3077fa914610174578063ee82ac5e1461018757600080fd5b80630f28c97d146100b957806312696fc8146100ce578063252dba42146100e957806327e86d6e1461010a578063399542e91461011257806342cbb15c14610134575b600080fd5b425b6040519081526020015b60405180910390f35b6100bb6100dc366004610538565b6001600160a01b03163190565b6100fc6100f7366004610705565b610199565b6040516100c592919061079e565b6100bb610322565b610125610120366004610808565b610335565b6040516100c5939291906108c8565b436100bb565b446100bb565b456100bb565b6040514181526020016100c5565b610167610162366004610808565b61034d565b6040516100c591906108f0565b610125610182366004610705565b6104ff565b6100bb610195366004610903565b4090565b805143906060908067ffffffffffffffff8111156101b9576101b961055a565b6040519080825280602002602001820160405280156101ec57816020015b60608152602001906001900390816101d75790505b50915060005b8181101561031b5760008086838151811061020f5761020f61091c565b6020026020010151600001516001600160a01b03168784815181106102365761023661091c565b60200260200101516020015160405161024f9190610932565b6000604051808303816000865af19150503d806000811461028c576040519150601f19603f3d011682016040523d82523d6000602084013e610291565b606091505b5091509150816102e85760405162461bcd60e51b815260206004820181905260248201527f4d756c746963616c6c206167677265676174653a2063616c6c206661696c656460448201526064015b60405180910390fd5b808584815181106102fb576102fb61091c565b60200260200101819052505050808061031390610964565b9150506101f2565b5050915091565b600061032f60014361097f565b40905090565b4380406060610344858561034d565b90509250925092565b80516060908067ffffffffffffffff81111561036b5761036b61055a565b6040519080825280602002602001820160405280156103b157816020015b6040805180820190915260008152606060208201528152602001906001900390816103895790505b50915060005b818110156104f7576000808583815181106103d4576103d461091c565b6020026020010151600001516001600160a01b03168684815181106103fb576103fb61091c565b6020026020010151602001516040516104149190610932565b6000604051808303816000865af19150503d8060008114610451576040519150601f19603f3d011682016040523d82523d6000602084013e610456565b606091505b509150915086156104ae57816104ae5760405162461bcd60e51b815260206004820181905260248201527f4d756c746963616c6c206167677265676174653a2063616c6c206661696c656460448201526064016102df565b60405180604001604052808315158152602001828152508584815181106104d7576104d761091c565b6020026020010181905250505080806104ef90610964565b9150506103b7565b505092915050565b600080606061050f600185610335565b9196909550909350915050565b80356001600160a01b038116811461053357600080fd5b919050565b60006020828403121561054a57600080fd5b6105538261051c565b9392505050565b634e487b7160e01b600052604160045260246000fd5b6040805190810167ffffffffffffffff811182821017156105935761059361055a565b60405290565b604051601f8201601f1916810167ffffffffffffffff811182821017156105c2576105c261055a565b604052919050565b6000601f83818401126105dc57600080fd5b8235602067ffffffffffffffff808311156105f9576105f961055a565b8260051b610608838201610599565b938452868101830193838101908986111561062257600080fd5b84890192505b858310156106f8578235848111156106405760008081fd5b89016040601f19828d0381018213156106595760008081fd5b610661610570565b61066c89850161051c565b815282840135888111156106805760008081fd5b8085019450508d603f8501126106965760008081fd5b88840135888111156106aa576106aa61055a565b6106b98a848e84011601610599565b92508083528e848287010111156106d05760008081fd5b808486018b85013760009083018a015280890191909152845250509184019190840190610628565b9998505050505050505050565b60006020828403121561071757600080fd5b813567ffffffffffffffff81111561072e57600080fd5b61073a848285016105ca565b949350505050565b60005b8381101561075d578181015183820152602001610745565b8381111561076c576000848401525b50505050565b6000815180845261078a816020860160208601610742565b601f01601f19169290920160200192915050565b600060408201848352602060408185015281855180845260608601915060608160051b870101935082870160005b828110156107fa57605f198887030184526107e8868351610772565b955092840192908401906001016107cc565b509398975050505050505050565b6000806040838503121561081b57600080fd5b8235801515811461082b57600080fd5b9150602083013567ffffffffffffffff81111561084757600080fd5b610853858286016105ca565b9150509250929050565b600081518084526020808501808196508360051b8101915082860160005b858110156108bb578284038952815180511515855285015160408686018190526108a781870183610772565b9a87019a955050509084019060010161087b565b5091979650505050505050565b8381528260208201526060604082015260006108e7606083018461085d565b95945050505050565b602081526000610553602083018461085d565b60006020828403121561091557600080fd5b5035919050565b634e487b7160e01b600052603260045260246000fd5b60008251610944818460208701610742565b9190910192915050565b634e487b7160e01b600052601160045260246000fd5b60006000198214156109785761097861094e565b5060010190565b6000828210156109915761099161094e565b50039056fea2646970667358221220c4b9533ca2218d3c2441782e70262cfbb6971dc153dc3d9a87f9749a6361e27064736f6c634300080c0033",
    "sourcePath": "/Users/kang1027/klaytn/klaytn-dex-contracts/contracts/utils/MultiCall.sol",
    "compiler": {
        "name": "solc",
        "version": "0.8.12+commit.f00d7308"
    },
    "functionHashes": {
        "aggregate((address,bytes)[])": "252dba42",
        "blockAndAggregate((address,bytes)[])": "c3077fa9",
        "getBlockHash(uint256)": "ee82ac5e",
        "getBlockNumber()": "42cbb15c",
        "getCurrentBlockCoinbase()": "a8b0574e",
        "getCurrentBlockDifficulty()": "72425d9d",
        "getCurrentBlockGasLimit()": "86d516e8",
        "getCurrentBlockTimestamp()": "0f28c97d",
        "getKlayBalance(address)": "12696fc8",
        "getLastBlockHash()": "27e86d6e",
        "tryAggregate(bool,(address,bytes)[])": "bce38bd7",
        "tryBlockAndAggregate(bool,(address,bytes)[])": "399542e9"
    },
    "gasEstimates": {
        "creation": {
            "codeDepositCost": "501600",
            "executionCost": "537",
            "totalCost": "502137"
        },
        "external": {
            "aggregate((address,bytes)[])": "infinite",
            "blockAndAggregate((address,bytes)[])": "infinite",
            "getBlockHash(uint256)": "388",
            "getBlockNumber()": "291",
            "getCurrentBlockCoinbase()": "220",
            "getCurrentBlockDifficulty()": "180",
            "getCurrentBlockGasLimit()": "202",
            "getCurrentBlockTimestamp()": "170",
            "getKlayBalance(address)": "2980",
            "getLastBlockHash()": "354",
            "tryAggregate(bool,(address,bytes)[])": "infinite",
            "tryBlockAndAggregate(bool,(address,bytes)[])": "infinite"
        }
    }
}