{
    "contractName": "Farming",
    "abi": [
        {
            "inputs": [
                {
                    "internalType": "address",
                    "name": "_ptn",
                    "type": "address"
                },
                {
                    "internalType": "uint256",
                    "name": "_ptnPerBlock",
                    "type": "uint256"
                },
                {
                    "internalType": "uint256",
                    "name": "_startBlock",
                    "type": "uint256"
                },
                {
                    "internalType": "address",
                    "name": "_multisig",
                    "type": "address"
                }
            ],
            "stateMutability": "nonpayable",
            "type": "constructor"
        },
        {
            "anonymous": false,
            "inputs": [
                {
                    "indexed": true,
                    "internalType": "uint256",
                    "name": "pid",
                    "type": "uint256"
                },
                {
                    "indexed": false,
                    "internalType": "uint256",
                    "name": "allocPoint",
                    "type": "uint256"
                },
                {
                    "indexed": true,
                    "internalType": "address",
                    "name": "token",
                    "type": "address"
                },
                {
                    "indexed": false,
                    "internalType": "uint256",
                    "name": "bonusMultiplier",
                    "type": "uint256"
                },
                {
                    "indexed": false,
                    "internalType": "uint256",
                    "name": "bonusEndBlock",
                    "type": "uint256"
                }
            ],
            "name": "AddPool",
            "type": "event"
        },
        {
            "anonymous": false,
            "inputs": [
                {
                    "indexed": true,
                    "internalType": "address",
                    "name": "user",
                    "type": "address"
                },
                {
                    "indexed": true,
                    "internalType": "uint256",
                    "name": "pid",
                    "type": "uint256"
                },
                {
                    "indexed": false,
                    "internalType": "uint256",
                    "name": "amount",
                    "type": "uint256"
                }
            ],
            "name": "Deposit",
            "type": "event"
        },
        {
            "anonymous": false,
            "inputs": [
                {
                    "indexed": true,
                    "internalType": "address",
                    "name": "user",
                    "type": "address"
                },
                {
                    "indexed": true,
                    "internalType": "uint256",
                    "name": "pid",
                    "type": "uint256"
                },
                {
                    "indexed": false,
                    "internalType": "uint256",
                    "name": "amount",
                    "type": "uint256"
                }
            ],
            "name": "EmergencyWithdraw",
            "type": "event"
        },
        {
            "anonymous": false,
            "inputs": [
                {
                    "indexed": true,
                    "internalType": "address",
                    "name": "previousOwner",
                    "type": "address"
                },
                {
                    "indexed": true,
                    "internalType": "address",
                    "name": "newOwner",
                    "type": "address"
                }
            ],
            "name": "OwnershipTransferred",
            "type": "event"
        },
        {
            "anonymous": false,
            "inputs": [
                {
                    "indexed": true,
                    "internalType": "uint256",
                    "name": "pid",
                    "type": "uint256"
                },
                {
                    "indexed": false,
                    "internalType": "uint256",
                    "name": "allocPoint",
                    "type": "uint256"
                }
            ],
            "name": "SetPool",
            "type": "event"
        },
        {
            "anonymous": false,
            "inputs": [
                {
                    "indexed": true,
                    "internalType": "uint256",
                    "name": "pid",
                    "type": "uint256"
                },
                {
                    "indexed": false,
                    "internalType": "uint256",
                    "name": "lastRewardBlock",
                    "type": "uint256"
                },
                {
                    "indexed": false,
                    "internalType": "uint256",
                    "name": "lpSupply",
                    "type": "uint256"
                },
                {
                    "indexed": false,
                    "internalType": "uint256",
                    "name": "accPtnPerShare",
                    "type": "uint256"
                }
            ],
            "name": "UpdatePool",
            "type": "event"
        },
        {
            "anonymous": false,
            "inputs": [
                {
                    "indexed": true,
                    "internalType": "uint256",
                    "name": "pid",
                    "type": "uint256"
                },
                {
                    "indexed": false,
                    "internalType": "uint256",
                    "name": "multiplier",
                    "type": "uint256"
                }
            ],
            "name": "UpdatePoolMultiplier",
            "type": "event"
        },
        {
            "anonymous": false,
            "inputs": [
                {
                    "indexed": false,
                    "internalType": "uint256",
                    "name": "rewardPerBlock",
                    "type": "uint256"
                }
            ],
            "name": "UpdateRewardPerBlock",
            "type": "event"
        },
        {
            "anonymous": false,
            "inputs": [
                {
                    "indexed": true,
                    "internalType": "address",
                    "name": "user",
                    "type": "address"
                },
                {
                    "indexed": true,
                    "internalType": "uint256",
                    "name": "pid",
                    "type": "uint256"
                },
                {
                    "indexed": false,
                    "internalType": "uint256",
                    "name": "amount",
                    "type": "uint256"
                }
            ],
            "name": "Withdraw",
            "type": "event"
        },
        {
            "inputs": [
                {
                    "internalType": "uint256",
                    "name": "_allocPoint",
                    "type": "uint256"
                },
                {
                    "internalType": "address",
                    "name": "_lpToken",
                    "type": "address"
                },
                {
                    "internalType": "uint256",
                    "name": "_bonusMultiplier",
                    "type": "uint256"
                },
                {
                    "internalType": "uint256",
                    "name": "_bonusEndBlock",
                    "type": "uint256"
                }
            ],
            "name": "add",
            "outputs": [],
            "stateMutability": "nonpayable",
            "type": "function"
        },
        {
            "inputs": [
                {
                    "internalType": "address",
                    "name": "",
                    "type": "address"
                }
            ],
            "name": "addedTokens",
            "outputs": [
                {
                    "internalType": "bool",
                    "name": "",
                    "type": "bool"
                }
            ],
            "stateMutability": "view",
            "type": "function"
        },
        {
            "inputs": [
                {
                    "internalType": "uint256",
                    "name": "_pid",
                    "type": "uint256"
                },
                {
                    "internalType": "uint256",
                    "name": "_amount",
                    "type": "uint256"
                }
            ],
            "name": "deposit",
            "outputs": [],
            "stateMutability": "nonpayable",
            "type": "function"
        },
        {
            "inputs": [
                {
                    "internalType": "uint256",
                    "name": "_pid",
                    "type": "uint256"
                }
            ],
            "name": "emergencyWithdraw",
            "outputs": [],
            "stateMutability": "nonpayable",
            "type": "function"
        },
        {
            "inputs": [
                {
                    "internalType": "uint256",
                    "name": "_pid",
                    "type": "uint256"
                },
                {
                    "internalType": "uint256",
                    "name": "_from",
                    "type": "uint256"
                },
                {
                    "internalType": "uint256",
                    "name": "_to",
                    "type": "uint256"
                }
            ],
            "name": "getMultiplier",
            "outputs": [
                {
                    "internalType": "uint256",
                    "name": "",
                    "type": "uint256"
                }
            ],
            "stateMutability": "view",
            "type": "function"
        },
        {
            "inputs": [],
            "name": "massUpdatePools",
            "outputs": [],
            "stateMutability": "nonpayable",
            "type": "function"
        },
        {
            "inputs": [],
            "name": "owner",
            "outputs": [
                {
                    "internalType": "address",
                    "name": "",
                    "type": "address"
                }
            ],
            "stateMutability": "view",
            "type": "function"
        },
        {
            "inputs": [
                {
                    "internalType": "uint256",
                    "name": "_pid",
                    "type": "uint256"
                },
                {
                    "internalType": "address",
                    "name": "_user",
                    "type": "address"
                }
            ],
            "name": "pendingPtn",
            "outputs": [
                {
                    "internalType": "uint256",
                    "name": "",
                    "type": "uint256"
                }
            ],
            "stateMutability": "view",
            "type": "function"
        },
        {
            "inputs": [
                {
                    "internalType": "uint256",
                    "name": "",
                    "type": "uint256"
                }
            ],
            "name": "poolInfo",
            "outputs": [
                {
                    "internalType": "address",
                    "name": "lpToken",
                    "type": "address"
                },
                {
                    "internalType": "uint32",
                    "name": "bonusMultiplier",
                    "type": "uint32"
                },
                {
                    "internalType": "uint64",
                    "name": "bonusEndBlock",
                    "type": "uint64"
                },
                {
                    "internalType": "uint256",
                    "name": "totalStaked",
                    "type": "uint256"
                },
                {
                    "internalType": "uint64",
                    "name": "allocPoint",
                    "type": "uint64"
                },
                {
                    "internalType": "uint64",
                    "name": "lastRewardBlock",
                    "type": "uint64"
                },
                {
                    "internalType": "uint128",
                    "name": "accPtnPerShare",
                    "type": "uint128"
                }
            ],
            "stateMutability": "view",
            "type": "function"
        },
        {
            "inputs": [],
            "name": "poolLength",
            "outputs": [
                {
                    "internalType": "uint256",
                    "name": "",
                    "type": "uint256"
                }
            ],
            "stateMutability": "view",
            "type": "function"
        },
        {
            "inputs": [],
            "name": "ptn",
            "outputs": [
                {
                    "internalType": "contract IPlatformToken",
                    "name": "",
                    "type": "address"
                }
            ],
            "stateMutability": "view",
            "type": "function"
        },
        {
            "inputs": [],
            "name": "ptnPerBlock",
            "outputs": [
                {
                    "internalType": "uint256",
                    "name": "",
                    "type": "uint256"
                }
            ],
            "stateMutability": "view",
            "type": "function"
        },
        {
            "inputs": [],
            "name": "renounceOwnership",
            "outputs": [],
            "stateMutability": "nonpayable",
            "type": "function"
        },
        {
            "inputs": [
                {
                    "internalType": "uint256",
                    "name": "_pid",
                    "type": "uint256"
                },
                {
                    "internalType": "uint256",
                    "name": "_allocPoint",
                    "type": "uint256"
                }
            ],
            "name": "set",
            "outputs": [],
            "stateMutability": "nonpayable",
            "type": "function"
        },
        {
            "inputs": [],
            "name": "startBlock",
            "outputs": [
                {
                    "internalType": "uint256",
                    "name": "",
                    "type": "uint256"
                }
            ],
            "stateMutability": "view",
            "type": "function"
        },
        {
            "inputs": [],
            "name": "totalAllocPoint",
            "outputs": [
                {
                    "internalType": "uint256",
                    "name": "",
                    "type": "uint256"
                }
            ],
            "stateMutability": "view",
            "type": "function"
        },
        {
            "inputs": [
                {
                    "internalType": "address",
                    "name": "newOwner",
                    "type": "address"
                }
            ],
            "name": "transferOwnership",
            "outputs": [],
            "stateMutability": "nonpayable",
            "type": "function"
        },
        {
            "inputs": [
                {
                    "internalType": "uint256",
                    "name": "_pid",
                    "type": "uint256"
                },
                {
                    "internalType": "uint256",
                    "name": "_multiplier",
                    "type": "uint256"
                }
            ],
            "name": "updateMultiplier",
            "outputs": [],
            "stateMutability": "nonpayable",
            "type": "function"
        },
        {
            "inputs": [
                {
                    "internalType": "uint256",
                    "name": "_pid",
                    "type": "uint256"
                }
            ],
            "name": "updatePool",
            "outputs": [],
            "stateMutability": "nonpayable",
            "type": "function"
        },
        {
            "inputs": [
                {
                    "internalType": "uint256",
                    "name": "_ptnPerBlock",
                    "type": "uint256"
                }
            ],
            "name": "updatePtnPerBlock",
            "outputs": [],
            "stateMutability": "nonpayable",
            "type": "function"
        },
        {
            "inputs": [
                {
                    "internalType": "uint256",
                    "name": "",
                    "type": "uint256"
                },
                {
                    "internalType": "address",
                    "name": "",
                    "type": "address"
                }
            ],
            "name": "userInfo",
            "outputs": [
                {
                    "internalType": "uint256",
                    "name": "amount",
                    "type": "uint256"
                },
                {
                    "internalType": "uint256",
                    "name": "rewardDebt",
                    "type": "uint256"
                }
            ],
            "stateMutability": "view",
            "type": "function"
        },
        {
            "inputs": [
                {
                    "internalType": "uint256",
                    "name": "_pid",
                    "type": "uint256"
                },
                {
                    "internalType": "uint256",
                    "name": "_amount",
                    "type": "uint256"
                }
            ],
            "name": "withdraw",
            "outputs": [],
            "stateMutability": "nonpayable",
            "type": "function"
        }
    ],
    "bytecode": "60806040523480156200001157600080fd5b5060405162001e0c38038062001e0c8339810160408190526200003491620001aa565b6200003f336200013d565b600180556001600160a01b0384166200009f5760405162461bcd60e51b815260206004820152601e60248201527f50544e2063616e6e6f7420626520746865207a65726f2061646472657373000060448201526064015b60405180910390fd5b6001600160a01b038116620001035760405162461bcd60e51b815260206004820152602360248201527f4d756c74697369672063616e6e6f7420626520746865207a65726f206164647260448201526265737360e81b606482015260840162000096565b600280546001600160a01b0319166001600160a01b0386161790556003839055600882905562000133816200013d565b50505050620001f5565b600080546001600160a01b038381166001600160a01b0319831681178455604051919092169283917f8be0079c531659141344cd1fd0a4f28419497f9722a3daafe3b4186f6b6457e09190a35050565b80516001600160a01b0381168114620001a557600080fd5b919050565b60008060008060808587031215620001c157600080fd5b620001cc856200018d565b93506020850151925060408501519150620001ea606086016200018d565b905092959194509250565b611c0780620002056000396000f3fe608060405234801561001057600080fd5b50600436106101425760003560e01c806379d12ffb116100b857806393f1a40b1161007c57806393f1a40b146102e4578063af359b251461032b578063b4fdeaba1461033e578063bad60f1814610347578063e2bbb1581461035a578063f2fde38b1461036d57600080fd5b806379d12ffb1461024f5780637bafb0291461028257806388a399f3146102955780638a0c89d2146102c05780638da5cb5b146102d357600080fd5b806348cd4cb11161010a57806348cd4cb1146101fd57806348d957e41461020657806351eb05a6146102195780635312ea8e1461022c578063630b5ba11461023f578063715018a61461024757600080fd5b8063081e3eda146101475780631526fe271461015e57806317caf6f1146101cc5780631ab06ee5146101d5578063441a3e70146101ea575b600080fd5b6004545b6040519081526020015b60405180910390f35b61017161016c3660046118cf565b610380565b604080516001600160a01b03909816885263ffffffff90961660208801526001600160401b03948516958701959095526060860192909252821660808501521660a08301526001600160801b031660c082015260e001610155565b61014b60075481565b6101e86101e33660046118e8565b6103fc565b005b6101e86101f83660046118e8565b61058d565b61014b60085481565b6101e86102143660046118cf565b610790565b6101e86102273660046118cf565b6107fd565b6101e861023a3660046118cf565b610a25565b6101e8610b2d565b6101e8610b54565b61027261025d366004611926565b60056020526000908152604090205460ff1681565b6040519015158152602001610155565b61014b610290366004611941565b610b8a565b6002546102a8906001600160a01b031681565b6040516001600160a01b039091168152602001610155565b6101e86102ce36600461196d565b610d29565b6000546001600160a01b03166102a8565b6103166102f23660046119a8565b60066020908152600092835260408084209091529082529020805460019091015482565b60408051928352602083019190915201610155565b61014b6103393660046119a8565b611002565b61014b60035481565b6101e86103553660046118e8565b61116e565b6101e86103683660046118e8565b61124b565b6101e861037b366004611926565b611403565b6004818154811061039057600080fd5b60009182526020909120600390910201805460018201546002909201546001600160a01b0382169350600160a01b820463ffffffff1692600160c01b9092046001600160401b03908116929181811691600160401b82041690600160801b90046001600160801b031687565b6000546001600160a01b0316331461042f5760405162461bcd60e51b8152600401610426906119d4565b60405180910390fd5b60045482106104505760405162461bcd60e51b815260040161042690611a09565b610458610b2d565b60006004838154811061046d5761046d611a36565b60009182526020909120600260039092020101546001600160401b0316905081811461054e5761049c8261149e565b600484815481106104af576104af611a36565b906000526020600020906003020160020160006101000a8154816001600160401b0302191690836001600160401b0316021790555081816007546104f39190611a62565b6104fd9190611a79565b600781905561054e5760405162461bcd60e51b815260206004820152601860248201527f53686f756c64206265206d6f7265207468616e207a65726f00000000000000006044820152606401610426565b827fc0cfd54d2de2b55f1e6e108d3ec53ff0a1abe6055401d32c61e9433b747ef9f88360405161058091815260200190565b60405180910390a2505050565b600260015414156105b05760405162461bcd60e51b815260040161042690611a91565b600260015560045482106105d65760405162461bcd60e51b815260040161042690611a09565b6000600483815481106105eb576105eb611a36565b6000918252602080832086845260068252604080852033865290925292208054600390920290920192508311156106595760405162461bcd60e51b81526020600482015260126024820152711dda5d1a191c985dce881b9bdd0819dbdbd960721b6044820152606401610426565b610662846107fd565b6001810154600283015482546000929164e8d4a510009161069391600160801b90046001600160801b031690611ac8565b61069d9190611ae7565b6106a79190611a62565b905080156106c6576002546106c6906001600160a01b0316338361150a565b831561071657838260000160008282546106e09190611a62565b92505081905550838360010160008282546106fb9190611a62565b90915550508254610716906001600160a01b0316338661150a565b6002830154825464e8d4a510009161073f91600160801b9091046001600160801b031690611ac8565b6107499190611ae7565b6001830155604051848152859033907ff279e6a1f5e320cca91135676d9cb6e44ca8a08c0b88342bcdb1144f6511b5689060200160405180910390a3505060018055505050565b6000546001600160a01b031633146107ba5760405162461bcd60e51b8152600401610426906119d4565b6107c2610b2d565b60038190556040518181527fc606f355efeddd89e42e997e575220501445590def6dd71bf081c2c51d6c0a4d9060200160405180910390a150565b60006004828154811061081257610812611a36565b906000526020600020906003020190508060020160089054906101000a90046001600160401b03166001600160401b0316431115610a21576001810154801561098e576002820154600090610879908590600160401b90046001600160401b031643610b8a565b60075460028501546003549293506000926001600160401b03909116906108a09085611ac8565b6108aa9190611ac8565b6108b49190611ae7565b6002546040516340c10f1960e01b8152306004820152602481018390529192506001600160a01b0316906340c10f19906044016020604051808303816000875af1158015610906573d6000803e3d6000fd5b505050506040513d601f19601f8201168201806040525081019061092a9190611b09565b5061094d8361093e64e8d4a5100084611ac8565b6109489190611ae7565b611655565b600285015461096c9190600160801b90046001600160801b0316611b2b565b6002850180546001600160801b03928316600160801b02921691909117905550505b6109974361149e565b6002830180546fffffffffffffffff00000000000000001916600160401b6001600160401b039384168102919091179182905560408051918304909316815260208101849052600160801b9091046001600160801b03169181019190915283907f3be3541fc42237d611b30329040bfa4569541d156560acdbbae57640d20b8f4690606001610580565b5050565b60026001541415610a485760405162461bcd60e51b815260040161042690611a91565b60026001556004548110610a6e5760405162461bcd60e51b815260040161042690611a09565b600060048281548110610a8357610a83611a36565b6000918252602080832085845260068252604080852033865290925290832080546003939093029091016001810180549195509193839291610ac6908490611a62565b9091555050600080835560018301558254610aeb906001600160a01b0316338361150a565b604051818152849033907fbb757047c2b5f3974fe26b7c10f732e7bce710b0952a71082702781e62ae0595906020015b60405180910390a35050600180555050565b60045460005b81811015610a2157610b44816107fd565b610b4d81611b56565b9050610b33565b6000546001600160a01b03163314610b7e5760405162461bcd60e51b8152600401610426906119d4565b610b8860006116be565b565b600060048481548110610b9f57610b9f611a36565b6000918252602090912060039091020154600160c01b90046001600160401b03168211610c125760048481548110610bd957610bd9611a36565b6000918252602090912060039091020154600160a01b900463ffffffff16610c018484611a62565b610c0b9190611ac8565b9050610d22565b60048481548110610c2557610c25611a36565b6000918252602090912060039091020154600160c01b90046001600160401b03168310610c5657610c0b8383611a62565b60048481548110610c6957610c69611a36565b6000918252602090912060039091020154610c9490600160c01b90046001600160401b031683611a62565b60048581548110610ca757610ca7611a36565b906000526020600020906003020160000160149054906101000a900463ffffffff1663ffffffff168460048781548110610ce357610ce3611a36565b6000918252602090912060039091020154610d0e9190600160c01b90046001600160401b0316611a62565b610d189190611ac8565b610c0b9190611a79565b9392505050565b6000546001600160a01b03163314610d535760405162461bcd60e51b8152600401610426906119d4565b6002546001600160a01b0384811691161415610db15760405162461bcd60e51b815260206004820152601860248201527f43616e2774207374616b652072657761726420746f6b656e00000000000000006044820152606401610426565b6001600160a01b03831660009081526005602052604090205460ff1615610e105760405162461bcd60e51b8152602060048201526013602482015272151bdad95b88185b1c9958591e481859191959606a1b6044820152606401610426565b610e18610b2d565b60006008544311610e2b57600854610e2d565b435b905084600754610e3d9190611a79565b60078190555060046040518060e00160405280866001600160a01b03168152602001610e688661170e565b63ffffffff168152602001610e7c8561149e565b6001600160401b0316815260200160008152602001610e9a8861149e565b6001600160401b03168152602001610eb18461149e565b6001600160401b0390811682526000602092830181905284546001818101875595825283822085516003909202018054868601516040808901518716600160c01b026001600160c01b0363ffffffff909316600160a01b026001600160c01b03199094166001600160a01b0396871617939093179190911691909117825560608701518289015560808701516002909201805460a089015160c0909901516001600160801b03908116600160801b02998816600160401b026fffffffffffffffffffffffffffffffff19909216949097169390931792909217909416959095179094559288168084526005909252909120805460ff1916831790556004549091610fba91611a62565b60408051888152602081018790529081018590527fcb295bb60abeeb687f819f8557e33080c20eb264bce90585dd400e011adaceaf9060600160405180910390a35050505050565b60045460009083106110265760405162461bcd60e51b815260040161042690611a09565b60006004848154811061103b5761103b611a36565b600091825260208083208784526006825260408085206001600160a01b0389168652909252922060039190910290910160028101546001820154919350600160801b81046001600160801b03169190600160401b90046001600160401b0316431180156110a757508015155b156111365760028401546000906110d0908990600160401b90046001600160401b031643610b8a565b60075460028701546003549293506000926001600160401b03909116906110f79085611ac8565b6111019190611ac8565b61110b9190611ae7565b90508261111d64e8d4a5100083611ac8565b6111279190611ae7565b6111319085611a79565b935050505b6001830154835464e8d4a510009061114f908590611ac8565b6111599190611ae7565b6111639190611a62565b979650505050505050565b6000546001600160a01b031633146111985760405162461bcd60e51b8152600401610426906119d4565b60045482106111b95760405162461bcd60e51b815260040161042690611a09565b6111c2826107fd565b6111cb8161170e565b600483815481106111de576111de611a36565b906000526020600020906003020160000160146101000a81548163ffffffff021916908363ffffffff160217905550817f3218a9351994eb41cf8301b9004b97dcff092f8e7a7e0c498c606bc09329e8698260405161123f91815260200190565b60405180910390a25050565b6002600154141561126e5760405162461bcd60e51b815260040161042690611a91565b600260015560045482106112945760405162461bcd60e51b815260040161042690611a09565b6000600483815481106112a9576112a9611a36565b600091825260208083208684526006825260408085203386529092529220600390910290910191506112da846107fd565b805415611347576001810154600283015482546000929164e8d4a510009161131291600160801b90046001600160801b031690611ac8565b61131c9190611ae7565b6113269190611a62565b9050801561134557600254611345906001600160a01b0316338361150a565b505b8215611397578154611364906001600160a01b0316333086611773565b828260010160008282546113789190611a79565b9091555050805483908290600090611391908490611a79565b90915550505b6002820154815464e8d4a51000916113c091600160801b9091046001600160801b031690611ac8565b6113ca9190611ae7565b6001820155604051838152849033907f90890809c654f11d6e72a28fa60149770a0d11ec6c92319d6ceb2bb0a4ea1a1590602001610b1b565b6000546001600160a01b0316331461142d5760405162461bcd60e51b8152600401610426906119d4565b6001600160a01b0381166114925760405162461bcd60e51b815260206004820152602660248201527f4f776e61626c653a206e6577206f776e657220697320746865207a65726f206160448201526564647265737360d01b6064820152608401610426565b61149b816116be565b50565b60006001600160401b038211156115065760405162461bcd60e51b815260206004820152602660248201527f53616665436173743a2076616c756520646f65736e27742066697420696e203660448201526534206269747360d01b6064820152608401610426565b5090565b604080518082018252601981527f7472616e7366657228616464726573732c75696e74323536290000000000000060209182015281516001600160a01b0385811660248301526044808301869052845180840390910181526064909201845291810180516001600160e01b031663a9059cbb60e01b179052915160009283928716916115969190611b71565b6000604051808303816000865af19150503d80600081146115d3576040519150601f19603f3d011682016040523d82523d6000602084013e6115d8565b606091505b50915091508180156116025750805115806116025750808060200190518101906116029190611b09565b61164e5760405162461bcd60e51b815260206004820152601f60248201527f5472616e7366657248656c7065723a205452414e534645525f4641494c4544006044820152606401610426565b5050505050565b60006001600160801b038211156115065760405162461bcd60e51b815260206004820152602760248201527f53616665436173743a2076616c756520646f65736e27742066697420696e20316044820152663238206269747360c81b6064820152608401610426565b600080546001600160a01b038381166001600160a01b0319831681178455604051919092169283917f8be0079c531659141344cd1fd0a4f28419497f9722a3daafe3b4186f6b6457e09190a35050565b600063ffffffff8211156115065760405162461bcd60e51b815260206004820152602660248201527f53616665436173743a2076616c756520646f65736e27742066697420696e203360448201526532206269747360d01b6064820152608401610426565b600080856001600160a01b0316604051806060016040528060258152602001611bad6025913980516020909101206040516001600160a01b038089166024830152871660448201526064810186905260840160408051601f198184030181529181526020820180516001600160e01b03166001600160e01b03199094169390931790925290516118039190611b71565b6000604051808303816000865af19150503d8060008114611840576040519150601f19603f3d011682016040523d82523d6000602084013e611845565b606091505b509150915081801561186f57508051158061186f57508080602001905181019061186f9190611b09565b6118c75760405162461bcd60e51b8152602060048201526024808201527f5472616e7366657248656c7065723a205452414e534645525f46524f4d5f46416044820152631253115160e21b6064820152608401610426565b505050505050565b6000602082840312156118e157600080fd5b5035919050565b600080604083850312156118fb57600080fd5b50508035926020909101359150565b80356001600160a01b038116811461192157600080fd5b919050565b60006020828403121561193857600080fd5b610d228261190a565b60008060006060848603121561195657600080fd5b505081359360208301359350604090920135919050565b6000806000806080858703121561198357600080fd5b843593506119936020860161190a565b93969395505050506040820135916060013590565b600080604083850312156119bb57600080fd5b823591506119cb6020840161190a565b90509250929050565b6020808252818101527f4f776e61626c653a2063616c6c6572206973206e6f7420746865206f776e6572604082015260600190565b602080825260139082015272141bdbdb08191bd95cc81b9bdd08195e1a5cdd606a1b604082015260600190565b634e487b7160e01b600052603260045260246000fd5b634e487b7160e01b600052601160045260246000fd5b600082821015611a7457611a74611a4c565b500390565b60008219821115611a8c57611a8c611a4c565b500190565b6020808252601f908201527f5265656e7472616e637947756172643a207265656e7472616e742063616c6c00604082015260600190565b6000816000190483118215151615611ae257611ae2611a4c565b500290565b600082611b0457634e487b7160e01b600052601260045260246000fd5b500490565b600060208284031215611b1b57600080fd5b81518015158114610d2257600080fd5b60006001600160801b03808316818516808303821115611b4d57611b4d611a4c565b01949350505050565b6000600019821415611b6a57611b6a611a4c565b5060010190565b6000825160005b81811015611b925760208186018101518583015201611b78565b81811115611ba1576000828501525b50919091019291505056fe7472616e7366657246726f6d28616464726573732c616464726573732c75696e7432353629a264697066735822122075682217da861529a3b7141ee740d0cdc23b49b5d98bd097253d031a3811507964736f6c634300080c0033",
    "sourcePath": "/Users/kang1027/klaytn/klaytn-dex-contracts/contracts/farming/Farming.sol",
    "compiler": {
        "name": "solc",
        "version": "0.8.12+commit.f00d7308"
    },
    "functionHashes": {
        "add(uint256,address,uint256,uint256)": "8a0c89d2",
        "addedTokens(address)": "79d12ffb",
        "deposit(uint256,uint256)": "e2bbb158",
        "emergencyWithdraw(uint256)": "5312ea8e",
        "getMultiplier(uint256,uint256,uint256)": "7bafb029",
        "massUpdatePools()": "630b5ba1",
        "owner()": "8da5cb5b",
        "pendingPtn(uint256,address)": "af359b25",
        "poolInfo(uint256)": "1526fe27",
        "poolLength()": "081e3eda",
        "ptn()": "88a399f3",
        "ptnPerBlock()": "b4fdeaba",
        "renounceOwnership()": "715018a6",
        "set(uint256,uint256)": "1ab06ee5",
        "startBlock()": "48cd4cb1",
        "totalAllocPoint()": "17caf6f1",
        "transferOwnership(address)": "f2fde38b",
        "updateMultiplier(uint256,uint256)": "bad60f18",
        "updatePool(uint256)": "51eb05a6",
        "updatePtnPerBlock(uint256)": "48d957e4",
        "userInfo(uint256,address)": "93f1a40b",
        "withdraw(uint256,uint256)": "441a3e70"
    },
    "gasEstimates": {
        "creation": {
            "codeDepositCost": "1435000",
            "executionCost": "infinite",
            "totalCost": "infinite"
        },
        "external": {
            "add(uint256,address,uint256,uint256)": "infinite",
            "addedTokens(address)": "2554",
            "deposit(uint256,uint256)": "infinite",
            "emergencyWithdraw(uint256)": "infinite",
            "getMultiplier(uint256,uint256,uint256)": "infinite",
            "massUpdatePools()": "infinite",
            "owner()": "2442",
            "pendingPtn(uint256,address)": "infinite",
            "poolInfo(uint256)": "9221",
            "poolLength()": "2294",
            "ptn()": "2404",
            "ptnPerBlock()": "2350",
            "renounceOwnership()": "28247",
            "set(uint256,uint256)": "infinite",
            "startBlock()": "2307",
            "totalAllocPoint()": "2352",
            "transferOwnership(address)": "28441",
            "updateMultiplier(uint256,uint256)": "infinite",
            "updatePool(uint256)": "infinite",
            "updatePtnPerBlock(uint256)": "infinite",
            "userInfo(uint256,address)": "4778",
            "withdraw(uint256,uint256)": "infinite"
        }
    }
}