{
    "contractName": "DexFactory",
    "abi": [
        {
            "inputs": [
                {
                    "internalType": "address",
                    "name": "_feeToSetter",
                    "type": "address"
                }
            ],
            "stateMutability": "nonpayable",
            "type": "constructor"
        },
        {
            "inputs": [
                {
                    "internalType": "string",
                    "name": "",
                    "type": "string"
                }
            ],
            "name": "InvalidAddressParameters",
            "type": "error"
        },
        {
            "inputs": [],
            "name": "Unauthorized",
            "type": "error"
        },
        {
            "anonymous": false,
            "inputs": [
                {
                    "indexed": false,
                    "internalType": "address",
                    "name": "newFeeTo",
                    "type": "address"
                }
            ],
            "name": "FeeToChanged",
            "type": "event"
        },
        {
            "anonymous": false,
            "inputs": [
                {
                    "indexed": false,
                    "internalType": "address",
                    "name": "newFeeToSetter",
                    "type": "address"
                }
            ],
            "name": "FeeToSetterChanged",
            "type": "event"
        },
        {
            "anonymous": false,
            "inputs": [
                {
                    "indexed": true,
                    "internalType": "address",
                    "name": "token0",
                    "type": "address"
                },
                {
                    "indexed": true,
                    "internalType": "address",
                    "name": "token1",
                    "type": "address"
                },
                {
                    "indexed": false,
                    "internalType": "address",
                    "name": "pair",
                    "type": "address"
                },
                {
                    "indexed": false,
                    "internalType": "uint256",
                    "name": "",
                    "type": "uint256"
                }
            ],
            "name": "PairCreated",
            "type": "event"
        },
        {
            "inputs": [],
            "name": "INIT",
            "outputs": [
                {
                    "internalType": "bytes32",
                    "name": "",
                    "type": "bytes32"
                }
            ],
            "stateMutability": "view",
            "type": "function"
        },
        {
            "inputs": [
                {
                    "internalType": "uint256",
                    "name": "",
                    "type": "uint256"
                }
            ],
            "name": "allPairs",
            "outputs": [
                {
                    "internalType": "address",
                    "name": "",
                    "type": "address"
                }
            ],
            "stateMutability": "view",
            "type": "function"
        },
        {
            "inputs": [],
            "name": "allPairsLength",
            "outputs": [
                {
                    "internalType": "uint256",
                    "name": "",
                    "type": "uint256"
                }
            ],
            "stateMutability": "view",
            "type": "function"
        },
        {
            "inputs": [
                {
                    "internalType": "address",
                    "name": "criteriaCoin",
                    "type": "address"
                }
            ],
            "name": "createCriteriaCoin",
            "outputs": [],
            "stateMutability": "nonpayable",
            "type": "function"
        },
        {
            "inputs": [
                {
                    "internalType": "address",
                    "name": "tokenA",
                    "type": "address"
                },
                {
                    "internalType": "address",
                    "name": "tokenB",
                    "type": "address"
                },
                {
                    "internalType": "string",
                    "name": "_pairName",
                    "type": "string"
                },
                {
                    "internalType": "string",
                    "name": "_pairSymbol",
                    "type": "string"
                }
            ],
            "name": "createPair",
            "outputs": [
                {
                    "internalType": "address",
                    "name": "pair",
                    "type": "address"
                }
            ],
            "stateMutability": "nonpayable",
            "type": "function"
        },
        {
            "inputs": [],
            "name": "criteriaCoinLength",
            "outputs": [
                {
                    "internalType": "uint256",
                    "name": "",
                    "type": "uint256"
                }
            ],
            "stateMutability": "view",
            "type": "function"
        },
        {
            "inputs": [],
            "name": "feeTo",
            "outputs": [
                {
                    "internalType": "address",
                    "name": "",
                    "type": "address"
                }
            ],
            "stateMutability": "view",
            "type": "function"
        },
        {
            "inputs": [],
            "name": "feeToSetter",
            "outputs": [
                {
                    "internalType": "address",
                    "name": "",
                    "type": "address"
                }
            ],
            "stateMutability": "view",
            "type": "function"
        },
        {
            "inputs": [],
            "name": "getCriteriaCoins",
            "outputs": [
                {
                    "internalType": "address[]",
                    "name": "coins",
                    "type": "address[]"
                }
            ],
            "stateMutability": "view",
            "type": "function"
        },
        {
            "inputs": [
                {
                    "internalType": "address",
                    "name": "",
                    "type": "address"
                },
                {
                    "internalType": "address",
                    "name": "",
                    "type": "address"
                }
            ],
            "name": "getPair",
            "outputs": [
                {
                    "internalType": "address",
                    "name": "",
                    "type": "address"
                }
            ],
            "stateMutability": "view",
            "type": "function"
        },
        {
            "inputs": [
                {
                    "internalType": "address",
                    "name": "token",
                    "type": "address"
                }
            ],
            "name": "getTokenDecimals",
            "outputs": [
                {
                    "internalType": "uint24",
                    "name": "returnToken",
                    "type": "uint24"
                }
            ],
            "stateMutability": "view",
            "type": "function"
        },
        {
            "inputs": [
                {
                    "internalType": "address[]",
                    "name": "pairs",
                    "type": "address[]"
                }
            ],
            "name": "getTokenValues",
            "outputs": [
                {
                    "internalType": "uint256[]",
                    "name": "token0Values",
                    "type": "uint256[]"
                },
                {
                    "internalType": "uint256[]",
                    "name": "token1Values",
                    "type": "uint256[]"
                }
            ],
            "stateMutability": "view",
            "type": "function"
        },
        {
            "inputs": [
                {
                    "internalType": "address",
                    "name": "_feeTo",
                    "type": "address"
                }
            ],
            "name": "setFeeTo",
            "outputs": [],
            "stateMutability": "nonpayable",
            "type": "function"
        },
        {
            "inputs": [
                {
                    "internalType": "address",
                    "name": "_feeToSetter",
                    "type": "address"
                }
            ],
            "name": "setFeeToSetter",
            "outputs": [],
            "stateMutability": "nonpayable",
            "type": "function"
        }
    ],
    "bytecode": "608060405234801561001057600080fd5b5060405161405e38038061405e83398101604081905261002f916100e1565b6001600160a01b03811661008a57604051631fadb98760e11b815260206004820152601860248201527f4445583a205345545445525f5a45524f5f414444524553530000000000000000604482015260640160405180910390fd5b600180546001600160a01b0319166001600160a01b0383169081179091556040519081527f65927efbde2d271c5102a36462918fd551e53b636f92ccc8f4882054eed191eb9060200160405180910390a150610111565b6000602082840312156100f357600080fd5b81516001600160a01b038116811461010a57600080fd5b9392505050565b613f3e806101206000396000f3fe60806040523480156200001157600080fd5b5060043610620000fd5760003560e01c8063a2e74af61162000097578063d178fea0116200006e578063d178fea0146200025f578063e6a439051462000278578063ea64391414620002af578063f46901ed14620002b957600080fd5b8063a2e74af614620001db578063b6cf0d8914620001f4578063d01d432414620001fc57600080fd5b806337583e6511620000d857806337583e65146200015e578063574f2ba3146200018557806360b6f2041462000198578063785c7cf614620001af57600080fd5b8063017e7e581462000102578063094b741514620001335780631e3dd18b1462000147575b600080fd5b60005462000116906001600160a01b031681565b6040516001600160a01b0390911681526020015b60405180910390f35b60015462000116906001600160a01b031681565b620001166200015836600462000d5b565b620002d0565b620001756200016f36600462000d75565b620002fb565b6040516200012a92919062000e2c565b6003545b6040519081526020016200012a565b62000116620001a936600462000ec3565b62000664565b620001c6620001c036600462000f63565b62000a66565b60405162ffffff90911681526020016200012a565b620001f2620001ec36600462000f63565b62000ad6565b005b600562000189565b620001f26200020d36600462000f63565b600480546001810182556000919091527f8a35acfbc15ff81a39ae7d344fd709f28e8600b4aa8c65c6b64bfe7fe36bd19b0180546001600160a01b0319166001600160a01b0392909216919091179055565b6200026962000baf565b6040516200012a919062000f8a565b620001166200028936600462000fd9565b60026020908152600092835260408084209091529082529020546001600160a01b031681565b6200018962000c85565b620001f2620002ca36600462000f63565b62000cd3565b60038181548110620002e157600080fd5b6000918252602090912001546001600160a01b0316905081565b6060806200030b8360016200102d565b67ffffffffffffffff81111562000326576200032662001048565b60405190808252806020026020018201604052801562000350578160200160208202803683370190505b5091508267ffffffffffffffff8111156200036f576200036f62001048565b60405190808252806020026020018201604052801562000399578160200160208202803683370190505b50905060005b63ffffffff81168411156200065c5760008086868463ffffffff16818110620003cc57620003cc6200105e565b9050602002016020810190620003e3919062000f63565b6001600160a01b0316630902f1ac6040518163ffffffff1660e01b8152600401606060405180830381865afa15801562000421573d6000803e3d6000fd5b505050506040513d601f19601f8201168201806040525081019062000447919062001091565b506001600160701b031691506001600160701b03169150600087878563ffffffff168181106200047b576200047b6200105e565b905060200201602081019062000492919062000f63565b6001600160a01b0316630dfe16816040518163ffffffff1660e01b8152600401602060405180830381865afa158015620004d0573d6000803e3d6000fd5b505050506040513d601f19601f82011682018060405250810190620004f69190620010e7565b9050600088888663ffffffff168181106200051557620005156200105e565b90506020020160208101906200052c919062000f63565b6001600160a01b031663d21220a76040518163ffffffff1660e01b8152600401602060405180830381865afa1580156200056a573d6000803e3d6000fd5b505050506040513d601f19601f82011682018060405250810190620005909190620010e7565b9050836200059e8362000a66565b620005ab90600a620011fe565b620005b7908562001211565b620005c3919062001233565b878663ffffffff1681518110620005de57620005de6200105e565b60200260200101818152505082620005f68262000a66565b6200060390600a620011fe565b6200060f908662001211565b6200061b919062001233565b868663ffffffff16815181106200063657620006366200105e565b602002602001018181525050505050508080620006539062001256565b9150506200039f565b509250929050565b60008080806001600160a01b038a8116908a161415620006cc57604051631fadb98760e11b815260206004820152601860248201527f4445583a204944454e544943414c5f414444524553534553000000000000000060448201526064015b60405180910390fd5b60005b60045463ffffffff82161015620007885760048163ffffffff1681548110620006fc57620006fc6200105e565b6000918252602090912001546001600160a01b038c8116911614156200072c578993508a92506001915062000773565b60048163ffffffff16815481106200074857620007486200105e565b6000918252602090912001546001600160a01b038b81169116141562000773578a9350899250600191505b806200077f8162001256565b915050620006cf565b5080620007f057604051631fadb98760e11b815260206004820152602e60248201527f496e76616c69642056616c7565203a205468697320546f6b656e73206973206e60448201526d37ba1030baba3437b934bd32b21760911b6064820152608401620006c3565b6001600160a01b0383166200083d57604051631fadb98760e11b81526020600482015260116024820152704445583a205a45524f5f4144445245535360781b6044820152606401620006c3565b6001600160a01b03838116600090815260026020908152604080832086851684529091529020541615620008a857604051631fadb98760e11b815260206004820152601060248201526f4445583a20504149525f45584953545360801b6044820152606401620006c3565b6040516bffffffffffffffffffffffff19606085811b8216602084015284901b1660348201526048016040516020818303038152906040528051906020012088888888604051620008f99062000d4d565b620009089493929190620012a6565b8190604051809103906000f590508015801562000929573d6000803e3d6000fd5b5060405163485cc95560e01b81526001600160a01b03858116600483015284811660248301529195509085169063485cc95590604401600060405180830381600087803b1580156200097a57600080fd5b505af11580156200098f573d6000803e3d6000fd5b505050506001600160a01b0383811660008181526002602081815260408084208887168086529083528185208054978c166001600160a01b031998891681179091559383528185208686528352818520805488168517905560038054600181018255958190527fc2575a0e9e593c00f959f8c92f12db2869c3395a3b0502d05e2516446f71f85b9095018054909716841790965592548351928352908201527f0d3648bd0f6ba80134a33ba9275ac585d9d315f0ad8355cddefde31afa28d0e9910160405180910390a35050509695505050505050565b6000816001600160a01b031663313ce5676040518163ffffffff1660e01b8152600401602060405180830381865afa15801562000aa7573d6000803e3d6000fd5b505050506040513d601f19601f8201168201806040525081019062000acd9190620012dc565b60ff1692915050565b6001600160a01b03811662000b2f57604051631fadb98760e11b815260206004820152601860248201527f4445583a205345545445525f5a45524f5f4144445245535300000000000000006044820152606401620006c3565b6001546001600160a01b0316331462000b5a576040516282b42960e81b815260040160405180910390fd5b600180546001600160a01b0319166001600160a01b0383169081179091556040519081527f65927efbde2d271c5102a36462918fd551e53b636f92ccc8f4882054eed191eb906020015b60405180910390a150565b60045460609067ffffffffffffffff81111562000bd05762000bd062001048565b60405190808252806020026020018201604052801562000bfa578160200160208202803683370190505b50905060005b60045481101562000c81576004818154811062000c215762000c216200105e565b9060005260206000200160009054906101000a90046001600160a01b031682828151811062000c545762000c546200105e565b6001600160a01b03909216602092830291909101909101528062000c788162001301565b91505062000c00565b5090565b60405162000c966020820162000d4d565b601f1982820381018352601f90910116604081905262000cba91906020016200131f565b6040516020818303038152906040528051906020012081565b6001546001600160a01b0316331462000cfe576040516282b42960e81b815260040160405180910390fd5b600080546001600160a01b0319166001600160a01b0383169081179091556040519081527f3dedba2a214b4fff9bf20fc473c114824654e0bc70512b4a92f6d5978763c28d9060200162000ba4565b612bab806200135e83390190565b60006020828403121562000d6e57600080fd5b5035919050565b6000806020838503121562000d8957600080fd5b823567ffffffffffffffff8082111562000da257600080fd5b818501915085601f83011262000db757600080fd5b81358181111562000dc757600080fd5b8660208260051b850101111562000ddd57600080fd5b60209290920196919550909350505050565b600081518084526020808501945080840160005b8381101562000e215781518752958201959082019060010162000e03565b509495945050505050565b60408152600062000e41604083018562000def565b828103602084015262000e55818562000def565b95945050505050565b6001600160a01b038116811462000e7457600080fd5b50565b60008083601f84011262000e8a57600080fd5b50813567ffffffffffffffff81111562000ea357600080fd5b60208301915083602082850101111562000ebc57600080fd5b9250929050565b6000806000806000806080878903121562000edd57600080fd5b863562000eea8162000e5e565b9550602087013562000efc8162000e5e565b9450604087013567ffffffffffffffff8082111562000f1a57600080fd5b62000f288a838b0162000e77565b9096509450606089013591508082111562000f4257600080fd5b5062000f5189828a0162000e77565b979a9699509497509295939492505050565b60006020828403121562000f7657600080fd5b813562000f838162000e5e565b9392505050565b6020808252825182820181905260009190848201906040850190845b8181101562000fcd5783516001600160a01b03168352928401929184019160010162000fa6565b50909695505050505050565b6000806040838503121562000fed57600080fd5b823562000ffa8162000e5e565b915060208301356200100c8162000e5e565b809150509250929050565b634e487b7160e01b600052601160045260246000fd5b6000821982111562001043576200104362001017565b500190565b634e487b7160e01b600052604160045260246000fd5b634e487b7160e01b600052603260045260246000fd5b80516001600160701b03811681146200108c57600080fd5b919050565b600080600060608486031215620010a757600080fd5b620010b28462001074565b9250620010c26020850162001074565b9150604084015163ffffffff81168114620010dc57600080fd5b809150509250925092565b600060208284031215620010fa57600080fd5b815162000f838162000e5e565b600181815b808511156200065c5781600019048211156200112c576200112c62001017565b808516156200113a57918102915b93841c93908002906200110c565b6000826200115957506001620011f8565b816200116857506000620011f8565b81600181146200118157600281146200118c57620011ac565b6001915050620011f8565b60ff841115620011a057620011a062001017565b50506001821b620011f8565b5060208310610133831016604e8410600b8410161715620011d1575081810a620011f8565b620011dd838362001107565b8060001904821115620011f457620011f462001017565b0290505b92915050565b600062000f8362ffffff84168362001148565b60008160001904831182151516156200122e576200122e62001017565b500290565b6000826200125157634e487b7160e01b600052601260045260246000fd5b500490565b600063ffffffff8083168181141562001273576200127362001017565b6001019392505050565b81835281816020850137506000828201602090810191909152601f909101601f19169091010190565b604081526000620012bc6040830186886200127d565b8281036020840152620012d18185876200127d565b979650505050505050565b600060208284031215620012ef57600080fd5b815160ff8116811462000f8357600080fd5b600060001982141562001318576200131862001017565b5060010190565b6000825160005b8181101562001342576020818601810151858301520162001326565b8181111562001352576000828501525b50919091019291505056fe610100604052600860c0819052671513d2d1539154d560c21b60e09081526200002c916000919062000184565b50604080518082019091526005808252640544b4e4c560dc1b60209092019182526200005b9160019162000184565b506001600c553480156200006e57600080fd5b5060405162002bab38038062002bab8339810160408190526200009191620002f7565b815182908290620000aa90600090602085019062000184565b508051620000c090600190602084019062000184565b5060405146907f8b73c3c69bb8fe3d512ecc4cf759cc79239f7b179b0ffacaa9a75d522b39400f90620000f6906000906200039e565b60408051918290038220828201825260018352603160f81b6020938401528151928301939093528101919091527fc89efdaa54c0f20c7adf612882df0950f5a951637e0307cdcb4c672f298b8bc66060820152608081018290523060a082015260c00160408051601f19818403018152919052805160209091012060805250503360a0525062000442915050565b828054620001929062000361565b90600052602060002090601f016020900481019282620001b6576000855562000201565b82601f10620001d157805160ff191683800117855562000201565b8280016001018555821562000201579182015b8281111562000201578251825591602001919060010190620001e4565b506200020f92915062000213565b5090565b5b808211156200020f576000815560010162000214565b634e487b7160e01b600052604160045260246000fd5b600082601f8301126200025257600080fd5b81516001600160401b03808211156200026f576200026f6200022a565b604051601f8301601f19908116603f011681019082821181831017156200029a576200029a6200022a565b81604052838152602092508683858801011115620002b757600080fd5b600091505b83821015620002db5785820183015181830184015290820190620002bc565b83821115620002ed5760008385830101525b9695505050505050565b600080604083850312156200030b57600080fd5b82516001600160401b03808211156200032357600080fd5b620003318683870162000240565b935060208501519150808211156200034857600080fd5b50620003578582860162000240565b9150509250929050565b600181811c908216806200037657607f821691505b602082108114156200039857634e487b7160e01b600052602260045260246000fd5b50919050565b600080835481600182811c915080831680620003bb57607f831692505b6020808410821415620003dc57634e487b7160e01b86526022600452602486fd5b818015620003f35760018114620004055762000434565b60ff1986168952848901965062000434565b60008a81526020902060005b868110156200042c5781548b82015290850190830162000411565b505084890196505b509498975050505050505050565b60805160a05161272e6200047d6000396000818161046901528181610c050152611cea01526000818161032901526114fa015261272e6000f3fe608060405234801561001057600080fd5b50600436106101f05760003560e01c80636a6278421161010f578063ba9a7a56116100a2578063d505accf11610071578063d505accf1461049e578063dd62ed3e146104b1578063eb795549146104dc578063fff6cae9146104ef57600080fd5b8063ba9a7a5614610448578063bc25cf7714610451578063c45a015514610464578063d21220a71461048b57600080fd5b806389afcb44116100de57806389afcb44146103f257806395d89b411461041a578063a9059cbb14610422578063b88d4fde1461043557600080fd5b80636a6278421461039657806370a08231146103a95780637464fc3d146103c95780637ecebe00146103d257600080fd5b806330adf81f1161018757806342842e0e1161015657806342842e0e1461035e578063485cc955146103715780635909c0d5146103845780635a3d54931461038d57600080fd5b806330adf81f146102e3578063313ce5671461030a5780633644e51514610324578063423f6cef1461034b57600080fd5b8063095ea7b3116101c3578063095ea7b31461027b5780630dfe16811461028e57806318160ddd146102b957806323b872dd146102d057600080fd5b806301ffc9a7146101f5578063022c0d9f1461021d57806306fdde03146102325780630902f1ac14610247575b600080fd5b6102086102033660046120b3565b6104f7565b60405190151581526020015b60405180910390f35b61023061022b3660046120e5565b610549565b005b61023a610a32565b60405161021491906121d7565b61024f610ac0565b604080516001600160701b03948516815293909216602084015263ffffffff1690820152606001610214565b6102086102893660046121ea565b610aea565b6006546102a1906001600160a01b031681565b6040516001600160a01b039091168152602001610214565b6102c260025481565b604051908152602001610214565b6102086102de366004612216565b610b00565b6102c27f6e71edae12b1b97f4d1f60370fef10105fa2faae0126114a169c64845d6126c981565b610312601281565b60405160ff9091168152602001610214565b6102c27f000000000000000000000000000000000000000000000000000000000000000081565b6102306103593660046121ea565b610bbc565b61023061036c366004612216565b610bda565b61023061037f366004612257565b610bfa565b6102c260095481565b6102c2600a5481565b6102c26103a4366004612290565b610c70565b6102c26103b7366004612290565b60036020526000908152604090205481565b6102c2600b5481565b6102c26103e0366004612290565b60056020526000908152604090205481565b610405610400366004612290565b610f34565b60408051928352602083019190915201610214565b61023a611291565b6102086104303660046121ea565b61129e565b610230610443366004612350565b6112ab565b6102c26103e881565b61023061045f366004612290565b61138b565b6102a17f000000000000000000000000000000000000000000000000000000000000000081565b6007546102a1906001600160a01b031681565b6102306104ac3660046123bc565b61149f565b6102c26104bf366004612257565b600460209081526000928352604080842090915290825290205481565b6102306104ea366004612433565b6116c1565b6102306116f4565b60006001600160e01b03198216636578737160e01b148061052857506001600160e01b0319821663a219a02560e01b145b8061054357506301ffc9a760e01b6001600160e01b03198316145b92915050565b600c5460011461056c576040516303cb96db60e21b815260040160405180910390fd5b6000600c558415801561057d575083155b156105d05760405163240bf61760e11b815260206004820152601f60248201527f4445583a20494e53554646494349454e545f4f55545055545f414d4f554e540060448201526064015b60405180910390fd5b6000806105db610ac0565b5091509150816001600160701b0316871015806106015750806001600160701b03168610155b1561064f5760405163abd6d26960e01b815260206004820152601b60248201527f4445583a20494e53554646494349454e545f4c4951554944495459000000000060448201526064016105c7565b60065460075460009182916001600160a01b039182169190811690891682148061068a5750806001600160a01b0316896001600160a01b0316145b156106ca57604051631fadb98760e11b815260206004820152600f60248201526e4445583a20494e56414c49445f544f60881b60448201526064016105c7565b8a156106db576106db828a8d611819565b89156106ec576106ec818a8c611819565b8615610759576040516304347a1760e21b81526001600160a01b038a16906310d1e85c906107269033908f908f908e908e9060040161248c565b600060405180830381600087803b15801561074057600080fd5b505af1158015610754573d6000803e3d6000fd5b505050505b6040516370a0823160e01b81523060048201526001600160a01b038316906370a0823190602401602060405180830381865afa15801561079d573d6000803e3d6000fd5b505050506040513d601f19601f820116820180604052508101906107c191906124d8565b6040516370a0823160e01b81523060048201529094506001600160a01b038216906370a0823190602401602060405180830381865afa158015610808573d6000803e3d6000fd5b505050506040513d601f19601f8201168201806040525081019061082c91906124d8565b92505050600089856001600160701b03166108479190612507565b8311610854576000610871565b6108678a6001600160701b038716612507565b6108719084612507565b905060006108888a6001600160701b038716612507565b83116108955760006108b2565b6108a88a6001600160701b038716612507565b6108b29084612507565b9050811580156108c0575080155b1561090e5760405163240bf61760e11b815260206004820152601e60248201527f4445583a20494e53554646494349454e545f494e5055545f414d4f554e54000060448201526064016105c7565b600061091b83600361251e565b610927866103e861251e565b6109319190612507565b9050600061094083600361251e565b61094c866103e861251e565b6109569190612507565b905061096e6001600160701b03808916908a1661251e565b61097b90620f424061251e565b610985828461251e565b10156109bd5760405163240bf61760e11b81526020600482015260066024820152654445583a204b60d01b60448201526064016105c7565b50506109cb84848888611924565b60408051838152602081018390529081018c9052606081018b90526001600160a01b038a169033907fd78ad95fa46c994b6551d0da85fc275fe613ce37657fb8d5e3d130840159d8229060800160405180910390a350506001600c55505050505050505050565b60008054610a3f9061253d565b80601f0160208091040260200160405190810160405280929190818152602001828054610a6b9061253d565b8015610ab85780601f10610a8d57610100808354040283529160200191610ab8565b820191906000526020600020905b815481529060010190602001808311610a9b57829003601f168201915b505050505081565b6008546001600160701b0380821692600160701b830490911691600160e01b900463ffffffff1690565b6000610af7338484611ab9565b50600192915050565b6001600160a01b03831660009081526004602090815260408083203384529091528120546000198114610ba65782811015610b7d5760405162461bcd60e51b815260206004820152601c60248201527f4b4950373a20696e73756666696369656e7420616c6c6f77616e63650000000060448201526064016105c7565b6001600160a01b0385166000908152600460209081526040808320338452909152902083820390555b610bb1858585611b1a565b506001949350505050565b610bd68282604051806020016040528060008152506116c1565b5050565b610bf5838383604051806020016040528060008152506112ab565b505050565b336001600160a01b037f00000000000000000000000000000000000000000000000000000000000000001614610c42576040516282b42960e81b815260040160405180910390fd5b600680546001600160a01b039384166001600160a01b03199182161790915560078054929093169116179055565b6000600c54600114610c95576040516303cb96db60e21b815260040160405180910390fd5b6000600c81905580610ca5610ac0565b506006546040516370a0823160e01b81523060048201529294509092506000916001600160a01b03909116906370a0823190602401602060405180830381865afa158015610cf7573d6000803e3d6000fd5b505050506040513d601f19601f82011682018060405250810190610d1b91906124d8565b6007546040516370a0823160e01b81523060048201529192506000916001600160a01b03909116906370a0823190602401602060405180830381865afa158015610d69573d6000803e3d6000fd5b505050506040513d601f19601f82011682018060405250810190610d8d91906124d8565b90506000610da46001600160701b03861684612507565b90506000610dbb6001600160701b03861684612507565b90506000610dc98787611ce5565b60025490915080610e07576103e8610de9610de4858761251e565b611e2f565b610df39190612507565b9850610e0260006103e8611e9f565b610e4e565b610e4b6001600160701b038916610e1e838761251e565b610e289190612588565b6001600160701b038916610e3c848761251e565b610e469190612588565b611f31565b98505b88610ea75760405163abd6d26960e01b815260206004820152602260248201527f4445583a20494e53554646494349454e545f4c49515549444954595f4d494e54604482015261115160f21b60648201526084016105c7565b610eb18a8a611e9f565b610ebd86868a8a611924565b8115610ee657600854610ee2906001600160701b03600160701b82048116911661251e565b600b555b604080518581526020810185905233917f4c209b5fc8ad50758f13e2e1088ba56a560dff690a1c6fef26394f4c03821c4f910160405180910390a250506001600c5550949695505050505050565b600080600c54600114610f5a576040516303cb96db60e21b815260040160405180910390fd5b6000600c81905580610f6a610ac0565b506006546007546040516370a0823160e01b81523060048201529395509193506001600160a01b039081169291169060009083906370a0823190602401602060405180830381865afa158015610fc4573d6000803e3d6000fd5b505050506040513d601f19601f82011682018060405250810190610fe891906124d8565b6040516370a0823160e01b81523060048201529091506000906001600160a01b038416906370a0823190602401602060405180830381865afa158015611032573d6000803e3d6000fd5b505050506040513d601f19601f8201168201806040525081019061105691906124d8565b306000908152600360205260408120549192506110738888611ce5565b60025490915080611084868561251e565b61108e9190612588565b9a508061109b858561251e565b6110a59190612588565b99508a15806110b2575089155b1561110b5760405163abd6d26960e01b815260206004820152602260248201527f4445583a20494e53554646494349454e545f4c49515549444954595f4255524e604482015261115160f21b60648201526084016105c7565b6111153084611f49565b611120878d8d611819565b61112b868d8c611819565b6040516370a0823160e01b81523060048201526001600160a01b038816906370a0823190602401602060405180830381865afa15801561116f573d6000803e3d6000fd5b505050506040513d601f19601f8201168201806040525081019061119391906124d8565b6040516370a0823160e01b81523060048201529095506001600160a01b038716906370a0823190602401602060405180830381865afa1580156111da573d6000803e3d6000fd5b505050506040513d601f19601f820116820180604052508101906111fe91906124d8565b935061120c85858b8b611924565b811561123557600854611231906001600160701b03600160701b82048116911661251e565b600b555b604080518c8152602081018c90526001600160a01b038e169133917fdccd412f0b1252819cb1fd330b93224ca42612892bb3f4f789976e6d81936496910160405180910390a35050505050505050506001600c81905550915091565b60018054610a3f9061253d565b6000610af7338484611b1a565b6001600160a01b0384166000908152600460209081526040808320338452909152902054600019811461135157828110156113285760405162461bcd60e51b815260206004820152601c60248201527f4b4950373a20696e73756666696369656e7420616c6c6f77616e63650000000060448201526064016105c7565b6001600160a01b0385166000908152600460209081526040808320338452909152902083820390555b61135c858585611b1a565b61136885858585611fd5565b6113845760405162461bcd60e51b81526004016105c79061259c565b5050505050565b600c546001146113ae576040516303cb96db60e21b815260040160405180910390fd5b6000600c556006546007546008546040516370a0823160e01b81523060048201526001600160a01b03938416939092169161144d91849186916001600160701b03169083906370a08231906024015b602060405180830381865afa15801561141a573d6000803e3d6000fd5b505050506040513d601f19601f8201168201806040525081019061143e91906124d8565b6114489190612507565b611819565b6008546040516370a0823160e01b81523060048201526114959183918691600160701b90046001600160701b0316906001600160a01b038416906370a08231906024016113fd565b50506001600c5550565b428410156114de5760405162461bcd60e51b815260206004820152600c60248201526b1111560e881156141254915160a21b60448201526064016105c7565b6001600160a01b038716600090815260056020526040812080547f0000000000000000000000000000000000000000000000000000000000000000917f6e71edae12b1b97f4d1f60370fef10105fa2faae0126114a169c64845d6126c9918b918b918b918761154c836125ea565b909155506040805160208101969096526001600160a01b0394851690860152929091166060840152608083015260a082015260c0810187905260e001604051602081830303815290604052805190602001206040516020016115c592919061190160f01b81526002810192909252602282015260420190565b60408051601f198184030181528282528051602091820120600080855291840180845281905260ff88169284019290925260608301869052608083018590529092509060019060a0016020604051602081039080840390855afa158015611630573d6000803e3d6000fd5b5050604051601f1901519150506001600160a01b038116158015906116665750886001600160a01b0316816001600160a01b0316145b6116ab5760405162461bcd60e51b81526020600482015260166024820152754445583a20494e56414c49445f5349474e415455524560501b60448201526064016105c7565b6116b6898989611ab9565b505050505050505050565b6116cc338484611b1a565b6116d833848484611fd5565b610bf55760405162461bcd60e51b81526004016105c79061259c565b600c54600114611717576040516303cb96db60e21b815260040160405180910390fd5b6000600c556006546040516370a0823160e01b8152306004820152611812916001600160a01b0316906370a0823190602401602060405180830381865afa158015611766573d6000803e3d6000fd5b505050506040513d601f19601f8201168201806040525081019061178a91906124d8565b6007546040516370a0823160e01b81523060048201526001600160a01b03909116906370a0823190602401602060405180830381865afa1580156117d2573d6000803e3d6000fd5b505050506040513d601f19601f820116820180604052508101906117f691906124d8565b6008546001600160701b0380821691600160701b900416611924565b6001600c55565b604080516001600160a01b038481166024830152604480830185905283518084039091018152606490920183526020820180516001600160e01b031663a9059cbb60e01b17905291516000928392908716916118759190612605565b6000604051808303816000865af19150503d80600081146118b2576040519150601f19603f3d011682016040523d82523d6000602084013e6118b7565b606091505b50915091508180156118e15750805115806118e15750808060200190518101906118e19190612621565b6113845760405162461bcd60e51b81526020600482015260146024820152731111560e881514905394d1915497d1905253115160621b60448201526064016105c7565b6001600160701b0384118061193f57506001600160701b0383115b1561195d57604051631a93c68960e11b815260040160405180910390fd5b600854429063ffffffff600160e01b909104811682039081161580159061198c57506001600160701b03841615155b80156119a057506001600160701b03831615155b15611a215763ffffffff81166119d185607086901b600160701b600160e01b03165b6001600160e01b031690612085565b600980546001600160e01b03929092169290920201905563ffffffff8116611a0984607087901b600160701b600160e01b03166119c2565b600a80546001600160e01b0392909216929092020190555b506008805463ffffffff8316600160e01b026001600160e01b036001600160701b03888116600160701b9081026001600160e01b03199095168b83161794909417918216831794859055604080519382169282169290921783529290930490911660208201527f1c411e9a96e071241c2f21f7726b17ae89e3cab4c78be50e062b03a9fffbbad1910160405180910390a15050505050565b6001600160a01b0383811660008181526004602090815260408083209487168084529482529182902085905590518481527f8c5be1e5ebec7d5bd14f71427d1e84f3dd0314c0f7b2291e5b200ac8c7c3b925910160405180910390a3505050565b6001600160a01b038316611b7c5760405162461bcd60e51b8152602060048201526024808201527f4b4950373a207472616e736665722066726f6d20746865207a65726f206164646044820152637265737360e01b60648201526084016105c7565b6001600160a01b038216611bdd5760405162461bcd60e51b815260206004820152602260248201527f4b4950373a207472616e7366657220746f20746865207a65726f206164647265604482015261737360f01b60648201526084016105c7565b6001600160a01b03831660009081526003602052604090205481811015611c545760405162461bcd60e51b815260206004820152602560248201527f4b4950373a207472616e7366657220616d6f756e7420657863656564732062616044820152646c616e636560d81b60648201526084016105c7565b6001600160a01b03808516600090815260036020526040808220858503905591851681529081208054849290611c8b908490612643565b92505081905550826001600160a01b0316846001600160a01b03167fddf252ad1be2c89b69c2b068fc378daa952ba7f163c4a11628f55a4df523b3ef84604051611cd791815260200190565b60405180910390a350505050565b6000807f00000000000000000000000000000000000000000000000000000000000000006001600160a01b031663017e7e586040518163ffffffff1660e01b8152600401602060405180830381865afa158015611d46573d6000803e3d6000fd5b505050506040513d601f19601f82011682018060405250810190611d6a919061265b565b600b546001600160a01b038216158015945091925090611e1b578015611e16576000611da5610de46001600160701b0380881690891661251e565b90506000611db283611e2f565b905080821115611e13576000611dc88284612507565b600254611dd5919061251e565b9050600082611de585600561251e565b611def9190612643565b90506000611dfd8284612588565b90508015611e0f57611e0f8782611e9f565b5050505b50505b611e27565b8015611e27576000600b555b505092915050565b60006003821115611e905750806000611e49600283612588565b611e54906001612643565b90505b81811015611e8a57905080600281611e6f8186612588565b611e799190612643565b611e839190612588565b9050611e57565b50919050565b8115611e9a575060015b919050565b80600254611ead9190612643565b6002556001600160a01b038216600090815260036020526040902054611ed4908290612643565b6001600160a01b0383166000818152600360205260408082209390935591519091907fddf252ad1be2c89b69c2b068fc378daa952ba7f163c4a11628f55a4df523b3ef90611f259085815260200190565b60405180910390a35050565b6000818310611f405781611f42565b825b9392505050565b6001600160a01b038216600090815260036020526040902054611f6d908290612507565b6001600160a01b038316600090815260036020526040902055600254611f94908290612507565b6002556040518181526000906001600160a01b038416907fddf252ad1be2c89b69c2b068fc378daa952ba7f163c4a11628f55a4df523b3ef90602001611f25565b60006001600160a01b0384163b611fee5750600161207d565b604051634e8c461160e11b81526000906001600160a01b03861690639d188c22906120239033908a9089908990600401612678565b6020604051808303816000875af1158015612042573d6000803e3d6000fd5b505050506040513d601f19601f8201168201806040525081019061206691906126b5565b6001600160e01b031916634e8c461160e11b149150505b949350505050565b6000611f426001600160701b038316846126d2565b6001600160e01b0319811681146120b057600080fd5b50565b6000602082840312156120c557600080fd5b8135611f428161209a565b6001600160a01b03811681146120b057600080fd5b6000806000806000608086880312156120fd57600080fd5b85359450602086013593506040860135612116816120d0565b9250606086013567ffffffffffffffff8082111561213357600080fd5b818801915088601f83011261214757600080fd5b81358181111561215657600080fd5b89602082850101111561216857600080fd5b9699959850939650602001949392505050565b60005b8381101561219657818101518382015260200161217e565b838111156121a5576000848401525b50505050565b600081518084526121c381602086016020860161217b565b601f01601f19169290920160200192915050565b602081526000611f4260208301846121ab565b600080604083850312156121fd57600080fd5b8235612208816120d0565b946020939093013593505050565b60008060006060848603121561222b57600080fd5b8335612236816120d0565b92506020840135612246816120d0565b929592945050506040919091013590565b6000806040838503121561226a57600080fd5b8235612275816120d0565b91506020830135612285816120d0565b809150509250929050565b6000602082840312156122a257600080fd5b8135611f42816120d0565b634e487b7160e01b600052604160045260246000fd5b600082601f8301126122d457600080fd5b813567ffffffffffffffff808211156122ef576122ef6122ad565b604051601f8301601f19908116603f01168101908282118183101715612317576123176122ad565b8160405283815286602085880101111561233057600080fd5b836020870160208301376000602085830101528094505050505092915050565b6000806000806080858703121561236657600080fd5b8435612371816120d0565b93506020850135612381816120d0565b925060408501359150606085013567ffffffffffffffff8111156123a457600080fd5b6123b0878288016122c3565b91505092959194509250565b600080600080600080600060e0888a0312156123d757600080fd5b87356123e2816120d0565b965060208801356123f2816120d0565b95506040880135945060608801359350608088013560ff8116811461241657600080fd5b9699959850939692959460a0840135945060c09093013592915050565b60008060006060848603121561244857600080fd5b8335612453816120d0565b925060208401359150604084013567ffffffffffffffff81111561247657600080fd5b612482868287016122c3565b9150509250925092565b60018060a01b038616815284602082015283604082015260806060820152816080820152818360a0830137600081830160a090810191909152601f909201601f19160101949350505050565b6000602082840312156124ea57600080fd5b5051919050565b634e487b7160e01b600052601160045260246000fd5b600082821015612519576125196124f1565b500390565b6000816000190483118215151615612538576125386124f1565b500290565b600181811c9082168061255157607f821691505b60208210811415611e8a57634e487b7160e01b600052602260045260246000fd5b634e487b7160e01b600052601260045260246000fd5b60008261259757612597612572565b500490565b6020808252602e908201527f4b4950373a207472616e7366657220746f206e6f6e204b49503752656365697660408201526d32b91034b6b83632b6b2b73a32b960911b606082015260800190565b60006000198214156125fe576125fe6124f1565b5060010190565b6000825161261781846020870161217b565b9190910192915050565b60006020828403121561263357600080fd5b81518015158114611f4257600080fd5b60008219821115612656576126566124f1565b500190565b60006020828403121561266d57600080fd5b8151611f42816120d0565b6001600160a01b03858116825284166020820152604081018390526080606082018190526000906126ab908301846121ab565b9695505050505050565b6000602082840312156126c757600080fd5b8151611f428161209a565b60006001600160e01b03838116806126ec576126ec612572565b9216919091049291505056fea26469706673582212204adb1cb98fe90da550c823b83acfcc83773271516894b542159fb1f825e07b8964736f6c634300080c0033a2646970667358221220fcfbdc59f1e1e6ae6d34b14a386c359c4957d2f70045a65611f1ddb2f67685b864736f6c634300080c0033",
    "sourcePath": "/Users/kang1027/klaytn/klaytn-dex-contracts/contracts/swap/DexFactory.sol",
    "compiler": {
        "name": "solc",
        "version": "0.8.12+commit.f00d7308"
    },
    "functionHashes": {
        "INIT()": "ea643914",
        "allPairs(uint256)": "1e3dd18b",
        "allPairsLength()": "574f2ba3",
        "createCriteriaCoin(address)": "d01d4324",
        "createPair(address,address,string,string)": "60b6f204",
        "criteriaCoinLength()": "b6cf0d89",
        "feeTo()": "017e7e58",
        "feeToSetter()": "094b7415",
        "getCriteriaCoins()": "d178fea0",
        "getPair(address,address)": "e6a43905",
        "getTokenDecimals(address)": "785c7cf6",
        "getTokenValues(address[])": "37583e65",
        "setFeeTo(address)": "f46901ed",
        "setFeeToSetter(address)": "a2e74af6"
    },
    "gasEstimates": {
        "creation": {
            "codeDepositCost": "3238000",
            "executionCost": "infinite",
            "totalCost": "infinite"
        },
        "external": {
            "INIT()": "infinite",
            "allPairs(uint256)": "4671",
            "allPairsLength()": "2326",
            "createCriteriaCoin(address)": "48856",
            "createPair(address,address,string,string)": "infinite",
            "criteriaCoinLength()": "237",
            "feeTo()": "2350",
            "feeToSetter()": "2372",
            "getCriteriaCoins()": "infinite",
            "getPair(address,address)": "infinite",
            "getTokenDecimals(address)": "infinite",
            "getTokenValues(address[])": "infinite",
            "setFeeTo(address)": "27858",
            "setFeeToSetter(address)": "27817"
        }
    }
}