{
    "contractName": "DexRouter",
    "abi": [
        {
            "inputs": [
                {
                    "internalType": "address",
                    "name": "_factory",
                    "type": "address"
                }
            ],
            "stateMutability": "nonpayable",
            "type": "constructor"
        },
        {
            "inputs": [],
            "name": "ExcessiveInputAmount",
            "type": "error"
        },
        {
            "inputs": [],
            "name": "Expired",
            "type": "error"
        },
        {
            "inputs": [
                {
                    "internalType": "string",
                    "name": "",
                    "type": "string"
                }
            ],
            "name": "InsufficientAmount",
            "type": "error"
        },
        {
            "inputs": [
                {
                    "internalType": "string",
                    "name": "",
                    "type": "string"
                }
            ],
            "name": "InvalidAddressParameters",
            "type": "error"
        },
        {
            "inputs": [
                {
                    "internalType": "address",
                    "name": "tokenA",
                    "type": "address"
                },
                {
                    "internalType": "address",
                    "name": "tokenB",
                    "type": "address"
                },
                {
                    "internalType": "uint256",
                    "name": "amountADesired",
                    "type": "uint256"
                },
                {
                    "internalType": "uint256",
                    "name": "amountBDesired",
                    "type": "uint256"
                },
                {
                    "internalType": "uint256",
                    "name": "amountAMin",
                    "type": "uint256"
                },
                {
                    "internalType": "uint256",
                    "name": "amountBMin",
                    "type": "uint256"
                },
                {
                    "internalType": "address",
                    "name": "to",
                    "type": "address"
                },
                {
                    "internalType": "uint256",
                    "name": "deadline",
                    "type": "uint256"
                }
            ],
            "name": "addLiquidity",
            "outputs": [
                {
                    "internalType": "uint256",
                    "name": "amountA",
                    "type": "uint256"
                },
                {
                    "internalType": "uint256",
                    "name": "amountB",
                    "type": "uint256"
                },
                {
                    "internalType": "uint256",
                    "name": "liquidity",
                    "type": "uint256"
                }
            ],
            "stateMutability": "nonpayable",
            "type": "function"
        },
        {
            "inputs": [],
            "name": "factory",
            "outputs": [
                {
                    "internalType": "address",
                    "name": "",
                    "type": "address"
                }
            ],
            "stateMutability": "view",
            "type": "function"
        },
        {
            "inputs": [
                {
                    "internalType": "uint256",
                    "name": "amountOut",
                    "type": "uint256"
                },
                {
                    "internalType": "uint256",
                    "name": "reserveIn",
                    "type": "uint256"
                },
                {
                    "internalType": "uint256",
                    "name": "reserveOut",
                    "type": "uint256"
                }
            ],
            "name": "getAmountIn",
            "outputs": [
                {
                    "internalType": "uint256",
                    "name": "amountIn",
                    "type": "uint256"
                }
            ],
            "stateMutability": "pure",
            "type": "function"
        },
        {
            "inputs": [
                {
                    "internalType": "uint256",
                    "name": "amountIn",
                    "type": "uint256"
                },
                {
                    "internalType": "uint256",
                    "name": "reserveIn",
                    "type": "uint256"
                },
                {
                    "internalType": "uint256",
                    "name": "reserveOut",
                    "type": "uint256"
                }
            ],
            "name": "getAmountOut",
            "outputs": [
                {
                    "internalType": "uint256",
                    "name": "amountOut",
                    "type": "uint256"
                }
            ],
            "stateMutability": "pure",
            "type": "function"
        },
        {
            "inputs": [
                {
                    "internalType": "uint256",
                    "name": "amountOut",
                    "type": "uint256"
                },
                {
                    "internalType": "address[]",
                    "name": "path",
                    "type": "address[]"
                }
            ],
            "name": "getAmountsIn",
            "outputs": [
                {
                    "internalType": "uint256[]",
                    "name": "amounts",
                    "type": "uint256[]"
                }
            ],
            "stateMutability": "view",
            "type": "function"
        },
        {
            "inputs": [
                {
                    "internalType": "uint256",
                    "name": "amountIn",
                    "type": "uint256"
                },
                {
                    "internalType": "address[]",
                    "name": "path",
                    "type": "address[]"
                }
            ],
            "name": "getAmountsOut",
            "outputs": [
                {
                    "internalType": "uint256[]",
                    "name": "amounts",
                    "type": "uint256[]"
                }
            ],
            "stateMutability": "view",
            "type": "function"
        },
        {
            "inputs": [
                {
                    "internalType": "uint256",
                    "name": "amountA",
                    "type": "uint256"
                },
                {
                    "internalType": "uint256",
                    "name": "reserveA",
                    "type": "uint256"
                },
                {
                    "internalType": "uint256",
                    "name": "reserveB",
                    "type": "uint256"
                }
            ],
            "name": "quote",
            "outputs": [
                {
                    "internalType": "uint256",
                    "name": "amountB",
                    "type": "uint256"
                }
            ],
            "stateMutability": "pure",
            "type": "function"
        },
        {
            "inputs": [
                {
                    "internalType": "address",
                    "name": "tokenA",
                    "type": "address"
                },
                {
                    "internalType": "address",
                    "name": "tokenB",
                    "type": "address"
                },
                {
                    "internalType": "uint256",
                    "name": "liquidity",
                    "type": "uint256"
                },
                {
                    "internalType": "uint256",
                    "name": "amountAMin",
                    "type": "uint256"
                },
                {
                    "internalType": "uint256",
                    "name": "amountBMin",
                    "type": "uint256"
                },
                {
                    "internalType": "address",
                    "name": "to",
                    "type": "address"
                },
                {
                    "internalType": "uint256",
                    "name": "deadline",
                    "type": "uint256"
                }
            ],
            "name": "removeLiquidity",
            "outputs": [
                {
                    "internalType": "uint256",
                    "name": "amountA",
                    "type": "uint256"
                },
                {
                    "internalType": "uint256",
                    "name": "amountB",
                    "type": "uint256"
                }
            ],
            "stateMutability": "nonpayable",
            "type": "function"
        },
        {
            "inputs": [
                {
                    "internalType": "uint256",
                    "name": "amountIn",
                    "type": "uint256"
                },
                {
                    "internalType": "uint256",
                    "name": "amountOutMin",
                    "type": "uint256"
                },
                {
                    "internalType": "address[]",
                    "name": "path",
                    "type": "address[]"
                },
                {
                    "internalType": "address",
                    "name": "to",
                    "type": "address"
                },
                {
                    "internalType": "uint256",
                    "name": "deadline",
                    "type": "uint256"
                }
            ],
            "name": "swapExactTokensForTokens",
            "outputs": [
                {
                    "internalType": "uint256[]",
                    "name": "amounts",
                    "type": "uint256[]"
                }
            ],
            "stateMutability": "nonpayable",
            "type": "function"
        },
        {
            "inputs": [
                {
                    "internalType": "uint256",
                    "name": "amountOut",
                    "type": "uint256"
                },
                {
                    "internalType": "uint256",
                    "name": "amountInMax",
                    "type": "uint256"
                },
                {
                    "internalType": "address[]",
                    "name": "path",
                    "type": "address[]"
                },
                {
                    "internalType": "address",
                    "name": "to",
                    "type": "address"
                },
                {
                    "internalType": "uint256",
                    "name": "deadline",
                    "type": "uint256"
                }
            ],
            "name": "swapTokensForExactTokens",
            "outputs": [
                {
                    "internalType": "uint256[]",
                    "name": "amounts",
                    "type": "uint256[]"
                }
            ],
            "stateMutability": "nonpayable",
            "type": "function"
        }
    ],
    "bytecode": "60a06040523480156200001157600080fd5b50604051620022b6380380620022b68339810160408190526200003491620000a2565b6001600160a01b0381166200009057604051631fadb98760e11b815260206004820152601f60248201527f446578526f757465723a20464143544f52595f5a45524f5f4144445245535300604482015260640160405180910390fd5b6001600160a01b0316608052620000d4565b600060208284031215620000b557600080fd5b81516001600160a01b0381168114620000cd57600080fd5b9392505050565b6080516121726200014460003960008181610162015281816101f90152818161024f0152818161041e015281816105990152818161075e015281816108cc015281816109d701528181610a6501528181611160015281816112240152818161172d015261181c01526121726000f3fe608060405234801561001057600080fd5b506004361061009e5760003560e01c8063ad615dec11610066578063ad615dec14610122578063baa2abde14610135578063c45a01551461015d578063d06ca61f1461019c578063e8e33700146101af57600080fd5b8063054d50d4146100a35780631f00ca74146100c957806338ed1739146100e957806385f8c259146100fc5780638803dbee1461010f575b600080fd5b6100b66100b1366004611aeb565b6101dd565b6040519081526020015b60405180910390f35b6100dc6100d7366004611b55565b6101f2565b6040516100c09190611c26565b6100dc6100f7366004611c6a565b610226565b6100b661010a366004611aeb565b610563565b6100dc61011d366004611c6a565b610570565b6100b6610130366004611aeb565b6106eb565b610148610143366004611d0c565b6106f8565b604080519283526020830191909152016100c0565b6101847f000000000000000000000000000000000000000000000000000000000000000081565b6040516001600160a01b0390911681526020016100c0565b6100dc6101aa366004611b55565b6109d0565b6101c26101bd366004611d7e565b6109fd565b604080519384526020840192909252908201526060016100c0565b60006101ea848484610b8a565b949350505050565b606061021f7f00000000000000000000000000000000000000000000000000000000000000008484610c63565b9392505050565b6060814281101561024a57604051630407b05b60e31b815260040160405180910390fd5b6103647f00000000000000000000000000000000000000000000000000000000000000006001600160a01b031663e6a439058888600081811061028f5761028f611dfa565b90506020020160208101906102a49190611e10565b898960018181106102b7576102b7611dfa565b90506020020160208101906102cc9190611e10565b6040518363ffffffff1660e01b81526004016102e9929190611e2d565b602060405180830381865afa158015610306573d6000803e3d6000fd5b505050506040513d601f19601f8201168201806040525081019061032a9190611e47565b89888880806020026020016040519081016040528093929190818152602001838360200280828437600092019190915250610df292505050565b91508682600184516103769190611e7a565b8151811061038657610386611dfa565b602002602001015110156103f05760405163240bf61760e11b815260206004820152602560248201527f446578526f757465723a20494e53554646494349454e545f4f55545055545f416044820152641353d5539560da1b60648201526084015b60405180910390fd5b6105198686600081811061040657610406611dfa565b905060200201602081019061041b9190611e10565b337f00000000000000000000000000000000000000000000000000000000000000006001600160a01b031663e6a439058a8a600081811061045e5761045e611dfa565b90506020020160208101906104739190611e10565b8b8b600181811061048657610486611dfa565b905060200201602081019061049b9190611e10565b6040518363ffffffff1660e01b81526004016104b8929190611e2d565b602060405180830381865afa1580156104d5573d6000803e3d6000fd5b505050506040513d601f19601f820116820180604052508101906104f99190611e47565b8560008151811061050c5761050c611dfa565b6020026020010151610f61565b61055882878780806020026020016040519081016040528093929190818152602001838360200280828437600092019190915250899250611102915050565b509695505050505050565b60006101ea84848461137d565b6060814281101561059457604051630407b05b60e31b815260040160405180910390fd5b6106ae7f00000000000000000000000000000000000000000000000000000000000000006001600160a01b031663e6a43905888860008181106105d9576105d9611dfa565b90506020020160208101906105ee9190611e10565b8989600181811061060157610601611dfa565b90506020020160208101906106169190611e10565b6040518363ffffffff1660e01b8152600401610633929190611e2d565b602060405180830381865afa158015610650573d6000803e3d6000fd5b505050506040513d601f19601f820116820180604052508101906106749190611e47565b89888880806020026020016040519081016040528093929190818152602001838360200280828437600092019190915250610c6392505050565b915086826000815181106106c4576106c4611dfa565b602002602001015111156103f05760405163e1b0da4f60e01b815260040160405180910390fd5b60006101ea84848461145c565b600080824281101561071d57604051630407b05b60e31b815260040160405180910390fd5b6001600160a01b03851661074457604051631fadb98760e11b81526004016103e790611e91565b60405163e6a4390560e01b81526000906001600160a01b037f0000000000000000000000000000000000000000000000000000000000000000169063e6a4390590610795908e908e90600401611e2d565b602060405180830381865afa1580156107b2573d6000803e3d6000fd5b505050506040513d601f19601f820116820180604052508101906107d69190611e47565b6040516323b872dd60e01b81523360048201526001600160a01b03821660248201819052604482018c90529192506323b872dd906064016020604051808303816000875af115801561082c573d6000803e3d6000fd5b505050506040513d601f19601f820116820180604052508101906108509190611ed2565b5060405163226bf2d160e21b81526001600160a01b03878116600483015260009182918416906389afcb449060240160408051808303816000875af115801561089d573d6000803e3d6000fd5b505050506040513d601f19601f820116820180604052508101906108c19190611ef4565b9150915060006108f27f00000000000000000000000000000000000000000000000000000000000000008f8f6114ee565b509050806001600160a01b03168e6001600160a01b031614610915578183610918565b82825b90975095508a87101561096e5760405163240bf61760e11b815260206004820181905260248201527f446578526f757465723a20494e53554646494349454e545f415f414d4f554e5460448201526064016103e7565b898610156109bf5760405163240bf61760e11b815260206004820181905260248201527f446578526f757465723a20494e53554646494349454e545f425f414d4f554e5460448201526064016103e7565b505050505097509795505050505050565b606061021f7f00000000000000000000000000000000000000000000000000000000000000008484610df2565b60008060008342811015610a2457604051630407b05b60e31b815260040160405180910390fd5b6001600160a01b038616610a4b57604051631fadb98760e11b81526004016103e790611e91565b610a598c8c8c8c8c8c611717565b809450819550505060007f00000000000000000000000000000000000000000000000000000000000000006001600160a01b031663e6a439058e8e6040518363ffffffff1660e01b8152600401610ab1929190611e2d565b602060405180830381865afa158015610ace573d6000803e3d6000fd5b505050506040513d601f19601f82011682018060405250810190610af29190611e47565b9050610b008d338388610f61565b610b0c8c338387610f61565b6040516335313c2160e11b81526001600160a01b038881166004830152821690636a627842906024016020604051808303816000875af1158015610b54573d6000803e3d6000fd5b505050506040513d601f19601f82011682018060405250810190610b789190611f18565b92505050985098509895505050505050565b6000808411610be95760405162461bcd60e51b815260206004820152602560248201527f4465784c6962726172793a20494e53554646494349454e545f494e5055545f416044820152641353d5539560da1b60648201526084016103e7565b600083118015610bf95750600082115b610c155760405162461bcd60e51b81526004016103e790611f31565b6000610c23856103e5611f73565b90506000610c318483611f73565b9050600082610c42876103e8611f73565b610c4c9190611f92565b9050610c588183611faa565b979650505050505050565b80516060906002811015610cb45760405162461bcd60e51b8152602060048201526018602482015277088caf098d2c4e4c2e4f27440929cac82989288bea082a8960431b60448201526064016103e7565b8067ffffffffffffffff811115610ccd57610ccd611b17565b604051908082528060200260200182016040528015610cf6578160200160208202803683370190505b509150838260018451610d099190611e7a565b81518110610d1957610d19611dfa565b60209081029190910101526000610d31600183611e7a565b90505b8015610de957600080610d848887610d4d600187611e7a565b81518110610d5d57610d5d611dfa565b6020026020010151888681518110610d7757610d77611dfa565b60200260200101516119c9565b91509150610dac858481518110610d9d57610d9d611dfa565b6020026020010151838361137d565b85610db8600186611e7a565b81518110610dc857610dc8611dfa565b60200260200101818152505050508080610de190611fcc565b915050610d34565b50509392505050565b80516060906002811015610e435760405162461bcd60e51b8152602060048201526018602482015277088caf098d2c4e4c2e4f27440929cac82989288bea082a8960431b60448201526064016103e7565b8067ffffffffffffffff811115610e5c57610e5c611b17565b604051908082528060200260200182016040528015610e85578160200160208202803683370190505b5091508382600081518110610e9c57610e9c611dfa565b60200260200101818152505060005b610eb6600183611e7a565b811015610de957600080610efc88878581518110610ed657610ed6611dfa565b602002602001015188866001610eec9190611f92565b81518110610d7757610d77611dfa565b91509150610f24858481518110610f1557610f15611dfa565b60200260200101518383610b8a565b85610f30856001611f92565b81518110610f4057610f40611dfa565b60200260200101818152505050508080610f5990611fe3565b915050610eab565b600080856001600160a01b03166040518060600160405280602581526020016121186025913980516020909101206040516001600160a01b038089166024830152871660448201526064810186905260840160408051601f198184030181529181526020820180516001600160e01b03166001600160e01b0319909416939093179092529051610ff1919061202e565b6000604051808303816000865af19150503d806000811461102e576040519150601f19603f3d011682016040523d82523d6000602084013e611033565b606091505b5091509150816110855760405162461bcd60e51b815260206004820181905260248201527f5472617366657248656c7065723a2073756363657373206973206661696c656460448201526064016103e7565b805115806110a25750808060200190518101906110a29190611ed2565b6110fa5760405162461bcd60e51b8152602060048201526024808201527f5472616e7366657248656c7065723a205452414e534645525f46524f4d5f46416044820152631253115160e21b60648201526084016103e7565b505050505050565b6001600160a01b03811661115957604051631fadb98760e11b815260206004820152601f60248201527f446578526f757465723a20535741505f544f5f5a45524f5f414444524553530060448201526064016103e7565b60006111ba7f00000000000000000000000000000000000000000000000000000000000000008460008151811061119257611192611dfa565b6020026020010151856001815181106111ad576111ad611dfa565b60200260200101516114ee565b5090506000846001815181106111d2576111d2611dfa565b60200260200101519050600080836001600160a01b0316866000815181106111fc576111fc611dfa565b60200260200101516001600160a01b03161461121a5782600061121e565b6000835b915091507f00000000000000000000000000000000000000000000000000000000000000006001600160a01b031663e6a439058760008151811061126457611264611dfa565b60200260200101518860018151811061127f5761127f611dfa565b60200260200101516040518363ffffffff1660e01b81526004016112a4929190611e2d565b602060405180830381865afa1580156112c1573d6000803e3d6000fd5b505050506040513d601f19601f820116820180604052508101906112e59190611e47565b6001600160a01b031663022c0d9f83838860006040519080825280601f01601f191660200182016040528015611322576020820181803683370190505b506040518563ffffffff1660e01b8152600401611342949392919061204a565b600060405180830381600087803b15801561135c57600080fd5b505af1158015611370573d6000803e3d6000fd5b5050505050505050505050565b60008084116113dd5760405162461bcd60e51b815260206004820152602660248201527f4465784c6962726172793a20494e53554646494349454e545f4f55545055545f604482015265105353d5539560d21b60648201526084016103e7565b6000831180156113ed5750600082115b6114095760405162461bcd60e51b81526004016103e790611f31565b60006114158585611f73565b611421906103e8611f73565b9050600061142f8685611e7a565b61143b906103e5611f73565b90506114478183611faa565b611452906001611f92565b9695505050505050565b60008084116114ad5760405162461bcd60e51b815260206004820152601f60248201527f4465784c6962726172793a20494e53554646494349454e545f414d4f554e540060448201526064016103e7565b6000831180156114bd5750600082115b6114d95760405162461bcd60e51b81526004016103e790611f31565b826114e48386611f73565b6101ea9190611faa565b6000806000805b866001600160a01b031663b6cf0d896040518163ffffffff1660e01b8152600401602060405180830381865afa158015611533573d6000803e3d6000fd5b505050506040513d601f19601f820116820180604052508101906115579190611f18565b81101561162d576040516330e121dd60e11b8152600481018290526000906001600160a01b038916906361c243ba90602401602060405180830381865afa1580156115a6573d6000803e3d6000fd5b505050506040513d601f19601f820116820180604052508101906115ca9190611e47565b9050806001600160a01b0316876001600160a01b031614156115f5578594508693506001925061161a565b806001600160a01b0316866001600160a01b0316141561161a57869450859350600192505b508061162581611fe3565b9150506114f5565b50836001600160a01b0316856001600160a01b031614156116905760405162461bcd60e51b815260206004820152601f60248201527f4465784c6962726172793a204944454e544943414c5f4144445245535345530060448201526064016103e7565b836001600160a01b0316856001600160a01b0316106116b05783856116b3565b84845b90935091506001600160a01b03831661170e5760405162461bcd60e51b815260206004820152601860248201527f4465784c6962726172793a205a45524f5f41444452455353000000000000000060448201526064016103e7565b50935093915050565b60405163e6a4390560e01b8152600090819081907f00000000000000000000000000000000000000000000000000000000000000006001600160a01b03169063e6a439059061176c908c908c90600401611e2d565b602060405180830381865afa158015611789573d6000803e3d6000fd5b505050506040513d601f19601f820116820180604052508101906117ad9190611e47565b6001600160a01b0316141561181457604051631fadb98760e11b815260206004820152602660248201527f4572726f72203a204e6f7420457869737420506169722e20746f6b656e413c3e6044820152653a37b5b2b72160d11b60648201526084016103e7565b6000806118b07f00000000000000000000000000000000000000000000000000000000000000006001600160a01b031663e6a439058c8c6040518363ffffffff1660e01b8152600401611868929190611e2d565b602060405180830381865afa158015611885573d6000803e3d6000fd5b505050506040513d601f19601f820116820180604052508101906118a99190611e47565b8b8b6119c9565b915091508160001480156118c2575080155b156118d2578793508692506119bc565b60006118df89848461145c565b905087811161194457858110156119395760405163240bf61760e11b815260206004820181905260248201527f446578526f757465723a20494e53554646494349454e545f425f414d4f554e5460448201526064016103e7565b8894509250826119ba565b600061195189848661145c565b9050898111156119635761196361209a565b878110156119b45760405163240bf61760e11b815260206004820181905260248201527f446578526f757465723a20494e53554646494349454e545f415f414d4f554e5460448201526064016103e7565b94508793505b505b5050965096945050505050565b6000806000611a3a866001600160a01b031663c45a01556040518163ffffffff1660e01b8152600401602060405180830381865afa158015611a0f573d6000803e3d6000fd5b505050506040513d601f19601f82011682018060405250810190611a339190611e47565b86866114ee565b509050600080876001600160a01b0316630902f1ac6040518163ffffffff1660e01b8152600401606060405180830381865afa158015611a7e573d6000803e3d6000fd5b505050506040513d601f19601f82011682018060405250810190611aa291906120c7565b506001600160701b031691506001600160701b03169150826001600160a01b0316876001600160a01b031614611ad9578082611adc565b81815b90999098509650505050505050565b600080600060608486031215611b0057600080fd5b505081359360208301359350604090920135919050565b634e487b7160e01b600052604160045260246000fd5b6001600160a01b0381168114611b4257600080fd5b50565b8035611b5081611b2d565b919050565b60008060408385031215611b6857600080fd5b8235915060208084013567ffffffffffffffff80821115611b8857600080fd5b818601915086601f830112611b9c57600080fd5b813581811115611bae57611bae611b17565b8060051b604051601f19603f83011681018181108582111715611bd357611bd3611b17565b604052918252848201925083810185019189831115611bf157600080fd5b938501935b82851015611c1657611c0785611b45565b84529385019392850192611bf6565b8096505050505050509250929050565b6020808252825182820181905260009190848201906040850190845b81811015611c5e57835183529284019291840191600101611c42565b50909695505050505050565b60008060008060008060a08789031215611c8357600080fd5b8635955060208701359450604087013567ffffffffffffffff80821115611ca957600080fd5b818901915089601f830112611cbd57600080fd5b813581811115611ccc57600080fd5b8a60208260051b8501011115611ce157600080fd5b602083019650809550505050611cf960608801611b45565b9150608087013590509295509295509295565b600080600080600080600060e0888a031215611d2757600080fd5b8735611d3281611b2d565b96506020880135611d4281611b2d565b955060408801359450606088013593506080880135925060a0880135611d6781611b2d565b8092505060c0880135905092959891949750929550565b600080600080600080600080610100898b031215611d9b57600080fd5b8835611da681611b2d565b97506020890135611db681611b2d565b965060408901359550606089013594506080890135935060a0890135925060c0890135611de281611b2d565b8092505060e089013590509295985092959890939650565b634e487b7160e01b600052603260045260246000fd5b600060208284031215611e2257600080fd5b813561021f81611b2d565b6001600160a01b0392831681529116602082015260400190565b600060208284031215611e5957600080fd5b815161021f81611b2d565b634e487b7160e01b600052601160045260246000fd5b600082821015611e8c57611e8c611e64565b500390565b60208082526021908201527f446578526f757465723a20524543495049454e545f5a45524f5f4144445245536040820152605360f81b606082015260800190565b600060208284031215611ee457600080fd5b8151801515811461021f57600080fd5b60008060408385031215611f0757600080fd5b505080516020909101519092909150565b600060208284031215611f2a57600080fd5b5051919050565b60208082526022908201527f4465784c6962726172793a20494e53554646494349454e545f4c495155494449604082015261545960f01b606082015260800190565b6000816000190483118215151615611f8d57611f8d611e64565b500290565b60008219821115611fa557611fa5611e64565b500190565b600082611fc757634e487b7160e01b600052601260045260246000fd5b500490565b600081611fdb57611fdb611e64565b506000190190565b6000600019821415611ff757611ff7611e64565b5060010190565b60005b83811015612019578181015183820152602001612001565b83811115612028576000848401525b50505050565b60008251612040818460208701611ffe565b9190910192915050565b84815283602082015260018060a01b038316604082015260806060820152600082518060808401526120838160a0850160208701611ffe565b601f01601f19169190910160a00195945050505050565b634e487b7160e01b600052600160045260246000fd5b80516001600160701b0381168114611b5057600080fd5b6000806000606084860312156120dc57600080fd5b6120e5846120b0565b92506120f3602085016120b0565b9150604084015163ffffffff8116811461210c57600080fd5b80915050925092509256fe7472616e7366657246726f6d28616464726573732c616464726573732c75696e7432353629a26469706673582212208707526315edc697227d5a49642a6f62522a627f02c0b23f1c4095be75b63a0164736f6c634300080c0033",
    "sourcePath": "/Users/kang1027/klaytn/klaytn-dex-contracts/contracts/swap/DexRouter.sol",
    "compiler": {
        "name": "solc",
        "version": "0.8.12+commit.f00d7308"
    },
    "functionHashes": {
        "addLiquidity(address,address,uint256,uint256,uint256,uint256,address,uint256)": "e8e33700",
        "factory()": "c45a0155",
        "getAmountIn(uint256,uint256,uint256)": "85f8c259",
        "getAmountOut(uint256,uint256,uint256)": "054d50d4",
        "getAmountsIn(uint256,address[])": "1f00ca74",
        "getAmountsOut(uint256,address[])": "d06ca61f",
        "quote(uint256,uint256,uint256)": "ad615dec",
        "removeLiquidity(address,address,uint256,uint256,uint256,address,uint256)": "baa2abde",
        "swapExactTokensForTokens(uint256,uint256,address[],address,uint256)": "38ed1739",
        "swapTokensForExactTokens(uint256,uint256,address[],address,uint256)": "8803dbee"
    },
    "gasEstimates": {
        "creation": {
            "codeDepositCost": "1712400",
            "executionCost": "infinite",
            "totalCost": "infinite"
        },
        "external": {
            "addLiquidity(address,address,uint256,uint256,uint256,uint256,address,uint256)": "infinite",
            "factory()": "infinite",
            "getAmountIn(uint256,uint256,uint256)": "infinite",
            "getAmountOut(uint256,uint256,uint256)": "infinite",
            "getAmountsIn(uint256,address[])": "infinite",
            "getAmountsOut(uint256,address[])": "infinite",
            "quote(uint256,uint256,uint256)": "infinite",
            "removeLiquidity(address,address,uint256,uint256,uint256,address,uint256)": "infinite",
            "swapExactTokensForTokens(uint256,uint256,address[],address,uint256)": "infinite",
            "swapTokensForExactTokens(uint256,uint256,address[],address,uint256)": "infinite"
        },
        "internal": {
            "_addLiquidity(address,address,uint256,uint256,uint256,uint256)": "infinite",
            "_swap(uint256[] memory,address[] memory,address)": "infinite"
        }
    }
}