{
    "contractName": "DexRouter",
    "abi": [
        {
            "inputs": [
                {
                    "internalType": "address",
                    "name": "_factory",
                    "type": "address"
                },
                {
                    "internalType": "address",
                    "name": "_tokenAddress",
                    "type": "address"
                }
            ],
            "stateMutability": "nonpayable",
            "type": "constructor"
        },
        {
            "inputs": [],
            "name": "ExcessiveInputAmount",
            "type": "error"
        },
        {
            "inputs": [],
            "name": "Expired",
            "type": "error"
        },
        {
            "inputs": [
                {
                    "internalType": "string",
                    "name": "",
                    "type": "string"
                }
            ],
            "name": "InsufficientAmount",
            "type": "error"
        },
        {
            "inputs": [
                {
                    "internalType": "string",
                    "name": "",
                    "type": "string"
                }
            ],
            "name": "InvalidAddressParameters",
            "type": "error"
        },
        {
            "inputs": [],
            "name": "InvalidPath",
            "type": "error"
        },
        {
            "anonymous": false,
            "inputs": [
                {
                    "indexed": false,
                    "internalType": "string",
                    "name": "message",
                    "type": "string"
                }
            ],
            "name": "LogMessage",
            "type": "event"
        },
        {
            "inputs": [],
            "name": "WKLAY",
            "outputs": [
                {
                    "internalType": "address",
                    "name": "",
                    "type": "address"
                }
            ],
            "stateMutability": "view",
            "type": "function"
        },
        {
            "inputs": [
                {
                    "internalType": "address",
                    "name": "tokenA",
                    "type": "address"
                },
                {
                    "internalType": "address",
                    "name": "tokenB",
                    "type": "address"
                },
                {
                    "internalType": "uint256",
                    "name": "amountADesired",
                    "type": "uint256"
                },
                {
                    "internalType": "uint256",
                    "name": "amountBDesired",
                    "type": "uint256"
                },
                {
                    "internalType": "uint256",
                    "name": "amountAMin",
                    "type": "uint256"
                },
                {
                    "internalType": "uint256",
                    "name": "amountBMin",
                    "type": "uint256"
                },
                {
                    "internalType": "address",
                    "name": "to",
                    "type": "address"
                },
                {
                    "internalType": "uint256",
                    "name": "deadline",
                    "type": "uint256"
                }
            ],
            "name": "addLiquidity",
            "outputs": [
                {
                    "internalType": "uint256",
                    "name": "amountA",
                    "type": "uint256"
                },
                {
                    "internalType": "uint256",
                    "name": "amountB",
                    "type": "uint256"
                },
                {
                    "internalType": "uint256",
                    "name": "liquidity",
                    "type": "uint256"
                }
            ],
            "stateMutability": "nonpayable",
            "type": "function"
        },
        {
            "inputs": [
                {
                    "internalType": "address",
                    "name": "token",
                    "type": "address"
                },
                {
                    "internalType": "uint256",
                    "name": "amountTokenDesired",
                    "type": "uint256"
                },
                {
                    "internalType": "uint256",
                    "name": "amountTokenMin",
                    "type": "uint256"
                },
                {
                    "internalType": "uint256",
                    "name": "amountKLAYMin",
                    "type": "uint256"
                },
                {
                    "internalType": "address",
                    "name": "to",
                    "type": "address"
                },
                {
                    "internalType": "uint256",
                    "name": "deadline",
                    "type": "uint256"
                }
            ],
            "name": "addLiquidityKLAY",
            "outputs": [
                {
                    "internalType": "uint256",
                    "name": "amountToken",
                    "type": "uint256"
                },
                {
                    "internalType": "uint256",
                    "name": "amountKLAY",
                    "type": "uint256"
                },
                {
                    "internalType": "uint256",
                    "name": "liquidity",
                    "type": "uint256"
                }
            ],
            "stateMutability": "payable",
            "type": "function"
        },
        {
            "inputs": [],
            "name": "factory",
            "outputs": [
                {
                    "internalType": "address",
                    "name": "",
                    "type": "address"
                }
            ],
            "stateMutability": "view",
            "type": "function"
        },
        {
            "inputs": [
                {
                    "internalType": "uint256",
                    "name": "amountOut",
                    "type": "uint256"
                },
                {
                    "internalType": "uint256",
                    "name": "reserveIn",
                    "type": "uint256"
                },
                {
                    "internalType": "uint256",
                    "name": "reserveOut",
                    "type": "uint256"
                }
            ],
            "name": "getAmountIn",
            "outputs": [
                {
                    "internalType": "uint256",
                    "name": "amountIn",
                    "type": "uint256"
                }
            ],
            "stateMutability": "pure",
            "type": "function"
        },
        {
            "inputs": [
                {
                    "internalType": "uint256",
                    "name": "amountIn",
                    "type": "uint256"
                },
                {
                    "internalType": "uint256",
                    "name": "reserveIn",
                    "type": "uint256"
                },
                {
                    "internalType": "uint256",
                    "name": "reserveOut",
                    "type": "uint256"
                }
            ],
            "name": "getAmountOut",
            "outputs": [
                {
                    "internalType": "uint256",
                    "name": "amountOut",
                    "type": "uint256"
                }
            ],
            "stateMutability": "pure",
            "type": "function"
        },
        {
            "inputs": [
                {
                    "internalType": "uint256",
                    "name": "amountOut",
                    "type": "uint256"
                },
                {
                    "internalType": "address[]",
                    "name": "path",
                    "type": "address[]"
                }
            ],
            "name": "getAmountsIn",
            "outputs": [
                {
                    "internalType": "uint256[]",
                    "name": "amounts",
                    "type": "uint256[]"
                }
            ],
            "stateMutability": "view",
            "type": "function"
        },
        {
            "inputs": [
                {
                    "internalType": "uint256",
                    "name": "amountIn",
                    "type": "uint256"
                },
                {
                    "internalType": "address[]",
                    "name": "path",
                    "type": "address[]"
                }
            ],
            "name": "getAmountsOut",
            "outputs": [
                {
                    "internalType": "uint256[]",
                    "name": "amounts",
                    "type": "uint256[]"
                }
            ],
            "stateMutability": "view",
            "type": "function"
        },
        {
            "inputs": [],
            "name": "getFactoryStatus",
            "outputs": [
                {
                    "internalType": "string",
                    "name": "value",
                    "type": "string"
                }
            ],
            "stateMutability": "nonpayable",
            "type": "function"
        },
        {
            "inputs": [
                {
                    "internalType": "uint256",
                    "name": "amountA",
                    "type": "uint256"
                },
                {
                    "internalType": "uint256",
                    "name": "reserveA",
                    "type": "uint256"
                },
                {
                    "internalType": "uint256",
                    "name": "reserveB",
                    "type": "uint256"
                }
            ],
            "name": "quote",
            "outputs": [
                {
                    "internalType": "uint256",
                    "name": "amountB",
                    "type": "uint256"
                }
            ],
            "stateMutability": "pure",
            "type": "function"
        },
        {
            "inputs": [
                {
                    "internalType": "address",
                    "name": "tokenA",
                    "type": "address"
                },
                {
                    "internalType": "address",
                    "name": "tokenB",
                    "type": "address"
                },
                {
                    "internalType": "uint256",
                    "name": "liquidity",
                    "type": "uint256"
                },
                {
                    "internalType": "uint256",
                    "name": "amountAMin",
                    "type": "uint256"
                },
                {
                    "internalType": "uint256",
                    "name": "amountBMin",
                    "type": "uint256"
                },
                {
                    "internalType": "address",
                    "name": "to",
                    "type": "address"
                },
                {
                    "internalType": "uint256",
                    "name": "deadline",
                    "type": "uint256"
                }
            ],
            "name": "removeLiquidity",
            "outputs": [
                {
                    "internalType": "uint256",
                    "name": "amountA",
                    "type": "uint256"
                },
                {
                    "internalType": "uint256",
                    "name": "amountB",
                    "type": "uint256"
                }
            ],
            "stateMutability": "nonpayable",
            "type": "function"
        },
        {
            "inputs": [
                {
                    "internalType": "address",
                    "name": "token",
                    "type": "address"
                },
                {
                    "internalType": "uint256",
                    "name": "liquidity",
                    "type": "uint256"
                },
                {
                    "internalType": "uint256",
                    "name": "amountTokenMin",
                    "type": "uint256"
                },
                {
                    "internalType": "uint256",
                    "name": "amountKLAYMin",
                    "type": "uint256"
                },
                {
                    "internalType": "address",
                    "name": "to",
                    "type": "address"
                },
                {
                    "internalType": "uint256",
                    "name": "deadline",
                    "type": "uint256"
                }
            ],
            "name": "removeLiquidityKLAY",
            "outputs": [
                {
                    "internalType": "uint256",
                    "name": "amountToken",
                    "type": "uint256"
                },
                {
                    "internalType": "uint256",
                    "name": "amountKLAY",
                    "type": "uint256"
                }
            ],
            "stateMutability": "nonpayable",
            "type": "function"
        },
        {
            "inputs": [
                {
                    "internalType": "address",
                    "name": "token",
                    "type": "address"
                },
                {
                    "internalType": "uint256",
                    "name": "liquidity",
                    "type": "uint256"
                },
                {
                    "internalType": "uint256",
                    "name": "amountTokenMin",
                    "type": "uint256"
                },
                {
                    "internalType": "uint256",
                    "name": "amountKLAYMin",
                    "type": "uint256"
                },
                {
                    "internalType": "address",
                    "name": "to",
                    "type": "address"
                },
                {
                    "internalType": "uint256",
                    "name": "deadline",
                    "type": "uint256"
                }
            ],
            "name": "removeLiquidityKLAYSupportingFeeOnTransferTokens",
            "outputs": [
                {
                    "internalType": "uint256",
                    "name": "amountKLAY",
                    "type": "uint256"
                }
            ],
            "stateMutability": "nonpayable",
            "type": "function"
        },
        {
            "inputs": [
                {
                    "internalType": "address",
                    "name": "token",
                    "type": "address"
                },
                {
                    "internalType": "uint256",
                    "name": "liquidity",
                    "type": "uint256"
                },
                {
                    "internalType": "uint256",
                    "name": "amountTokenMin",
                    "type": "uint256"
                },
                {
                    "internalType": "uint256",
                    "name": "amountKLAYMin",
                    "type": "uint256"
                },
                {
                    "internalType": "address",
                    "name": "to",
                    "type": "address"
                },
                {
                    "internalType": "uint256",
                    "name": "deadline",
                    "type": "uint256"
                },
                {
                    "internalType": "bool",
                    "name": "approveMax",
                    "type": "bool"
                },
                {
                    "internalType": "uint8",
                    "name": "v",
                    "type": "uint8"
                },
                {
                    "internalType": "bytes32",
                    "name": "r",
                    "type": "bytes32"
                },
                {
                    "internalType": "bytes32",
                    "name": "s",
                    "type": "bytes32"
                }
            ],
            "name": "removeLiquidityKLAYWithPermit",
            "outputs": [
                {
                    "internalType": "uint256",
                    "name": "amountToken",
                    "type": "uint256"
                },
                {
                    "internalType": "uint256",
                    "name": "amountKLAY",
                    "type": "uint256"
                }
            ],
            "stateMutability": "nonpayable",
            "type": "function"
        },
        {
            "inputs": [
                {
                    "internalType": "address",
                    "name": "token",
                    "type": "address"
                },
                {
                    "internalType": "uint256",
                    "name": "liquidity",
                    "type": "uint256"
                },
                {
                    "internalType": "uint256",
                    "name": "amountTokenMin",
                    "type": "uint256"
                },
                {
                    "internalType": "uint256",
                    "name": "amountKLAYMin",
                    "type": "uint256"
                },
                {
                    "internalType": "address",
                    "name": "to",
                    "type": "address"
                },
                {
                    "internalType": "uint256",
                    "name": "deadline",
                    "type": "uint256"
                },
                {
                    "internalType": "bool",
                    "name": "approveMax",
                    "type": "bool"
                },
                {
                    "internalType": "uint8",
                    "name": "v",
                    "type": "uint8"
                },
                {
                    "internalType": "bytes32",
                    "name": "r",
                    "type": "bytes32"
                },
                {
                    "internalType": "bytes32",
                    "name": "s",
                    "type": "bytes32"
                }
            ],
            "name": "removeLiquidityKLAYWithPermitSupportingFeeOnTransferTokens",
            "outputs": [
                {
                    "internalType": "uint256",
                    "name": "amountKLAY",
                    "type": "uint256"
                }
            ],
            "stateMutability": "nonpayable",
            "type": "function"
        },
        {
            "inputs": [
                {
                    "internalType": "address",
                    "name": "tokenA",
                    "type": "address"
                },
                {
                    "internalType": "address",
                    "name": "tokenB",
                    "type": "address"
                },
                {
                    "internalType": "uint256",
                    "name": "liquidity",
                    "type": "uint256"
                },
                {
                    "internalType": "uint256",
                    "name": "amountAMin",
                    "type": "uint256"
                },
                {
                    "internalType": "uint256",
                    "name": "amountBMin",
                    "type": "uint256"
                },
                {
                    "internalType": "address",
                    "name": "to",
                    "type": "address"
                },
                {
                    "internalType": "uint256",
                    "name": "deadline",
                    "type": "uint256"
                },
                {
                    "internalType": "bool",
                    "name": "approveMax",
                    "type": "bool"
                },
                {
                    "internalType": "uint8",
                    "name": "v",
                    "type": "uint8"
                },
                {
                    "internalType": "bytes32",
                    "name": "r",
                    "type": "bytes32"
                },
                {
                    "internalType": "bytes32",
                    "name": "s",
                    "type": "bytes32"
                }
            ],
            "name": "removeLiquidityWithPermit",
            "outputs": [
                {
                    "internalType": "uint256",
                    "name": "amountA",
                    "type": "uint256"
                },
                {
                    "internalType": "uint256",
                    "name": "amountB",
                    "type": "uint256"
                }
            ],
            "stateMutability": "nonpayable",
            "type": "function"
        },
        {
            "inputs": [
                {
                    "internalType": "uint256",
                    "name": "amountOutMin",
                    "type": "uint256"
                },
                {
                    "internalType": "address[]",
                    "name": "path",
                    "type": "address[]"
                },
                {
                    "internalType": "address",
                    "name": "to",
                    "type": "address"
                },
                {
                    "internalType": "uint256",
                    "name": "deadline",
                    "type": "uint256"
                }
            ],
            "name": "swapExactKLAYForTokens",
            "outputs": [
                {
                    "internalType": "uint256[]",
                    "name": "amounts",
                    "type": "uint256[]"
                }
            ],
            "stateMutability": "payable",
            "type": "function"
        },
        {
            "inputs": [
                {
                    "internalType": "uint256",
                    "name": "amountOutMin",
                    "type": "uint256"
                },
                {
                    "internalType": "address[]",
                    "name": "path",
                    "type": "address[]"
                },
                {
                    "internalType": "address",
                    "name": "to",
                    "type": "address"
                },
                {
                    "internalType": "uint256",
                    "name": "deadline",
                    "type": "uint256"
                }
            ],
            "name": "swapExactKLAYForTokensSupportingFeeOnTransferTokens",
            "outputs": [],
            "stateMutability": "payable",
            "type": "function"
        },
        {
            "inputs": [
                {
                    "internalType": "uint256",
                    "name": "amountIn",
                    "type": "uint256"
                },
                {
                    "internalType": "uint256",
                    "name": "amountOutMin",
                    "type": "uint256"
                },
                {
                    "internalType": "address[]",
                    "name": "path",
                    "type": "address[]"
                },
                {
                    "internalType": "address",
                    "name": "to",
                    "type": "address"
                },
                {
                    "internalType": "uint256",
                    "name": "deadline",
                    "type": "uint256"
                }
            ],
            "name": "swapExactTokensForKLAY",
            "outputs": [
                {
                    "internalType": "uint256[]",
                    "name": "amounts",
                    "type": "uint256[]"
                }
            ],
            "stateMutability": "nonpayable",
            "type": "function"
        },
        {
            "inputs": [
                {
                    "internalType": "uint256",
                    "name": "amountIn",
                    "type": "uint256"
                },
                {
                    "internalType": "uint256",
                    "name": "amountOutMin",
                    "type": "uint256"
                },
                {
                    "internalType": "address[]",
                    "name": "path",
                    "type": "address[]"
                },
                {
                    "internalType": "address",
                    "name": "to",
                    "type": "address"
                },
                {
                    "internalType": "uint256",
                    "name": "deadline",
                    "type": "uint256"
                }
            ],
            "name": "swapExactTokensForKLAYSupportingFeeOnTransferTokens",
            "outputs": [],
            "stateMutability": "nonpayable",
            "type": "function"
        },
        {
            "inputs": [
                {
                    "internalType": "uint256",
                    "name": "amountIn",
                    "type": "uint256"
                },
                {
                    "internalType": "uint256",
                    "name": "amountOutMin",
                    "type": "uint256"
                },
                {
                    "internalType": "address[]",
                    "name": "path",
                    "type": "address[]"
                },
                {
                    "internalType": "address",
                    "name": "to",
                    "type": "address"
                },
                {
                    "internalType": "uint256",
                    "name": "deadline",
                    "type": "uint256"
                }
            ],
            "name": "swapExactTokensForTokens",
            "outputs": [
                {
                    "internalType": "uint256[]",
                    "name": "amounts",
                    "type": "uint256[]"
                }
            ],
            "stateMutability": "nonpayable",
            "type": "function"
        },
        {
            "inputs": [
                {
                    "internalType": "uint256",
                    "name": "amountIn",
                    "type": "uint256"
                },
                {
                    "internalType": "uint256",
                    "name": "amountOutMin",
                    "type": "uint256"
                },
                {
                    "internalType": "address[]",
                    "name": "path",
                    "type": "address[]"
                },
                {
                    "internalType": "address",
                    "name": "to",
                    "type": "address"
                },
                {
                    "internalType": "uint256",
                    "name": "deadline",
                    "type": "uint256"
                }
            ],
            "name": "swapExactTokensForTokensSupportingFeeOnTransferTokens",
            "outputs": [],
            "stateMutability": "nonpayable",
            "type": "function"
        },
        {
            "inputs": [
                {
                    "internalType": "uint256",
                    "name": "amountOut",
                    "type": "uint256"
                },
                {
                    "internalType": "address[]",
                    "name": "path",
                    "type": "address[]"
                },
                {
                    "internalType": "address",
                    "name": "to",
                    "type": "address"
                },
                {
                    "internalType": "uint256",
                    "name": "deadline",
                    "type": "uint256"
                }
            ],
            "name": "swapKLAYForExactTokens",
            "outputs": [
                {
                    "internalType": "uint256[]",
                    "name": "amounts",
                    "type": "uint256[]"
                }
            ],
            "stateMutability": "payable",
            "type": "function"
        },
        {
            "inputs": [
                {
                    "internalType": "uint256",
                    "name": "amountOut",
                    "type": "uint256"
                },
                {
                    "internalType": "uint256",
                    "name": "amountInMax",
                    "type": "uint256"
                },
                {
                    "internalType": "address[]",
                    "name": "path",
                    "type": "address[]"
                },
                {
                    "internalType": "address",
                    "name": "to",
                    "type": "address"
                },
                {
                    "internalType": "uint256",
                    "name": "deadline",
                    "type": "uint256"
                }
            ],
            "name": "swapTokensForExactKLAY",
            "outputs": [
                {
                    "internalType": "uint256[]",
                    "name": "amounts",
                    "type": "uint256[]"
                }
            ],
            "stateMutability": "nonpayable",
            "type": "function"
        },
        {
            "inputs": [
                {
                    "internalType": "uint256",
                    "name": "amountOut",
                    "type": "uint256"
                },
                {
                    "internalType": "uint256",
                    "name": "amountInMax",
                    "type": "uint256"
                },
                {
                    "internalType": "address[]",
                    "name": "path",
                    "type": "address[]"
                },
                {
                    "internalType": "address",
                    "name": "to",
                    "type": "address"
                },
                {
                    "internalType": "uint256",
                    "name": "deadline",
                    "type": "uint256"
                }
            ],
            "name": "swapTokensForExactTokens",
            "outputs": [
                {
                    "internalType": "uint256[]",
                    "name": "amounts",
                    "type": "uint256[]"
                }
            ],
            "stateMutability": "nonpayable",
            "type": "function"
        },
        {
            "stateMutability": "payable",
            "type": "receive"
        }
    ],
    "bytecode": "60c06040523480156200001157600080fd5b50604051620045873803806200458783398101604081905262000034916200011f565b6001600160a01b0382166200009157604051631fadb98760e11b815260206004820152601f60248201527f446578526f757465723a20464143544f52595f5a45524f5f414444524553530060448201526064015b60405180910390fd5b6001600160a01b038116620000ea57604051631fadb98760e11b815260206004820152601d60248201527f446578526f757465723a20574b4c41595f5a45524f5f41444452455353000000604482015260640162000088565b6001600160a01b039182166080521660a05262000157565b80516001600160a01b03811681146200011a57600080fd5b919050565b600080604083850312156200013357600080fd5b6200013e8362000102565b91506200014e6020840162000102565b90509250929050565b60805160a05161429e620002e96000396000818161017a015281816102750152818161055801528181610767015281816108900152818161091e01528181610c9301528181610ce201528181610d8801528181610ebf01528181610f6b015281816111f1015281816113670152818161152d01528181611641015281816116cf015281816118f001528181611a6401528181611aba01528181611aee01528181611b8301528181611cb601528181611d3401528181611da80152818161239a0152818161245201526124ea01526000818161048a015281816105360152818161063b01528181610672015281816107e30152818161095001528181610ad101528181610ba401528181610e310152818161126e01528181611471015281816115a9015281816117010152818161196d01528181611a9801528181611dda0152818161201e01528181612224015281816122b2015281816124c801528181612b9a01528181612bea015281816130fa015281816132a3015281816134bb0152818161355e01526135d5015261429e6000f3fe60806040526004361061016a5760003560e01c80638803dbee116100d1578063b46fec5b1161008a578063d06ca61f11610064578063d06ca61f146104ac578063e8e33700146104cc578063ec432014146104ec578063eca935e51461050c57600080fd5b8063b46fec5b14610445578063baa2abde14610458578063c45a01551461047857600080fd5b80638803dbee1461038257806390133605146103a257806396151139146103b557806398de2cd2146103d7578063ad615dec146103f7578063b216fe9b1461041757600080fd5b806338ed17391161012357806338ed1739146102c25780633c187a6b146102e25780635bff1aa8146103025780635c11d795146103225780636fe5f23f1461034257806385f8c2591461036257600080fd5b80630158a313146101ae578063054d50d4146101e85780631f00ca74146102165780632195995c14610243578063249502d7146102635780633022d3a8146102af57600080fd5b366101a957336001600160a01b037f000000000000000000000000000000000000000000000000000000000000000016146101a7576101a761395a565b005b600080fd5b3480156101ba57600080fd5b506101ce6101c93660046139b7565b61052c565b604080519283526020830191909152015b60405180910390f35b3480156101f457600080fd5b50610208610203366004613a4d565b61061f565b6040519081526020016101df565b34801561022257600080fd5b50610236610231366004613a8f565b610634565b6040516101df9190613b60565b34801561024f57600080fd5b506101ce61025e366004613ba4565b610668565b34801561026f57600080fd5b506102977f000000000000000000000000000000000000000000000000000000000000000081565b6040516001600160a01b0390911681526020016101df565b6102366102bd366004613c93565b610741565b3480156102ce57600080fd5b506102366102dd366004613cfa565b610aa8565b3480156102ee57600080fd5b506101ce6102fd366004613d6d565b610c68565b34801561030e57600080fd5b506101a761031d366004613cfa565b610d5c565b34801561032e57600080fd5b506101a761033d366004613cfa565b610fe3565b34801561034e57600080fd5b5061023661035d366004613cfa565b6111c3565b34801561036e57600080fd5b5061020861037d366004613a4d565b61143b565b34801561038e57600080fd5b5061023661039d366004613cfa565b611448565b6102366103b0366004613c93565b611507565b3480156103c157600080fd5b506103ca61185e565b6040516101df9190613e27565b3480156103e357600080fd5b506102366103f2366004613cfa565b6118c2565b34801561040357600080fd5b50610208610412366004613a4d565b611a03565b61042a610425366004613d6d565b611a10565b604080519384526020840192909252908201526060016101df565b6101a7610453366004613c93565b611c92565b34801561046457600080fd5b506101ce610473366004613e3a565b611fcb565b34801561048457600080fd5b506102977f000000000000000000000000000000000000000000000000000000000000000081565b3480156104b857600080fd5b506102366104c7366004613a8f565b61221d565b3480156104d857600080fd5b5061042a6104e7366004613eac565b61224a565b3480156104f857600080fd5b50610208610507366004613d6d565b612370565b34801561051857600080fd5b506102086105273660046139b7565b6124c0565b600080600061057c7f00000000000000000000000000000000000000000000000000000000000000008e7f00000000000000000000000000000000000000000000000000000000000000006125ad565b905060008761058b578c61058f565b6000195b60405163d505accf60e01b81529091506001600160a01b0383169063d505accf906105ca903390309086908f908e908e908e90600401613f28565b600060405180830381600087803b1580156105e457600080fd5b505af11580156105f8573d6000803e3d6000fd5b5050505061060a8e8e8e8e8e8e610c68565b909f909e509c50505050505050505050505050565b600061062c848484612686565b949350505050565b60606106617f0000000000000000000000000000000000000000000000000000000000000000848461275f565b9392505050565b60008060006106987f00000000000000000000000000000000000000000000000000000000000000008f8f6125ad565b90506000876106a7578c6106ab565b6000195b60405163d505accf60e01b81529091506001600160a01b0383169063d505accf906106e6903390309086908f908e908e908e90600401613f28565b600060405180830381600087803b15801561070057600080fd5b505af1158015610714573d6000803e3d6000fd5b505050506107278f8f8f8f8f8f8f611fcb565b809450819550505050509b509b9950505050505050505050565b6060814281101561076557604051630407b05b60e31b815260040160405180910390fd5b7f00000000000000000000000000000000000000000000000000000000000000006001600160a01b0316868660008181106107a2576107a2613f69565b90506020020160208101906107b79190613f7f565b6001600160a01b0316146107de576040516320db826760e01b815260040160405180910390fd5b61083c7f0000000000000000000000000000000000000000000000000000000000000000348888808060200260200160405190810160405280939291908181526020018383602002808284376000920191909152506128ee92505050565b915086826001845161084e9190613fb2565b8151811061085e5761085e613f69565b6020026020010151101561088e5760405163240bf61760e11b815260040161088590613fc9565b60405180910390fd5b7f00000000000000000000000000000000000000000000000000000000000000006001600160a01b031663d0e30db0836000815181106108d0576108d0613f69565b60200260200101516040518263ffffffff1660e01b81526004016000604051808303818588803b15801561090357600080fd5b505af1158015610917573d6000803e3d6000fd5b50505050507f00000000000000000000000000000000000000000000000000000000000000006001600160a01b031663a9059cbb6109c47f00000000000000000000000000000000000000000000000000000000000000008989600081811061098257610982613f69565b90506020020160208101906109979190613f7f565b8a8a60018181106109aa576109aa613f69565b90506020020160208101906109bf9190613f7f565b6125ad565b846000815181106109d7576109d7613f69565b60200260200101516040518363ffffffff1660e01b8152600401610a109291906001600160a01b03929092168252602082015260400190565b6020604051808303816000875af1158015610a2f573d6000803e3d6000fd5b505050506040513d601f19601f82011682018060405250810190610a53919061400e565b610a5f57610a5f61395a565b610a9e82878780806020026020016040519081016040528093929190818152602001838360200280828437600092019190915250899250612a5d915050565b5095945050505050565b60608142811015610acc57604051630407b05b60e31b815260040160405180910390fd5b610b2a7f0000000000000000000000000000000000000000000000000000000000000000898888808060200260200160405190810160405280939291908181526020018383602002808284376000920191909152506128ee92505050565b9150868260018451610b3c9190613fb2565b81518110610b4c57610b4c613f69565b60200260200101511015610b735760405163240bf61760e11b815260040161088590613fc9565b610c1e86866000818110610b8957610b89613f69565b9050602002016020810190610b9e9190613f7f565b33610bfe7f00000000000000000000000000000000000000000000000000000000000000008a8a6000818110610bd657610bd6613f69565b9050602002016020810190610beb9190613f7f565b8b8b60018181106109aa576109aa613f69565b85600081518110610c1157610c11613f69565b6020026020010151612cc0565b610c5d82878780806020026020016040519081016040528093929190818152602001838360200280828437600092019190915250899250612a5d915050565b509695505050505050565b6000808242811015610c8d57604051630407b05b60e31b815260040160405180910390fd5b610cbc897f00000000000000000000000000000000000000000000000000000000000000008a8a8a308a611fcb565b9093509150610ccc898685612e1c565b604051632e1a7d4d60e01b8152600481018390527f00000000000000000000000000000000000000000000000000000000000000006001600160a01b031690632e1a7d4d90602401600060405180830381600087803b158015610d2e57600080fd5b505af1158015610d42573d6000803e3d6000fd5b50505050610d508583612f60565b50965096945050505050565b8042811015610d7e57604051630407b05b60e31b815260040160405180910390fd5b6001600160a01b037f0000000000000000000000000000000000000000000000000000000000000000168585610db5600182613fb2565b818110610dc457610dc4613f69565b9050602002016020810190610dd99190613f7f565b6001600160a01b031614610e00576040516320db826760e01b815260040160405180910390fd5b610e6985856000818110610e1657610e16613f69565b9050602002016020810190610e2b9190613f7f565b33610e637f00000000000000000000000000000000000000000000000000000000000000008989600081811061098257610982613f69565b8a612cc0565b610ea785858080602002602001604051908101604052809392919081815260200183836020028082843760009201919091525030925061302e915050565b6040516370a0823160e01b81523060048201526000907f00000000000000000000000000000000000000000000000000000000000000006001600160a01b0316906370a0823190602401602060405180830381865afa158015610f0e573d6000803e3d6000fd5b505050506040513d601f19601f82011682018060405250810190610f32919061402b565b905086811015610f555760405163240bf61760e11b815260040161088590613fc9565b604051632e1a7d4d60e01b8152600481018290527f00000000000000000000000000000000000000000000000000000000000000006001600160a01b031690632e1a7d4d90602401600060405180830381600087803b158015610fb757600080fd5b505af1158015610fcb573d6000803e3d6000fd5b50505050610fd98482612f60565b5050505050505050565b804281101561100557604051630407b05b60e31b815260040160405180910390fd5b61101b85856000818110610e1657610e16613f69565b6000858561102a600182613fb2565b81811061103957611039613f69565b905060200201602081019061104e9190613f7f565b6040516370a0823160e01b81526001600160a01b03868116600483015291909116906370a0823190602401602060405180830381865afa158015611096573d6000803e3d6000fd5b505050506040513d601f19601f820116820180604052508101906110ba919061402b565b90506110fa86868080602002602001604051908101604052809392919081815260200183836020028082843760009201919091525088925061302e915050565b86818787611109600182613fb2565b81811061111857611118613f69565b905060200201602081019061112d9190613f7f565b6040516370a0823160e01b81526001600160a01b03888116600483015291909116906370a08231906024015b602060405180830381865afa158015611176573d6000803e3d6000fd5b505050506040513d601f19601f8201168201806040525081019061119a919061402b565b6111a49190613fb2565b1015610fd95760405163240bf61760e11b815260040161088590613fc9565b606081428110156111e757604051630407b05b60e31b815260040160405180910390fd5b6001600160a01b037f000000000000000000000000000000000000000000000000000000000000000016868661121e600182613fb2565b81811061122d5761122d613f69565b90506020020160208101906112429190613f7f565b6001600160a01b031614611269576040516320db826760e01b815260040160405180910390fd5b6112c77f0000000000000000000000000000000000000000000000000000000000000000898888808060200260200160405190810160405280939291908181526020018383602002808284376000920191909152506128ee92505050565b91508682600184516112d99190613fb2565b815181106112e9576112e9613f69565b602002602001015110156113105760405163240bf61760e11b815260040161088590613fc9565b61132686866000818110610b8957610b89613f69565b61136582878780806020026020016040519081016040528093929190818152602001838360200280828437600092019190915250309250612a5d915050565b7f00000000000000000000000000000000000000000000000000000000000000006001600160a01b0316632e1a7d4d83600185516113a39190613fb2565b815181106113b3576113b3613f69565b60200260200101516040518263ffffffff1660e01b81526004016113d991815260200190565b600060405180830381600087803b1580156113f357600080fd5b505af1158015611407573d6000803e3d6000fd5b50505050610c5d84836001855161141e9190613fb2565b8151811061142e5761142e613f69565b6020026020010151612f60565b600061062c84848461335f565b6060814281101561146c57604051630407b05b60e31b815260040160405180910390fd5b6114ca7f00000000000000000000000000000000000000000000000000000000000000008988888080602002602001604051908101604052809392919081815260200183836020028082843760009201919091525061275f92505050565b915086826000815181106114e0576114e0613f69565b60200260200101511115610b735760405163e1b0da4f60e01b815260040160405180910390fd5b6060814281101561152b57604051630407b05b60e31b815260040160405180910390fd5b7f00000000000000000000000000000000000000000000000000000000000000006001600160a01b03168686600081811061156857611568613f69565b905060200201602081019061157d9190613f7f565b6001600160a01b0316146115a4576040516320db826760e01b815260040160405180910390fd5b6116027f00000000000000000000000000000000000000000000000000000000000000008888888080602002602001604051908101604052809392919081815260200183836020028082843760009201919091525061275f92505050565b9150348260008151811061161857611618613f69565b6020026020010151111561163f5760405163e1b0da4f60e01b815260040160405180910390fd5b7f00000000000000000000000000000000000000000000000000000000000000006001600160a01b031663d0e30db08360008151811061168157611681613f69565b60200260200101516040518263ffffffff1660e01b81526004016000604051808303818588803b1580156116b457600080fd5b505af11580156116c8573d6000803e3d6000fd5b50505050507f00000000000000000000000000000000000000000000000000000000000000006001600160a01b031663a9059cbb6117337f00000000000000000000000000000000000000000000000000000000000000008989600081811061098257610982613f69565b8460008151811061174657611746613f69565b60200260200101516040518363ffffffff1660e01b815260040161177f9291906001600160a01b03929092168252602082015260400190565b6020604051808303816000875af115801561179e573d6000803e3d6000fd5b505050506040513d601f19601f820116820180604052508101906117c2919061400e565b6117ce576117ce61395a565b61180d82878780806020026020016040519081016040528093929190818152602001838360200280828437600092019190915250899250612a5d915050565b8160008151811061182057611820613f69565b6020026020010151341115610a9e57610a9e338360008151811061184657611846613f69565b6020026020010151346118599190613fb2565b612f60565b60606000807346af0503ccd1aa68eb0c4c768073eaa07e31bbe17354116dd60f968caf71637364120ca67c999b039d61189d82826064600a878061343e565b505060408051808201909152600381526211191960ea1b602082015295945050505050565b606081428110156118e657604051630407b05b60e31b815260040160405180910390fd5b6001600160a01b037f000000000000000000000000000000000000000000000000000000000000000016868661191d600182613fb2565b81811061192c5761192c613f69565b90506020020160208101906119419190613f7f565b6001600160a01b031614611968576040516320db826760e01b815260040160405180910390fd5b6119c67f00000000000000000000000000000000000000000000000000000000000000008988888080602002602001604051908101604052809392919081815260200183836020028082843760009201919091525061275f92505050565b915086826000815181106119dc576119dc613f69565b602002602001015111156113105760405163e1b0da4f60e01b815260040160405180910390fd5b600061062c848484613714565b60008060008342811015611a3757604051630407b05b60e31b815260040160405180910390fd5b6001600160a01b038616611a5e57604051631fadb98760e11b815260040161088590614044565b611a8c8a7f00000000000000000000000000000000000000000000000000000000000000008b348c8c61343e565b90945092506000611ade7f00000000000000000000000000000000000000000000000000000000000000008c7f00000000000000000000000000000000000000000000000000000000000000006125ad565b9050611aec8b338388612cc0565b7f00000000000000000000000000000000000000000000000000000000000000006001600160a01b031663d0e30db0856040518263ffffffff1660e01b81526004016000604051808303818588803b158015611b4757600080fd5b505af1158015611b5b573d6000803e3d6000fd5b505060405163a9059cbb60e01b81526001600160a01b038581166004830152602482018990527f000000000000000000000000000000000000000000000000000000000000000016935063a9059cbb925060440190506020604051808303816000875af1158015611bd0573d6000803e3d6000fd5b505050506040513d601f19601f82011682018060405250810190611bf4919061400e565b611c0057611c0061395a565b6040516335313c2160e11b81526001600160a01b038881166004830152821690636a627842906024016020604051808303816000875af1158015611c48573d6000803e3d6000fd5b505050506040513d601f19601f82011682018060405250810190611c6c919061402b565b925083341115611c8457611c84336118598634613fb2565b505096509650969350505050565b8042811015611cb457604051630407b05b60e31b815260040160405180910390fd5b7f00000000000000000000000000000000000000000000000000000000000000006001600160a01b031685856000818110611cf157611cf1613f69565b9050602002016020810190611d069190613f7f565b6001600160a01b031614611d2d576040516320db826760e01b815260040160405180910390fd5b60003490507f00000000000000000000000000000000000000000000000000000000000000006001600160a01b031663d0e30db0826040518263ffffffff1660e01b81526004016000604051808303818588803b158015611d8d57600080fd5b505af1158015611da1573d6000803e3d6000fd5b50505050507f00000000000000000000000000000000000000000000000000000000000000006001600160a01b031663a9059cbb611e0c7f00000000000000000000000000000000000000000000000000000000000000008989600081811061098257610982613f69565b6040516001600160e01b031960e084901b1681526001600160a01b039091166004820152602481018490526044016020604051808303816000875af1158015611e59573d6000803e3d6000fd5b505050506040513d601f19601f82011682018060405250810190611e7d919061400e565b611e8957611e8961395a565b60008686611e98600182613fb2565b818110611ea757611ea7613f69565b9050602002016020810190611ebc9190613f7f565b6040516370a0823160e01b81526001600160a01b03878116600483015291909116906370a0823190602401602060405180830381865afa158015611f04573d6000803e3d6000fd5b505050506040513d601f19601f82011682018060405250810190611f28919061402b565b9050611f6887878080602002602001604051908101604052809392919081815260200183836020028082843760009201919091525089925061302e915050565b87818888611f77600182613fb2565b818110611f8657611f86613f69565b9050602002016020810190611f9b9190613f7f565b6040516370a0823160e01b81526001600160a01b03898116600483015291909116906370a0823190602401611159565b6000808242811015611ff057604051630407b05b60e31b815260040160405180910390fd5b6001600160a01b03851661201757604051631fadb98760e11b815260040161088590614044565b60006120447f00000000000000000000000000000000000000000000000000000000000000008c8c6125ad565b6040516323b872dd60e01b81523360048201526001600160a01b03821660248201819052604482018c90529192506323b872dd906064016020604051808303816000875af115801561209a573d6000803e3d6000fd5b505050506040513d601f19601f820116820180604052508101906120be919061400e565b5060405163226bf2d160e21b81526001600160a01b03878116600483015260009182918416906389afcb449060240160408051808303816000875af115801561210b573d6000803e3d6000fd5b505050506040513d601f19601f8201168201806040525081019061212f9190614085565b91509150600061213f8e8e6137a6565b509050806001600160a01b03168e6001600160a01b031614612162578183612165565b82825b90975095508a8710156121bb5760405163240bf61760e11b815260206004820181905260248201527f446578526f757465723a20494e53554646494349454e545f415f414d4f554e546044820152606401610885565b8986101561220c5760405163240bf61760e11b815260206004820181905260248201527f446578526f757465723a20494e53554646494349454e545f425f414d4f554e546044820152606401610885565b505050505097509795505050505050565b60606106617f000000000000000000000000000000000000000000000000000000000000000084846128ee565b6000806000834281101561227157604051630407b05b60e31b815260040160405180910390fd5b6001600160a01b03861661229857604051631fadb98760e11b815260040161088590614044565b6122a68c8c8c8c8c8c61343e565b909450925060006122d87f00000000000000000000000000000000000000000000000000000000000000008e8e6125ad565b90506122e68d338388612cc0565b6122f28c338387612cc0565b6040516335313c2160e11b81526001600160a01b038881166004830152821690636a627842906024016020604051808303816000875af115801561233a573d6000803e3d6000fd5b505050506040513d601f19601f8201168201806040525081019061235e919061402b565b92505050985098509895505050505050565b6000814281101561239457604051630407b05b60e31b815260040160405180910390fd5b6123c3887f00000000000000000000000000000000000000000000000000000000000000008989893089611fcb565b6040516370a0823160e01b815230600482015290935061243c9150899086906001600160a01b038316906370a0823190602401602060405180830381865afa158015612413573d6000803e3d6000fd5b505050506040513d601f19601f82011682018060405250810190612437919061402b565b612e1c565b604051632e1a7d4d60e01b8152600481018390527f00000000000000000000000000000000000000000000000000000000000000006001600160a01b031690632e1a7d4d90602401600060405180830381600087803b15801561249e57600080fd5b505af11580156124b2573d6000803e3d6000fd5b50505050610c5d8483612f60565b60008061250e7f00000000000000000000000000000000000000000000000000000000000000008d7f00000000000000000000000000000000000000000000000000000000000000006125ad565b905060008661251d578b612521565b6000195b60405163d505accf60e01b81529091506001600160a01b0383169063d505accf9061255c903390309086908e908d908d908d90600401613f28565b600060405180830381600087803b15801561257657600080fd5b505af115801561258a573d6000803e3d6000fd5b5050505061259c8d8d8d8d8d8d612370565b9d9c50505050505050505050505050565b60008060006125bc85856137a6565b6040516bffffffffffffffffffffffff19606084811b8216602084015283901b16603482015291935091508690604801604051602081830303815290604052805190602001206040516020016126649291906001600160f81b0319815260609290921b6bffffffffffffffffffffffff1916600183015260158201527ff642c5ae86cfb4b6c9722ae01efc63d5e5b1c91b970fb76c62ebdaddc7aacd5e603582015260550190565b60408051601f1981840301815291905280516020909101209695505050505050565b60008084116126e55760405162461bcd60e51b815260206004820152602560248201527f4465784c6962726172793a20494e53554646494349454e545f494e5055545f416044820152641353d5539560da1b6064820152608401610885565b6000831180156126f55750600082115b6127115760405162461bcd60e51b8152600401610885906140a9565b600061271f856103e56140eb565b9050600061272d84836140eb565b905060008261273e876103e86140eb565b612748919061410a565b90506127548183614122565b979650505050505050565b805160609060028110156127b05760405162461bcd60e51b8152602060048201526018602482015277088caf098d2c4e4c2e4f27440929cac82989288bea082a8960431b6044820152606401610885565b8067ffffffffffffffff8111156127c9576127c9613a79565b6040519080825280602002602001820160405280156127f2578160200160208202803683370190505b5091508382600184516128059190613fb2565b8151811061281557612815613f69565b6020908102919091010152600061282d600183613fb2565b90505b80156128e5576000806128808887612849600187613fb2565b8151811061285957612859613f69565b602002602001015188868151811061287357612873613f69565b6020026020010151613890565b915091506128a885848151811061289957612899613f69565b6020026020010151838361335f565b856128b4600186613fb2565b815181106128c4576128c4613f69565b602002602001018181525050505080806128dd90614144565b915050612830565b50509392505050565b8051606090600281101561293f5760405162461bcd60e51b8152602060048201526018602482015277088caf098d2c4e4c2e4f27440929cac82989288bea082a8960431b6044820152606401610885565b8067ffffffffffffffff81111561295857612958613a79565b604051908082528060200260200182016040528015612981578160200160208202803683370190505b509150838260008151811061299857612998613f69565b60200260200101818152505060005b6129b2600183613fb2565b8110156128e5576000806129f8888785815181106129d2576129d2613f69565b6020026020010151888660016129e8919061410a565b8151811061287357612873613f69565b91509150612a20858481518110612a1157612a11613f69565b60200260200101518383612686565b85612a2c85600161410a565b81518110612a3c57612a3c613f69565b60200260200101818152505050508080612a559061415b565b9150506129a7565b6001600160a01b038116612ab457604051631fadb98760e11b815260206004820152601f60248201527f446578526f757465723a20535741505f544f5f5a45524f5f41444452455353006044820152606401610885565b600060018351612ac49190613fb2565b905060005b81811015612cb957600080858381518110612ae657612ae6613f69565b602002602001015186846001612afc919061410a565b81518110612b0c57612b0c613f69565b6020026020010151915091506000612b2483836137a6565b509050600088612b3586600161410a565b81518110612b4557612b45613f69565b60200260200101519050600080836001600160a01b0316866001600160a01b031614612b7357826000612b77565b6000835b90925090506000612b8960018a613fb2565b8810612b955789612be3565b612be37f0000000000000000000000000000000000000000000000000000000000000000878d612bc68c600261410a565b81518110612bd657612bd6613f69565b60200260200101516125ad565b9050612c107f000000000000000000000000000000000000000000000000000000000000000088886125ad565b6001600160a01b031663022c0d9f84848460006040519080825280601f01601f191660200182016040528015612c4d576020820181803683370190505b506040518563ffffffff1660e01b8152600401612c6d9493929190614176565b600060405180830381600087803b158015612c8757600080fd5b505af1158015612c9b573d6000803e3d6000fd5b50505050505050505050508080612cb19061415b565b915050612ac9565b5050505050565b600080856001600160a01b03166040518060600160405280602581526020016142446025913980516020909101206040516001600160a01b038089166024830152871660448201526064810186905260840160408051601f198184030181529181526020820180516001600160e01b03166001600160e01b0319909416939093179092529051612d5091906141a3565b6000604051808303816000865af19150503d8060008114612d8d576040519150601f19603f3d011682016040523d82523d6000602084013e612d92565b606091505b5091509150818015612dbc575080511580612dbc575080806020019051810190612dbc919061400e565b612e145760405162461bcd60e51b8152602060048201526024808201527f5472616e7366657248656c7065723a205452414e534645525f46524f4d5f46416044820152631253115160e21b6064820152608401610885565b505050505050565b604080518082018252601981527f7472616e7366657228616464726573732c75696e74323536290000000000000060209182015281516001600160a01b0385811660248301526044808301869052845180840390910181526064909201845291810180516001600160e01b031663a9059cbb60e01b17905291516000928392871691612ea891906141a3565b6000604051808303816000865af19150503d8060008114612ee5576040519150601f19603f3d011682016040523d82523d6000602084013e612eea565b606091505b5091509150818015612f14575080511580612f14575080806020019051810190612f14919061400e565b612cb95760405162461bcd60e51b815260206004820152601f60248201527f5472616e7366657248656c7065723a205452414e534645525f4641494c4544006044820152606401610885565b604080516000808252602082019092526001600160a01b038416908390604051612f8a91906141a3565b60006040518083038185875af1925050503d8060008114612fc7576040519150601f19603f3d011682016040523d82523d6000602084013e612fcc565b606091505b50509050806130295760405162461bcd60e51b8152602060048201526024808201527f5472616e7366657248656c7065723a204b4c41595f5452414e534645525f46416044820152631253115160e21b6064820152608401610885565b505050565b6001600160a01b03811661308557604051631fadb98760e11b815260206004820152601f60248201527f446578526f757465723a20535741505f544f5f5a45524f5f41444452455353006044820152606401610885565b60005b600183516130969190613fb2565b811015613029576000808483815181106130b2576130b2613f69565b6020026020010151858460016130c8919061410a565b815181106130d8576130d8613f69565b60200260200101519150915060006130f083836137a6565b50905060006131207f000000000000000000000000000000000000000000000000000000000000000085856125ad565b9050600080600080846001600160a01b0316630902f1ac6040518163ffffffff1660e01b8152600401606060405180830381865afa158015613166573d6000803e3d6000fd5b505050506040513d601f19601f8201168201806040525081019061318a91906141d6565b506001600160701b031691506001600160701b03169150600080876001600160a01b03168a6001600160a01b0316146131c45782846131c7565b83835b6040516370a0823160e01b81526001600160a01b038a8116600483015292945090925083918c16906370a0823190602401602060405180830381865afa158015613215573d6000803e3d6000fd5b505050506040513d601f19601f82011682018060405250810190613239919061402b565b6132439190613fb2565b9550613250868383612686565b945050505050600080856001600160a01b0316886001600160a01b03161461327a5782600061327e565b6000835b91509150600060028c516132929190613fb2565b8a1061329e578a6132cf565b6132cf7f0000000000000000000000000000000000000000000000000000000000000000898e612bc68e600261410a565b6040805160008152602081019182905263022c0d9f60e01b9091529091506001600160a01b0387169063022c0d9f906133119086908690869060248101614176565b600060405180830381600087803b15801561332b57600080fd5b505af115801561333f573d6000803e3d6000fd5b5050505050505050505050505080806133579061415b565b915050613088565b60008084116133bf5760405162461bcd60e51b815260206004820152602660248201527f4465784c6962726172793a20494e53554646494349454e545f4f55545055545f604482015265105353d5539560d21b6064820152608401610885565b6000831180156133cf5750600082115b6133eb5760405162461bcd60e51b8152600401610885906140a9565b60006133f785856140eb565b613403906103e86140eb565b905060006134118685613fb2565b61341d906103e56140eb565b90506134298183614122565b61343490600161410a565b9695505050505050565b6000807f96561394bac381230de4649200e8831afcab1f451881bbade9ef209f6dd304806040516134899060208082526006908201526530b23330b23360d11b604082015260600190565b60405180910390a160405163e6a4390560e01b81526001600160a01b03898116600483015288811660248301526000917f00000000000000000000000000000000000000000000000000000000000000009091169063e6a4390590604401602060405180830381865afa158015613504573d6000803e3d6000fd5b505050506040513d601f19601f820116820180604052508101906135289190614226565b6001600160a01b031614156135cd576040516364e329cb60e11b81526001600160a01b03898116600483015288811660248301527f0000000000000000000000000000000000000000000000000000000000000000169063c9c65396906044016020604051808303816000875af11580156135a7573d6000803e3d6000fd5b505050506040513d601f19601f820116820180604052508101906135cb9190614226565b505b6000806135fb7f00000000000000000000000000000000000000000000000000000000000000008b8b613890565b9150915081600014801561360d575080155b1561361d57879350869250613707565b600061362a898484613714565b905087811161368f57858110156136845760405163240bf61760e11b815260206004820181905260248201527f446578526f757465723a20494e53554646494349454e545f425f414d4f554e546044820152606401610885565b889450925082613705565b600061369c898486613714565b9050898111156136ae576136ae61395a565b878110156136ff5760405163240bf61760e11b815260206004820181905260248201527f446578526f757465723a20494e53554646494349454e545f415f414d4f554e546044820152606401610885565b94508793505b505b5050965096945050505050565b60008084116137655760405162461bcd60e51b815260206004820152601f60248201527f4465784c6962726172793a20494e53554646494349454e545f414d4f554e54006044820152606401610885565b6000831180156137755750600082115b6137915760405162461bcd60e51b8152600401610885906140a9565b8261379c83866140eb565b61062c9190614122565b600080826001600160a01b0316846001600160a01b0316141561380b5760405162461bcd60e51b815260206004820152601f60248201527f4465784c6962726172793a204944454e544943414c5f414444524553534553006044820152606401610885565b826001600160a01b0316846001600160a01b03161061382b57828461382e565b83835b90925090506001600160a01b0382166138895760405162461bcd60e51b815260206004820152601860248201527f4465784c6962726172793a205a45524f5f4144445245535300000000000000006044820152606401610885565b9250929050565b600080600061389f85856137a6565b5090506000806138b08888886125ad565b6001600160a01b0316630902f1ac6040518163ffffffff1660e01b8152600401606060405180830381865afa1580156138ed573d6000803e3d6000fd5b505050506040513d601f19601f8201168201806040525081019061391191906141d6565b506001600160701b031691506001600160701b03169150826001600160a01b0316876001600160a01b03161461394857808261394b565b81815b90999098509650505050505050565b634e487b7160e01b600052600160045260246000fd5b6001600160a01b038116811461398557600080fd5b50565b803561399381613970565b919050565b801515811461398557600080fd5b803560ff8116811461399357600080fd5b6000806000806000806000806000806101408b8d0312156139d757600080fd5b8a356139e281613970565b995060208b0135985060408b0135975060608b0135965060808b0135613a0781613970565b955060a08b0135945060c08b0135613a1e81613998565b9350613a2c60e08c016139a6565b92506101008b013591506101208b013590509295989b9194979a5092959850565b600080600060608486031215613a6257600080fd5b505081359360208301359350604090920135919050565b634e487b7160e01b600052604160045260246000fd5b60008060408385031215613aa257600080fd5b8235915060208084013567ffffffffffffffff80821115613ac257600080fd5b818601915086601f830112613ad657600080fd5b813581811115613ae857613ae8613a79565b8060051b604051601f19603f83011681018181108582111715613b0d57613b0d613a79565b604052918252848201925083810185019189831115613b2b57600080fd5b938501935b82851015613b5057613b4185613988565b84529385019392850192613b30565b8096505050505050509250929050565b6020808252825182820181905260009190848201906040850190845b81811015613b9857835183529284019291840191600101613b7c565b50909695505050505050565b60008060008060008060008060008060006101608c8e031215613bc657600080fd5b8b35613bd181613970565b9a5060208c0135613be181613970565b995060408c0135985060608c0135975060808c0135965060a08c0135613c0681613970565b955060c08c0135945060e08c0135613c1d81613998565b9350613c2c6101008d016139a6565b92506101208c013591506101408c013590509295989b509295989b9093969950565b60008083601f840112613c6057600080fd5b50813567ffffffffffffffff811115613c7857600080fd5b6020830191508360208260051b850101111561388957600080fd5b600080600080600060808688031215613cab57600080fd5b85359450602086013567ffffffffffffffff811115613cc957600080fd5b613cd588828901613c4e565b9095509350506040860135613ce981613970565b949793965091946060013592915050565b60008060008060008060a08789031215613d1357600080fd5b8635955060208701359450604087013567ffffffffffffffff811115613d3857600080fd5b613d4489828a01613c4e565b9095509350506060870135613d5881613970565b80925050608087013590509295509295509295565b60008060008060008060c08789031215613d8657600080fd5b8635613d9181613970565b95506020870135945060408701359350606087013592506080870135613db681613970565b8092505060a087013590509295509295509295565b60005b83811015613de6578181015183820152602001613dce565b83811115613df5576000848401525b50505050565b60008151808452613e13816020860160208601613dcb565b601f01601f19169290920160200192915050565b6020815260006106616020830184613dfb565b600080600080600080600060e0888a031215613e5557600080fd5b8735613e6081613970565b96506020880135613e7081613970565b955060408801359450606088013593506080880135925060a0880135613e9581613970565b8092505060c0880135905092959891949750929550565b600080600080600080600080610100898b031215613ec957600080fd5b8835613ed481613970565b97506020890135613ee481613970565b965060408901359550606089013594506080890135935060a0890135925060c0890135613f1081613970565b8092505060e089013590509295985092959890939650565b6001600160a01b0397881681529590961660208601526040850193909352606084019190915260ff16608083015260a082015260c081019190915260e00190565b634e487b7160e01b600052603260045260246000fd5b600060208284031215613f9157600080fd5b813561066181613970565b634e487b7160e01b600052601160045260246000fd5b600082821015613fc457613fc4613f9c565b500390565b60208082526025908201527f446578526f757465723a20494e53554646494349454e545f4f55545055545f416040820152641353d5539560da1b606082015260800190565b60006020828403121561402057600080fd5b815161066181613998565b60006020828403121561403d57600080fd5b5051919050565b60208082526021908201527f446578526f757465723a20524543495049454e545f5a45524f5f4144445245536040820152605360f81b606082015260800190565b6000806040838503121561409857600080fd5b505080516020909101519092909150565b60208082526022908201527f4465784c6962726172793a20494e53554646494349454e545f4c495155494449604082015261545960f01b606082015260800190565b600081600019048311821515161561410557614105613f9c565b500290565b6000821982111561411d5761411d613f9c565b500190565b60008261413f57634e487b7160e01b600052601260045260246000fd5b500490565b60008161415357614153613f9c565b506000190190565b600060001982141561416f5761416f613f9c565b5060010190565b84815283602082015260018060a01b03831660408201526080606082015260006134346080830184613dfb565b600082516141b5818460208701613dcb565b9190910192915050565b80516001600160701b038116811461399357600080fd5b6000806000606084860312156141eb57600080fd5b6141f4846141bf565b9250614202602085016141bf565b9150604084015163ffffffff8116811461421b57600080fd5b809150509250925092565b60006020828403121561423857600080fd5b81516106618161397056fe7472616e7366657246726f6d28616464726573732c616464726573732c75696e7432353629a264697066735822122006500a854df4661e5da59d1474dd05abdf82bce9a8440c81e29c5dd3e064067064736f6c634300080c0033",
    "sourcePath": "/Users/kang1027/klaytn/klaytn-dex-contracts/contracts/swap/DexRouter.sol",
    "compiler": {
        "name": "solc",
        "version": "0.8.12+commit.f00d7308"
    },
    "functionHashes": {
        "WKLAY()": "249502d7",
        "addLiquidity(address,address,uint256,uint256,uint256,uint256,address,uint256)": "e8e33700",
        "addLiquidityKLAY(address,uint256,uint256,uint256,address,uint256)": "b216fe9b",
        "factory()": "c45a0155",
        "getAmountIn(uint256,uint256,uint256)": "85f8c259",
        "getAmountOut(uint256,uint256,uint256)": "054d50d4",
        "getAmountsIn(uint256,address[])": "1f00ca74",
        "getAmountsOut(uint256,address[])": "d06ca61f",
        "getFactoryStatus()": "96151139",
        "quote(uint256,uint256,uint256)": "ad615dec",
        "removeLiquidity(address,address,uint256,uint256,uint256,address,uint256)": "baa2abde",
        "removeLiquidityKLAY(address,uint256,uint256,uint256,address,uint256)": "3c187a6b",
        "removeLiquidityKLAYSupportingFeeOnTransferTokens(address,uint256,uint256,uint256,address,uint256)": "ec432014",
        "removeLiquidityKLAYWithPermit(address,uint256,uint256,uint256,address,uint256,bool,uint8,bytes32,bytes32)": "0158a313",
        "removeLiquidityKLAYWithPermitSupportingFeeOnTransferTokens(address,uint256,uint256,uint256,address,uint256,bool,uint8,bytes32,bytes32)": "eca935e5",
        "removeLiquidityWithPermit(address,address,uint256,uint256,uint256,address,uint256,bool,uint8,bytes32,bytes32)": "2195995c",
        "swapExactKLAYForTokens(uint256,address[],address,uint256)": "3022d3a8",
        "swapExactKLAYForTokensSupportingFeeOnTransferTokens(uint256,address[],address,uint256)": "b46fec5b",
        "swapExactTokensForKLAY(uint256,uint256,address[],address,uint256)": "6fe5f23f",
        "swapExactTokensForKLAYSupportingFeeOnTransferTokens(uint256,uint256,address[],address,uint256)": "5bff1aa8",
        "swapExactTokensForTokens(uint256,uint256,address[],address,uint256)": "38ed1739",
        "swapExactTokensForTokensSupportingFeeOnTransferTokens(uint256,uint256,address[],address,uint256)": "5c11d795",
        "swapKLAYForExactTokens(uint256,address[],address,uint256)": "90133605",
        "swapTokensForExactKLAY(uint256,uint256,address[],address,uint256)": "98de2cd2",
        "swapTokensForExactTokens(uint256,uint256,address[],address,uint256)": "8803dbee"
    },
    "gasEstimates": {
        "creation": {
            "codeDepositCost": "3410800",
            "executionCost": "infinite",
            "totalCost": "infinite"
        },
        "external": {
            "WKLAY()": "infinite",
            "addLiquidity(address,address,uint256,uint256,uint256,uint256,address,uint256)": "infinite",
            "addLiquidityKLAY(address,uint256,uint256,uint256,address,uint256)": "infinite",
            "factory()": "infinite",
            "getAmountIn(uint256,uint256,uint256)": "infinite",
            "getAmountOut(uint256,uint256,uint256)": "infinite",
            "getAmountsIn(uint256,address[])": "infinite",
            "getAmountsOut(uint256,address[])": "infinite",
            "getFactoryStatus()": "infinite",
            "quote(uint256,uint256,uint256)": "infinite",
            "removeLiquidity(address,address,uint256,uint256,uint256,address,uint256)": "infinite",
            "removeLiquidityKLAY(address,uint256,uint256,uint256,address,uint256)": "infinite",
            "removeLiquidityKLAYSupportingFeeOnTransferTokens(address,uint256,uint256,uint256,address,uint256)": "infinite",
            "removeLiquidityKLAYWithPermit(address,uint256,uint256,uint256,address,uint256,bool,uint8,bytes32,bytes32)": "infinite",
            "removeLiquidityKLAYWithPermitSupportingFeeOnTransferTokens(address,uint256,uint256,uint256,address,uint256,bool,uint8,bytes32,bytes32)": "infinite",
            "removeLiquidityWithPermit(address,address,uint256,uint256,uint256,address,uint256,bool,uint8,bytes32,bytes32)": "infinite",
            "swapExactKLAYForTokens(uint256,address[],address,uint256)": "infinite",
            "swapExactKLAYForTokensSupportingFeeOnTransferTokens(uint256,address[],address,uint256)": "infinite",
            "swapExactTokensForKLAY(uint256,uint256,address[],address,uint256)": "infinite",
            "swapExactTokensForKLAYSupportingFeeOnTransferTokens(uint256,uint256,address[],address,uint256)": "infinite",
            "swapExactTokensForTokens(uint256,uint256,address[],address,uint256)": "infinite",
            "swapExactTokensForTokensSupportingFeeOnTransferTokens(uint256,uint256,address[],address,uint256)": "infinite",
            "swapKLAYForExactTokens(uint256,address[],address,uint256)": "infinite",
            "swapTokensForExactKLAY(uint256,uint256,address[],address,uint256)": "infinite",
            "swapTokensForExactTokens(uint256,uint256,address[],address,uint256)": "infinite"
        },
        "internal": {
            "_addLiquidity(address,address,uint256,uint256,uint256,uint256)": "infinite",
            "_swap(uint256[] memory,address[] memory,address)": "infinite",
            "_swapSupportingFeeOnTransferTokens(address[] memory,address)": "infinite"
        }
    }
}